{"contracts/Healthcare.sol":{"Healthcare":{"abi":[{"inputs":[],"stateMutability":"nonpayable","type":"constructor"},{"anonymous":false,"inputs":[{"indexed":false,"internalType":"uint256","name":"id","type":"uint256"},{"indexed":false,"internalType":"uint256","name":"patientId","type":"uint256"},{"indexed":false,"internalType":"uint256","name":"doctorId","type":"uint256"},{"indexed":false,"internalType":"uint256","name":"date","type":"uint256"}],"name":"APPOINTMENT_BOOKED","type":"event"},{"anonymous":false,"inputs":[{"indexed":false,"internalType":"uint256","name":"id","type":"uint256"},{"indexed":false,"internalType":"bool","name":"isApproved","type":"bool"}],"name":"APPROVE_DOCTOR_STATUSD","type":"event"},{"anonymous":false,"inputs":[{"indexed":false,"internalType":"uint256","name":"id","type":"uint256"},{"indexed":false,"internalType":"string","name":"IPFS_URL","type":"string"},{"indexed":false,"internalType":"address","name":"accountAddress","type":"address"}],"name":"DOCTOR_REGISTERED","type":"event"},{"anonymous":false,"inputs":[{"indexed":false,"internalType":"uint256","name":"id","type":"uint256"},{"indexed":false,"internalType":"bool","name":"active","type":"bool"}],"name":"MEDICINE_ACTIVE","type":"event"},{"anonymous":false,"inputs":[{"indexed":false,"internalType":"uint256","name":"id","type":"uint256"},{"indexed":false,"internalType":"string","name":"url","type":"string"},{"indexed":false,"internalType":"string","name":"location","type":"string"}],"name":"MEDICINE_ADDED","type":"event"},{"anonymous":false,"inputs":[{"indexed":false,"internalType":"uint256","name":"patientId","type":"uint256"},{"indexed":false,"internalType":"uint256","name":"medicineId","type":"uint256"}],"name":"MEDICINE_BOUGHT","type":"event"},{"anonymous":false,"inputs":[{"indexed":false,"internalType":"uint256","name":"id","type":"uint256"},{"indexed":false,"internalType":"uint256","name":"discount","type":"uint256"}],"name":"MEDICINE_DISCOUNT","type":"event"},{"anonymous":false,"inputs":[{"indexed":false,"internalType":"uint256","name":"id","type":"uint256"},{"indexed":false,"internalType":"string","name":"newLocation","type":"string"}],"name":"MEDICINE_LOCATION","type":"event"},{"anonymous":false,"inputs":[{"indexed":false,"internalType":"uint256","name":"id","type":"uint256"},{"indexed":false,"internalType":"uint256","name":"medicineId","type":"uint256"},{"indexed":false,"internalType":"uint256","name":"patientId","type":"uint256"},{"indexed":false,"internalType":"uint256","name":"doctorId","type":"uint256"},{"indexed":false,"internalType":"uint256","name":"date","type":"uint256"}],"name":"MEDICINE_PRESCRIBED","type":"event"},{"anonymous":false,"inputs":[{"indexed":false,"internalType":"uint256","name":"id","type":"uint256"},{"indexed":false,"internalType":"uint256","name":"price","type":"uint256"}],"name":"MEDICINE_PRICE","type":"event"},{"anonymous":false,"inputs":[{"indexed":false,"internalType":"uint256","name":"id","type":"uint256"},{"indexed":false,"internalType":"uint256","name":"quantity","type":"uint256"}],"name":"MEDICINE_QUANTITY","type":"event"},{"anonymous":false,"inputs":[{"indexed":true,"internalType":"address","name":"user","type":"address"},{"indexed":false,"internalType":"string","name":"message","type":"string"},{"indexed":false,"internalType":"uint256","name":"timestamp","type":"uint256"}],"name":"NOTIFICATiON_SENT","type":"event"},{"anonymous":false,"inputs":[{"indexed":false,"internalType":"uint256","name":"id","type":"uint256"},{"indexed":false,"internalType":"string","name":"_IPFS_URL","type":"string"},{"indexed":false,"internalType":"string[]","name":"medicalHistory","type":"string[]"}],"name":"PATIENT_ADDED","type":"event"},{"inputs":[{"internalType":"string","name":"_IPFS_URL","type":"string"},{"internalType":"address","name":"_address","type":"address"},{"internalType":"string","name":"_name","type":"string"},{"internalType":"string","name":"_type","type":"string"}],"name":"ADD_DOCTOR","outputs":[],"stateMutability":"payable","type":"function"},{"inputs":[{"internalType":"string","name":"_IPFS_URL","type":"string"},{"internalType":"uint256","name":"_price","type":"uint256"},{"internalType":"uint256","name":"_quantity","type":"uint256"},{"internalType":"uint256","name":"_discount","type":"uint256"},{"internalType":"string","name":"_currentLocation","type":"string"}],"name":"ADD_MEDICINE","outputs":[],"stateMutability":"nonpayable","type":"function"},{"inputs":[{"internalType":"string","name":"_IPFS_URL","type":"string"},{"internalType":"string[]","name":"_medicalHistory","type":"string[]"},{"internalType":"address","name":"_accountAddress","type":"address"},{"internalType":"uint256[]","name":"_boughtMedicines","type":"uint256[]"},{"internalType":"string","name":"_name","type":"string"},{"internalType":"address","name":"_doctorAddress","type":"address"},{"internalType":"string","name":"_doctorName","type":"string"},{"internalType":"string","name":"_type","type":"string"}],"name":"ADD_PATIENTS","outputs":[],"stateMutability":"payable","type":"function"},{"inputs":[{"internalType":"uint256","name":"_doctorId","type":"uint256"}],"name":"APPROVE_DOCTOR_STATUS","outputs":[],"stateMutability":"nonpayable","type":"function"},{"inputs":[{"internalType":"uint256","name":"_patientId","type":"uint256"},{"internalType":"uint256","name":"_doctorId","type":"uint256"},{"internalType":"string","name":"_from","type":"string"},{"internalType":"string","name":"_to","type":"string"},{"internalType":"string","name":"_appointmentDate","type":"string"},{"internalType":"string","name":"_condition","type":"string"},{"internalType":"string","name":"_message","type":"string"},{"internalType":"address","name":"_doctorAddress","type":"address"},{"internalType":"string","name":"_name","type":"string"}],"name":"BOOK_APPOINTMENT","outputs":[],"stateMutability":"payable","type":"function"},{"inputs":[{"internalType":"uint256","name":"_patientId","type":"uint256"},{"internalType":"uint256","name":"_medicineId","type":"uint256"},{"internalType":"uint256","name":"_quantity","type":"uint256"}],"name":"BUY_MEDICINE","outputs":[],"stateMutability":"payable","type":"function"},{"inputs":[{"internalType":"address","name":"pubkey","type":"address"}],"name":"CHECK_USER_EXISTS","outputs":[{"internalType":"bool","name":"","type":"bool"}],"stateMutability":"view","type":"function"},{"inputs":[{"internalType":"uint256","name":"_appointmentId","type":"uint256"}],"name":"COMPLETE_APPOINTMENT","outputs":[],"stateMutability":"nonpayable","type":"function"},{"inputs":[],"name":"GET_ALL_APPOINTMENTS","outputs":[{"components":[{"internalType":"uint256","name":"id","type":"uint256"},{"internalType":"uint256","name":"patientId","type":"uint256"},{"internalType":"uint256","name":"doctorId","type":"uint256"},{"internalType":"uint256","name":"date","type":"uint256"},{"internalType":"string","name":"from","type":"string"},{"internalType":"string","name":"to","type":"string"},{"internalType":"string","name":"appointmentDate","type":"string"},{"internalType":"string","name":"condition","type":"string"},{"internalType":"string","name":"message","type":"string"},{"internalType":"bool","name":"isOpen","type":"bool"}],"internalType":"struct Healthcare.Appointment[]","name":"","type":"tuple[]"}],"stateMutability":"view","type":"function"},{"inputs":[],"name":"GET_ALL_APPROVED_DOCTORS","outputs":[{"components":[{"internalType":"uint256","name":"id","type":"uint256"},{"internalType":"string","name":"IPFS_URL","type":"string"},{"internalType":"address","name":"accountAddress","type":"address"},{"internalType":"uint256","name":"appointmentCount","type":"uint256"},{"internalType":"uint256","name":"successfulTreatmentCount","type":"uint256"},{"internalType":"bool","name":"isApproved","type":"bool"}],"internalType":"struct Healthcare.Doctor[]","name":"","type":"tuple[]"}],"stateMutability":"view","type":"function"},{"inputs":[],"name":"GET_ALL_APP_USER","outputs":[{"components":[{"internalType":"string","name":"name","type":"string"},{"internalType":"address","name":"accountAddress","type":"address"}],"internalType":"struct Healthcare.AllUserStruck[]","name":"","type":"tuple[]"}],"stateMutability":"view","type":"function"},{"inputs":[{"internalType":"uint256","name":"patientId","type":"uint256"}],"name":"GET_ALL_PATIENT_ORDERS","outputs":[{"components":[{"internalType":"uint256","name":"medicineId","type":"uint256"},{"internalType":"uint256","name":"price","type":"uint256"},{"internalType":"uint256","name":"payAmount","type":"uint256"},{"internalType":"uint256","name":"quantity","type":"uint256"},{"internalType":"uint256","name":"patientId","type":"uint256"},{"internalType":"uint256","name":"date","type":"uint256"}],"internalType":"struct Healthcare.Order[]","name":"","type":"tuple[]"}],"stateMutability":"view","type":"function"},{"inputs":[],"name":"GET_ALL_PRESCRIBED_MEDICINES","outputs":[{"components":[{"internalType":"uint256","name":"id","type":"uint256"},{"internalType":"uint256","name":"medicineId","type":"uint256"},{"internalType":"uint256","name":"patientId","type":"uint256"},{"internalType":"uint256","name":"doctorId","type":"uint256"},{"internalType":"uint256","name":"date","type":"uint256"}],"internalType":"struct Healthcare.Prescription[]","name":"","type":"tuple[]"}],"stateMutability":"view","type":"function"},{"inputs":[{"internalType":"uint256","name":"patientId","type":"uint256"}],"name":"GET_ALL_PRESCRIBED_MEDICINES_OF_PATIENT","outputs":[{"components":[{"internalType":"uint256","name":"id","type":"uint256"},{"internalType":"uint256","name":"medicineId","type":"uint256"},{"internalType":"uint256","name":"patientId","type":"uint256"},{"internalType":"uint256","name":"doctorId","type":"uint256"},{"internalType":"uint256","name":"date","type":"uint256"}],"internalType":"struct Healthcare.Prescription[]","name":"","type":"tuple[]"}],"stateMutability":"view","type":"function"},{"inputs":[],"name":"GET_ALL_REGISTERED_DOCTORS","outputs":[{"components":[{"internalType":"uint256","name":"id","type":"uint256"},{"internalType":"string","name":"IPFS_URL","type":"string"},{"internalType":"address","name":"accountAddress","type":"address"},{"internalType":"uint256","name":"appointmentCount","type":"uint256"},{"internalType":"uint256","name":"successfulTreatmentCount","type":"uint256"},{"internalType":"bool","name":"isApproved","type":"bool"}],"internalType":"struct Healthcare.Doctor[]","name":"","type":"tuple[]"}],"stateMutability":"view","type":"function"},{"inputs":[],"name":"GET_ALL_REGISTERED_MEDICINES","outputs":[{"components":[{"internalType":"uint256","name":"id","type":"uint256"},{"internalType":"string","name":"IPFS_URL","type":"string"},{"internalType":"uint256","name":"price","type":"uint256"},{"internalType":"uint256","name":"quantity","type":"uint256"},{"internalType":"uint256","name":"discount","type":"uint256"},{"internalType":"string","name":"currentLocation","type":"string"},{"internalType":"bool","name":"active","type":"bool"}],"internalType":"struct Healthcare.Medicine[]","name":"","type":"tuple[]"}],"stateMutability":"view","type":"function"},{"inputs":[],"name":"GET_ALL_REGISTERED_PATIENTS","outputs":[{"components":[{"internalType":"uint256","name":"id","type":"uint256"},{"internalType":"string","name":"IPFS_URL","type":"string"},{"internalType":"string[]","name":"medicalHistory","type":"string[]"},{"internalType":"address","name":"accountAddress","type":"address"},{"internalType":"uint256[]","name":"boughtMedicines","type":"uint256[]"}],"internalType":"struct Healthcare.Patient[]","name":"","type":"tuple[]"}],"stateMutability":"view","type":"function"},{"inputs":[{"internalType":"uint256","name":"_patientId","type":"uint256"}],"name":"GET_BOUGHT_MEDICINE_BY_PAITENT","outputs":[{"internalType":"uint256[]","name":"","type":"uint256[]"}],"stateMutability":"view","type":"function"},{"inputs":[{"internalType":"uint256","name":"_doctorId","type":"uint256"}],"name":"GET_DOCTOR_APPOINTMENTS_HISTORYS","outputs":[{"components":[{"internalType":"uint256","name":"id","type":"uint256"},{"internalType":"uint256","name":"patientId","type":"uint256"},{"internalType":"uint256","name":"doctorId","type":"uint256"},{"internalType":"uint256","name":"date","type":"uint256"},{"internalType":"string","name":"from","type":"string"},{"internalType":"string","name":"to","type":"string"},{"internalType":"string","name":"appointmentDate","type":"string"},{"internalType":"string","name":"condition","type":"string"},{"internalType":"string","name":"message","type":"string"},{"internalType":"bool","name":"isOpen","type":"bool"}],"internalType":"struct Healthcare.Appointment[]","name":"","type":"tuple[]"}],"stateMutability":"view","type":"function"},{"inputs":[{"internalType":"uint256","name":"_doctorId","type":"uint256"}],"name":"GET_DOCTOR_DETAILS","outputs":[{"components":[{"internalType":"uint256","name":"id","type":"uint256"},{"internalType":"string","name":"IPFS_URL","type":"string"},{"internalType":"address","name":"accountAddress","type":"address"},{"internalType":"uint256","name":"appointmentCount","type":"uint256"},{"internalType":"uint256","name":"successfulTreatmentCount","type":"uint256"},{"internalType":"bool","name":"isApproved","type":"bool"}],"internalType":"struct Healthcare.Doctor","name":"","type":"tuple"}],"stateMutability":"view","type":"function"},{"inputs":[{"internalType":"address","name":"_doctorAddress","type":"address"}],"name":"GET_DOCTOR_ID","outputs":[{"internalType":"uint256","name":"","type":"uint256"}],"stateMutability":"view","type":"function"},{"inputs":[{"internalType":"uint256","name":"_medicineId","type":"uint256"}],"name":"GET_MEDICINE_DETAILS","outputs":[{"components":[{"internalType":"uint256","name":"id","type":"uint256"},{"internalType":"string","name":"IPFS_URL","type":"string"},{"internalType":"uint256","name":"price","type":"uint256"},{"internalType":"uint256","name":"quantity","type":"uint256"},{"internalType":"uint256","name":"discount","type":"uint256"},{"internalType":"string","name":"currentLocation","type":"string"},{"internalType":"bool","name":"active","type":"bool"}],"internalType":"struct Healthcare.Medicine","name":"","type":"tuple"}],"stateMutability":"view","type":"function"},{"inputs":[],"name":"GET_MOST_POPULAR_DOCTOR","outputs":[{"components":[{"internalType":"uint256","name":"id","type":"uint256"},{"internalType":"string","name":"IPFS_URL","type":"string"},{"internalType":"address","name":"accountAddress","type":"address"},{"internalType":"uint256","name":"appointmentCount","type":"uint256"},{"internalType":"uint256","name":"successfulTreatmentCount","type":"uint256"},{"internalType":"bool","name":"isApproved","type":"bool"}],"internalType":"struct Healthcare.Doctor","name":"","type":"tuple"}],"stateMutability":"view","type":"function"},{"inputs":[{"internalType":"address","name":"_address","type":"address"}],"name":"GET_MY_FRIEND_LIST","outputs":[{"components":[{"internalType":"address","name":"pubkey","type":"address"},{"internalType":"string","name":"name","type":"string"}],"internalType":"struct Healthcare.friend[]","name":"","type":"tuple[]"}],"stateMutability":"view","type":"function"},{"inputs":[{"internalType":"address","name":"_userAddress","type":"address"}],"name":"GET_NOTIFICATIONS","outputs":[{"components":[{"internalType":"uint256","name":"id","type":"uint256"},{"internalType":"address","name":"userAddress","type":"address"},{"internalType":"string","name":"message","type":"string"},{"internalType":"uint256","name":"timestamp","type":"uint256"},{"internalType":"string","name":"categoryType","type":"string"}],"internalType":"struct Healthcare.Notification[]","name":"","type":"tuple[]"}],"stateMutability":"view","type":"function"},{"inputs":[{"internalType":"uint256","name":"_appointmentId","type":"uint256"}],"name":"GET_PATIENT_APPOINTMENT","outputs":[{"components":[{"internalType":"uint256","name":"id","type":"uint256"},{"internalType":"uint256","name":"patientId","type":"uint256"},{"internalType":"uint256","name":"doctorId","type":"uint256"},{"internalType":"uint256","name":"date","type":"uint256"},{"internalType":"string","name":"from","type":"string"},{"internalType":"string","name":"to","type":"string"},{"internalType":"string","name":"appointmentDate","type":"string"},{"internalType":"string","name":"condition","type":"string"},{"internalType":"string","name":"message","type":"string"},{"internalType":"bool","name":"isOpen","type":"bool"}],"internalType":"struct Healthcare.Appointment","name":"","type":"tuple"}],"stateMutability":"view","type":"function"},{"inputs":[{"internalType":"uint256","name":"_patientId","type":"uint256"}],"name":"GET_PATIENT_APPOINTMENT_HISTORYS","outputs":[{"components":[{"internalType":"uint256","name":"id","type":"uint256"},{"internalType":"uint256","name":"patientId","type":"uint256"},{"internalType":"uint256","name":"doctorId","type":"uint256"},{"internalType":"uint256","name":"date","type":"uint256"},{"internalType":"string","name":"from","type":"string"},{"internalType":"string","name":"to","type":"string"},{"internalType":"string","name":"appointmentDate","type":"string"},{"internalType":"string","name":"condition","type":"string"},{"internalType":"string","name":"message","type":"string"},{"internalType":"bool","name":"isOpen","type":"bool"}],"internalType":"struct Healthcare.Appointment[]","name":"","type":"tuple[]"}],"stateMutability":"view","type":"function"},{"inputs":[{"internalType":"uint256","name":"_patientId","type":"uint256"}],"name":"GET_PATIENT_DETAILS","outputs":[{"components":[{"internalType":"uint256","name":"id","type":"uint256"},{"internalType":"string","name":"IPFS_URL","type":"string"},{"internalType":"string[]","name":"medicalHistory","type":"string[]"},{"internalType":"address","name":"accountAddress","type":"address"},{"internalType":"uint256[]","name":"boughtMedicines","type":"uint256[]"}],"internalType":"struct Healthcare.Patient","name":"","type":"tuple"}],"stateMutability":"view","type":"function"},{"inputs":[{"internalType":"address","name":"_patientAddress","type":"address"}],"name":"GET_PATIENT_ID","outputs":[{"internalType":"uint256","name":"","type":"uint256"}],"stateMutability":"view","type":"function"},{"inputs":[{"internalType":"uint256","name":"_patientId","type":"uint256"}],"name":"GET_PATIENT_MEDICIAL_HISTORY","outputs":[{"internalType":"string[]","name":"","type":"string[]"}],"stateMutability":"view","type":"function"},{"inputs":[{"internalType":"uint256","name":"_prescriptionId","type":"uint256"}],"name":"GET_PRESCRIPTION_DETAILS","outputs":[{"components":[{"internalType":"uint256","name":"id","type":"uint256"},{"internalType":"uint256","name":"medicineId","type":"uint256"},{"internalType":"uint256","name":"patientId","type":"uint256"},{"internalType":"uint256","name":"doctorId","type":"uint256"},{"internalType":"uint256","name":"date","type":"uint256"}],"internalType":"struct Healthcare.Prescription","name":"","type":"tuple"}],"stateMutability":"view","type":"function"},{"inputs":[{"internalType":"address","name":"friend_key","type":"address"},{"internalType":"address","name":"_myAddress","type":"address"}],"name":"GET_READ_MESSAGE","outputs":[{"components":[{"internalType":"address","name":"sender","type":"address"},{"internalType":"uint256","name":"timestamp","type":"uint256"},{"internalType":"string","name":"msg","type":"string"}],"internalType":"struct Healthcare.message[]","name":"","type":"tuple[]"}],"stateMutability":"view","type":"function"},{"inputs":[{"internalType":"address","name":"pubkey","type":"address"}],"name":"GET_USERNAME_TYPE","outputs":[{"components":[{"internalType":"string","name":"name","type":"string"},{"internalType":"string","name":"userType","type":"string"},{"components":[{"internalType":"address","name":"pubkey","type":"address"},{"internalType":"string","name":"name","type":"string"}],"internalType":"struct Healthcare.friend[]","name":"friendList","type":"tuple[]"}],"internalType":"struct Healthcare.User","name":"","type":"tuple"}],"stateMutability":"view","type":"function"},{"inputs":[{"internalType":"uint256","name":"_medicineId","type":"uint256"},{"internalType":"uint256","name":"_patientId","type":"uint256"}],"name":"PRESCRIBE_MEDICINE","outputs":[],"stateMutability":"nonpayable","type":"function"},{"inputs":[{"internalType":"address payable","name":"_newAddress","type":"address"}],"name":"UPDATE_ADMIN_ADDRESS","outputs":[],"stateMutability":"nonpayable","type":"function"},{"inputs":[{"internalType":"uint256","name":"_newFee","type":"uint256"}],"name":"UPDATE_APPOINTMENT_FEE","outputs":[],"stateMutability":"nonpayable","type":"function"},{"inputs":[{"internalType":"uint256","name":"_medicineId","type":"uint256"}],"name":"UPDATE_MEDICINE_ACTIVE","outputs":[],"stateMutability":"nonpayable","type":"function"},{"inputs":[{"internalType":"uint256","name":"_medicineId","type":"uint256"},{"internalType":"uint256","name":"_discount","type":"uint256"}],"name":"UPDATE_MEDICINE_DISCOUNT","outputs":[],"stateMutability":"nonpayable","type":"function"},{"inputs":[{"internalType":"uint256","name":"_medicineId","type":"uint256"},{"internalType":"string","name":"_newLocation","type":"string"}],"name":"UPDATE_MEDICINE_LOCATION","outputs":[],"stateMutability":"nonpayable","type":"function"},{"inputs":[{"internalType":"uint256","name":"_medicineId","type":"uint256"},{"internalType":"uint256","name":"_price","type":"uint256"}],"name":"UPDATE_MEDICINE_PRICE","outputs":[],"stateMutability":"nonpayable","type":"function"},{"inputs":[{"internalType":"uint256","name":"_medicineId","type":"uint256"},{"internalType":"uint256","name":"_quantity","type":"uint256"}],"name":"UPDATE_MEDICINE_QUANTITY","outputs":[],"stateMutability":"nonpayable","type":"function"},{"inputs":[{"internalType":"uint256","name":"_patientId","type":"uint256"},{"internalType":"string","name":"_newMedicalHistory","type":"string"}],"name":"UPDATE_PATIENT_MEDICAL_HISTORY","outputs":[],"stateMutability":"nonpayable","type":"function"},{"inputs":[{"internalType":"uint256","name":"_newFee","type":"uint256"}],"name":"UPDATE_REGISTRATION_FEE","outputs":[],"stateMutability":"nonpayable","type":"function"},{"inputs":[{"internalType":"uint256","name":"_newFee","type":"uint256"}],"name":"UPDATE_REGISTRATION_PATIENT_FEE","outputs":[],"stateMutability":"nonpayable","type":"function"},{"inputs":[{"internalType":"address","name":"friend_key","type":"address"},{"internalType":"address","name":"_myAddress","type":"address"},{"internalType":"string","name":"_msg","type":"string"}],"name":"_SEND_MESSAGE","outputs":[],"stateMutability":"nonpayable","type":"function"},{"inputs":[],"name":"admin","outputs":[{"internalType":"address payable","name":"","type":"address"}],"stateMutability":"view","type":"function"},{"inputs":[],"name":"appointmentCount","outputs":[{"internalType":"uint256","name":"","type":"uint256"}],"stateMutability":"view","type":"function"},{"inputs":[],"name":"appointmentFee","outputs":[{"internalType":"uint256","name":"","type":"uint256"}],"stateMutability":"view","type":"function"},{"inputs":[{"internalType":"uint256","name":"","type":"uint256"}],"name":"appointments","outputs":[{"internalType":"uint256","name":"id","type":"uint256"},{"internalType":"uint256","name":"patientId","type":"uint256"},{"internalType":"uint256","name":"doctorId","type":"uint256"},{"internalType":"uint256","name":"date","type":"uint256"},{"internalType":"string","name":"from","type":"string"},{"internalType":"string","name":"to","type":"string"},{"internalType":"string","name":"appointmentDate","type":"string"},{"internalType":"string","name":"condition","type":"string"},{"internalType":"string","name":"message","type":"string"},{"internalType":"bool","name":"isOpen","type":"bool"}],"stateMutability":"view","type":"function"},{"inputs":[],"name":"doctorCount","outputs":[{"internalType":"uint256","name":"","type":"uint256"}],"stateMutability":"view","type":"function"},{"inputs":[{"internalType":"uint256","name":"","type":"uint256"}],"name":"doctors","outputs":[{"internalType":"uint256","name":"id","type":"uint256"},{"internalType":"string","name":"IPFS_URL","type":"string"},{"internalType":"address","name":"accountAddress","type":"address"},{"internalType":"uint256","name":"appointmentCount","type":"uint256"},{"internalType":"uint256","name":"successfulTreatmentCount","type":"uint256"},{"internalType":"bool","name":"isApproved","type":"bool"}],"stateMutability":"view","type":"function"},{"inputs":[],"name":"medicineCount","outputs":[{"internalType":"uint256","name":"","type":"uint256"}],"stateMutability":"view","type":"function"},{"inputs":[{"internalType":"uint256","name":"","type":"uint256"}],"name":"medicines","outputs":[{"internalType":"uint256","name":"id","type":"uint256"},{"internalType":"string","name":"IPFS_URL","type":"string"},{"internalType":"uint256","name":"price","type":"uint256"},{"internalType":"uint256","name":"quantity","type":"uint256"},{"internalType":"uint256","name":"discount","type":"uint256"},{"internalType":"string","name":"currentLocation","type":"string"},{"internalType":"bool","name":"active","type":"bool"}],"stateMutability":"view","type":"function"},{"inputs":[],"name":"patientCount","outputs":[{"internalType":"uint256","name":"","type":"uint256"}],"stateMutability":"view","type":"function"},{"inputs":[{"internalType":"uint256","name":"","type":"uint256"},{"internalType":"uint256","name":"","type":"uint256"}],"name":"patientOrders","outputs":[{"internalType":"uint256","name":"medicineId","type":"uint256"},{"internalType":"uint256","name":"price","type":"uint256"},{"internalType":"uint256","name":"payAmount","type":"uint256"},{"internalType":"uint256","name":"quantity","type":"uint256"},{"internalType":"uint256","name":"patientId","type":"uint256"},{"internalType":"uint256","name":"date","type":"uint256"}],"stateMutability":"view","type":"function"},{"inputs":[{"internalType":"uint256","name":"","type":"uint256"}],"name":"patients","outputs":[{"internalType":"uint256","name":"id","type":"uint256"},{"internalType":"string","name":"IPFS_URL","type":"string"},{"internalType":"address","name":"accountAddress","type":"address"}],"stateMutability":"view","type":"function"},{"inputs":[],"name":"prescriptionCount","outputs":[{"internalType":"uint256","name":"","type":"uint256"}],"stateMutability":"view","type":"function"},{"inputs":[{"internalType":"uint256","name":"","type":"uint256"}],"name":"prescriptions","outputs":[{"internalType":"uint256","name":"id","type":"uint256"},{"internalType":"uint256","name":"medicineId","type":"uint256"},{"internalType":"uint256","name":"patientId","type":"uint256"},{"internalType":"uint256","name":"doctorId","type":"uint256"},{"internalType":"uint256","name":"date","type":"uint256"}],"stateMutability":"view","type":"function"},{"inputs":[{"internalType":"address","name":"","type":"address"}],"name":"registeredDoctors","outputs":[{"internalType":"bool","name":"","type":"bool"}],"stateMutability":"view","type":"function"},{"inputs":[{"internalType":"address","name":"","type":"address"}],"name":"registeredPatients","outputs":[{"internalType":"bool","name":"","type":"bool"}],"stateMutability":"view","type":"function"},{"inputs":[],"name":"registrationDoctorFee","outputs":[{"internalType":"uint256","name":"","type":"uint256"}],"stateMutability":"view","type":"function"},{"inputs":[],"name":"registrationPatientFee","outputs":[{"internalType":"uint256","name":"","type":"uint256"}],"stateMutability":"view","type":"function"}],"evm":{"bytecode":{"linkReferences":{},"object":"60808060405234610043576608e1bc9bf04000601281905565e35fa931a000601355601455601180546001600160a01b0319163317905561588f9081620000498239f35b600080fdfe6080604052600436101561001257600080fd5b60003560e01c806302cce77014614118578063046a07ed1461409257806304c0adb71461406f578063082ed5471461404457806312dc901314613f4b5780631b82207e14613f1e5780632a42e74c14613db85780632c486bd514613d0457806331dfc91b14613c9c578063354b365f14613b0157806337a92da7146138e457806339d519a9146138335780633f308cd2146137f45780634dafd490146137d6578063540a6614146137b8578063559160b81461363f5780635597958e1461349357806356baa64e1461336f5780635970cea414612dea578063636d362714612d995780636efb1b8414612d1057806372de440114612ba257806374cdd53414612b29578063770d954d14612a7457806378522bc414612a565780637c0b501a1461294b578063828b10da1461282b5780638366304b14612482578063842f8dd01461233857806384e7aa2e146121bd5780638c9e245d1461212757806393119a83146120db5780639cdaaad81461209c5780639fea8c2614611f37578063a0303c4114611f19578063a48f87d014611ea7578063a72c162314611dba578063b039ece914611c88578063b27b24f814611b72578063b3e0c71014611abf578063b655849814611aa1578063b884db75146117bd578063bbece2bb146116fc578063c0a5999a14611606578063c85e766d14611569578063d0da23061461144a578063d174ea41146113bb578063dabf826a1461139d578063dd1bf902146111e9578063e40b850e146111cb578063e92f0a681461112b578063ea51cd6c14611022578063ebd557d914610b85578063ed74e8481461092c578063eebc3fb21461090e578063f27e44cc14610873578063f28136a9146107ec578063f851a440146107c3578063fb5333b7146106e5578063fd9510d5146104b0578063fe60efa1146104155763ff09a64e146102c657600080fd5b34610410576020366003190112610410576102df6141b4565b6060604080516102ee816142a2565b828152826020820152015261030a61030582615190565b615441565b60018060a01b03166000526001806020526040600020906040519061032e826142a2565b610337836142de565b825261039261035a600261034c8487016142de565b956020860196875201615486565b936040840194855261037f604051946020865251606060208701526080860190614384565b9051848203601f19016040860152614384565b925192601f19838203016060840152835180825260208201916020808360051b8301019601926000915b8383106103c95786880387f35b90919293946020806103ff839a601f198682030187526040838b5160018060a01b03815116845201519181858201520190614384565b9997019594919091019201906103bc565b600080fd5b346104105760203660031901126104105761042e61505c565b5060043560005260066020526104ac604060002060ff60056040519261045384614251565b80548452610463600182016142de565b602085015260018060a01b0360028201541660408501526003810154606085015260048101546080850152015416151560a0820152604051918291602083526020830190614699565b0390f35b3461041057602080600319360112610410576004359033600052600a81526104df60ff60406000205416614c3e565b6104ed601054831115614cff565b8160005260098152600260406000200154610507336150de565b0361068357816106819260005260098252600960406000200160ff198154169055610531336150de565b60005260068252600460406000200161054a81546148bc565b90556105ab60405161055b816142a2565b602f81527f596f752068617665207375636365737366756c6c7920636f6d706c6574656420848201526e1d1a1948185c1c1bda5b9d1b595b9d608a1b60408201526105a4614bd8565b9033614a12565b600052600981526001604060002001546000526007815260018060a01b0361062d81600360406000200154166040516105e3816142a2565b602a81527f596f7572204170706f696e746d656e74206973207375636365737366756c6c7985820152690818dbdb5c1b195d195960b21b6040820152610627614bd8565b91614a12565b60115416907f446f63746f7220636f6d706c65746564206170706f696e746d656e742073756360405191610660836142a2565b60298352820152686365737366756c6c7960b81b6040820152610627614bd8565b005b6084906040519062461bcd60e51b82526004820152603560248201527f4f6e6c79207468652061737369676e656420646f63746f722063616e20636f6d6044820152741c1b195d19481d1a1948185c1c1bda5b9d1b595b9d605a1b6064820152fd5b34610410577f573cca7a8cd583da809cdb83b4ea8dec06c87da579a25478cc69566672e2b5896107143661443e565b9061072a60018060a01b03601154163314614865565b610738600c54821115614b40565b806000526005602052610752826005604060002001614927565b6107a2604051610761816142a2565b602681527f4d65646963696e65206c6f636174696f6e2075706461746564207375636365736020820152657366756c6c7960d01b60408201526105a46149ee565b6107be6040519283928352604060208401526040830190614384565b0390a1005b34610410576000366003190112610410576011546040516001600160a01b039091168152602090f35b3461041057602036600319011261041057601154610681906001600160a01b0316610818338214614865565b60043560125560405161082a816142a2565b602e81527f596f752068617665207375636365737366756c6c79207570646174656420526560208201526d67697374726174696f6e2066656560901b6040820152610627614dc0565b346104105760203660031901126104105761088c614de1565b50600435600052600860205260a060406000206004604051916108ae8361421a565b805483526001810154602084015260028101546040840152600381015460608401520154608082015261090c604051809260808091805184526020810151602085015260408101516040850152606081015160608501520151910152565bf35b34610410576000366003190112610410576020601054604051908152f35b34610410576060366003190112610410576109456141b4565b61094d6141ca565b906044356001600160401b0381116104105761096d903690600401614588565b92909161098161097c83615190565b615501565b61098d61030582615190565b610997818361566d565b15610b31576109a681836157c3565b90604051946109b4866142a2565b60018060a01b039384811687526109d56020968789019342855236916143da565b9360408801948552600052600286526040600020805497600160401b891015610b1b5760018901808355891015610b05576002610ac396610a8f95896106819c610a479660005260038d6000209102019451166001600160601b0360a01b855416178455516001840155519101614927565b604051610a53816142a2565b602281527f596f752068617665207375636365737366756c6c792073656e64206d657373618782015261676560f01b60408201526106276157a0565b604051610a9b8161426c565b6014815273596f752068617665206e6577206d65737361676560601b858201526106276157a0565b60115416907f6d6573736167652073656e64207375636365737366756c6c790000000000000060405191610af68361426c565b601983528201526106276157a0565b634e487b7160e01b600052603260045260246000fd5b634e487b7160e01b600052604160045260246000fd5b60405162461bcd60e51b815260206004820152602660248201527f596f7520617265206e6f7420667269656e64207769746820746865206769766560448201526537103ab9b2b960d11b6064820152608490fd5b610120366003190112610410576001600160401b0360443581811161041057610bb2903690600401614420565b60643582811161041057610bca903690600401614420565b9060843583811161041057610be3903690600401614420565b9060a43584811161041057610bfc903690600401614420565b9260c43585811161041057610c15903690600401614420565b9460e4356001600160a01b0381169003610410576101043590811161041057610c42903690600401614588565b959094610c55600e546004351115614ca2565b610c65600d546024351115614bfa565b6024356000526006602052610c8460ff60056040600020015416614d4b565b6004356000908152600760205260409020600301546001600160a01b03163303610fc9576014543403610f8457610cc0600a3490810490614db3565b94601054610ccd906148bc565b938460105560405195610cdf87614235565b858752602087016004358152604088016024358152606089019142835260808a0193845260a08a0194855260c08a0195865260e08a019687526101008a019788526101208a019860018a526000526009602052604060002099518a555160018a0155516002890155516003880155516004870190610d5c91614927565b51610d6a9060058701614927565b51610d789060068601614927565b51610d869060078501614927565b51610d949060088401614927565b5115159060090190610db1919060ff801983541691151516179055565b602435600052600660205260406000206003018054610dcf906148bc565b905560115460009081908190819081906001600160a01b0316600a340415610f7a575b600a340491f115610f65576000808080936024358252600660205260018060a01b03600260408420015416828215610f71575bf115610f6557610e3991339160e43561554d565b610e83604051610e488161426c565b601a81527f596f7520686176652061206e6577206170706f696e746d656e740000000000006020820152610e7a614d90565b9060e435614a12565b610ed8604051610e92816142a2565b602b81527f596f752068617665207375636365737366756c6c7920626f6f6b656420616e2060208201526a185c1c1bda5b9d1b595b9d60aa1b60408201526105a4614d90565b601154604051610f20916001600160a01b031690610ef58161426c565b601681527513995dc8185c1c1bda5b9d1b595b9d08189bdbdad95960521b6020820152610627614d90565b7f3ac6f9df28ef09d1b346be1f7d771f61872f07de8da7b88f490fe4f61b2b3e2c608060105460405190815260043560208201526024356040820152426060820152a1005b6040513d6000823e3d90fd5b506108fc610e25565b6108fc9150610df2565b60405162461bcd60e51b815260206004820152601960248201527f496e636f7272656374206170706f696e746d656e7420666565000000000000006044820152606490fd5b60405162461bcd60e51b815260206004820152602b60248201527f4f6e6c79207468652070617469656e742063616e20626f6f6b2074686569722060448201526a185c1c1bda5b9d1b595b9d60aa1b6064820152608490fd5b346104105760003660031901126104105760105461103f8161500c565b9060018060005b8383111561105c57604051806104ac878261450f565b61111f6111259184600052600960ff60209180835260406000206040519361108385614235565b81548552888201549085015260028101546040850152600381015460608501526110af600482016142de565b60808501526110c0600582016142de565b60a08501526110d1600682016142de565b60c08501526110e2600782016142de565b60e08501526110f3600882016142de565b610100850152015416151561012082015261110e8289614e5c565b526111198188614e5c565b506148bc565b926148bc565b91611046565b3461041057602036600319011261041057611144615157565b5060043560005260056020526104ac604060002060ff60066040519261116984614287565b80548452611179600182016142de565b60208501526002810154604085015260038101546060850152600481015460808501526111a8600582016142de565b60a0850152015416151560c08201526040519182916020835260208301906147ea565b34610410576000366003190112610410576020601254604051908152f35b346104105760a0366003190112610410576001600160401b036004358181116104105761121a903690600401614420565b608435918211610410576112537f4bd6730197eeaa6a5861ee6770b4a7ea4945e177c1b8f8e196812da34b52b620923690600401614420565b61126860018060a01b03601154163314614865565b611313611276600c546148bc565b80600c5560066040519161128983614287565b8083526112fd60208401878152604085016024358152606086016044358152608087019160643583526112e160a08901948b865260c08a0197600189526000526005602052604060002099518a555160018a01614927565b5160028801555160038701555160048601555160058501614927565b51151591019060ff801983541691151516179055565b61136c604051611322816142a2565b602f81527f4e6577204d65646963696e6520616464656420746f206d61726b6574706c616360208201526e65207375636365737366756c6c792160881b60408201526105a46149ee565b6107be600c549161138f6040519485948552606060208601526060850190614384565b908382036040850152614384565b34610410576000366003190112610410576020601454604051908152f35b3461041057602036600319011261041057601154610681906001600160a01b03166113e7338214614865565b6004356013556040516113f9816142a2565b603681527f596f752068617665207375636365737366756c6c7920757064617465642050616020820152757469656e7420526567697374726174696f6e2066656560501b6040820152610627614dc0565b3461041057600036600319011261041057600d546001906000825b8281111561152c57506114779061508e565b916000815b8381111561149257604051806104ac87826146ea565b80600052602060068152604060002060ff60058201541690816114c1575b5050506114bc906148bc565b61147c565b916114bc939491600461152394604051936114db85614251565b815485526114ea8a83016142de565b9085015260028101546001600160a01b031660408501526003810154606085015201546080830152151560a082015261110e8289614e5c565b919086806114b0565b80600052600660205260ff60056040600020015416611554575b61154f906148bc565b611465565b9061156161154f916148bc565b919050611546565b3461041057602036600319011261041057600435600052600560205260406000208054611598600183016142de565b916115fa6002820154600383015492600481015460ff60066115bc600585016142de565b93015416946115dd604051988998895260e060208a015260e0890190614384565b9360408801526060870152608086015284820360a0860152614384565b90151560c08301520390f35b34610410576020366003190112610410577f954090adef24b59354b88966afb6b169cf1790275cc1c22d9d599cfa745041a560043561165060018060a01b03601154163314614865565b61165e600c54821115614b40565b6000818152600560205260409020600601805460ff818116151660ff199091161790556116cf604051611690816142a2565b602481527f4d65646963696e65207374617475732075706461746564207375636365737366602082015263756c6c7960e01b60408201526105a46149ee565b60008181526005602090815260409182902060060154825193845260ff16151590830152819081016107be565b34610410577f611a96f8a84b78b34d3917accd31d6e94ffc712cdd95a8ce7b8e2f9c5e093ae9604061172d366143c4565b61174260018060a01b03601154163314614865565b611750600c54831115614b40565b8160005260056020528060048460002001556117b08351611770816142a2565b602681527f4d65646963696e6520646973636f756e742075706461746564207375636365736020820152657366756c6c7960d01b858201526105a46149ee565b82519182526020820152a1005b6080366003190112610410576001600160401b03600435818111610410576117e9903690600401614420565b6117f16141ca565b60443583811161041057611809903690600401614588565b9060643585811161041057611822903690600401614420565b916118306012543414614b8c565b60018060a01b03928385169283600052602093600a855260ff60406000205416611a5c576118f8611862600d546148bc565b80600d5560056040519161187583614251565b808352888084018d8152604085018781526118bd606087019260008452600660808901956000875260a08a019760008952600052526040600020975188555160018801614927565b8c600287019151166001600160601b0360a01b82541617905551600385015551600484015551151591019060ff801983541691151516179055565b600052600a84526040600020600160ff198254161790556000808080886011541681903415611a52575b3491f115610f65576119359286916151d2565b60405191608083019583871090871117610b1b576119e5611a3f937f8c4e93915e8e9956f3984eef613c813c83672180f22083646e395379663dd76997604052604981527f596f752068617665207375636365737366756c6c7920636f6d706c6574656420848201527f74686520726567697374726174696f6e2c206e6f7720776174696e6720666f7260408201526808185c1c1c9bdd985b60ba1b60608201526119de614bd8565b9086614a12565b60115416907f4e657720646f63746f72206973207265676973746f722c206e6f77207761746960405191611a18836142a2565b602f83528201526e1b99c8199bdc88185c1c1c9bdd985b608a1b6040820152610627614bd8565b6107be600d5491604051938493846147bc565b6108fc9150611922565b60405162461bcd60e51b815260048101869052601c60248201527f446f63746f7220697320616c72656164792072656769737465726564000000006044820152606490fd5b34610410576000366003190112610410576020600f54604051908152f35b3461041057602080600319360112610410576001600160a01b039081611ae36141b4565b166000526001808252611afc6002604060002001615486565b926040519280840190808552855180925260408501928160408460051b8801019701936000915b848310611b305787890388f35b9091929394958480611b60839b603f198c82030187526040838c5188815116845201519181858201520190614384565b9a980196959491909101920190611b23565b3461041057600036600319011261041057611b8b61505c565b50611b9461505c565b600090600180600d54915b82811115611bbd57604051602080825281906104ac90820187614699565b806000526006602081815260406000206003906004828201549101548101809111611c7257888111611bfc575b50505050611bf7906148bc565b611b9f565b60ff92939850611bf7949750906005919888600052845260406000209060405194611c2686614251565b82548652611c358884016142de565b9086015260028201546001600160a01b03166040860152810154606085015260048101546080850152015416151560a08201529390868080611bea565b634e487b7160e01b600052601160045260246000fd5b3461041057604036600319011261041057611cb1611ca46141b4565b611cac6141ca565b6157c3565b6000526002602081815260406000208054611ccb81614571565b93611cd960405195866142bd565b81855260009283528383208486019391845b848410611d7157604080518881528951818a01819052600092600582901b83018101918a918c9085015b828710611d225785850386f35b909192938280611d61600193603f198a820301865260408951868060a01b03815116835284810151858401520151906060908160408201520190614384565b9601920196019592919092611d15565b60038760019260409a999a51611d86816142a2565b848060a01b0387541681528487015483820152611da48688016142de565b6040820152815201930193019291969596611ceb565b346104105760208060031936011261041057600435611ddd600e54821115614ca2565b6000818152600783526040902060030154336001600160a01b0391821614908115611e99575b5015611e355760005260078152611e206002604060002001614e9c565b906104ac6040519282849384528301906145e9565b60405162461bcd60e51b815260048101839052603660248201527f4f6e6c79207468652070617469656e74206f722061646d696e2063616e207669604482015275657720746865206d65646963616c20686973746f727960501b6064820152608490fd5b905060115416331483611e03565b3461041057611eb5366143c4565b906000526004602052604060002080548210156104105760c091611ed891614849565b5080549060018101549060028101546003820154906005600484015493015493604051958652602086015260408501526060840152608083015260a0820152f35b34610410576000366003190112610410576020600e54604051908152f35b3461041057600036600319011261041057600c54611f5481614571565b611f6160405191826142bd565b818152601f19611f7083614571565b0160005b818110612085575060019290508260005b82821115611ff0578385604051906020808301818452845180915260408401918060408360051b8701019601926000905b838210611fc35786880387f35b90919293948380611fdf839a603f198b820301865289516147ea565b999701959493919091019101611fb6565b61207961207f91836000528660ff6006600561205560209180835260406000209261202c6040519761202189614287565b8554895285016142de565b9087015260028301546040870152600383015460608701526004830154608087015282016142de565b60a0850152015416151560c082015261206e8288614e5c565b526111198187614e5c565b916148bc565b90611f85565b602090612090615157565b82828601015201611f74565b34610410576020366003190112610410576001600160a01b036120bd6141b4565b16600052600b602052602060ff604060002054166040519015158152f35b34610410576020366003190112610410576004356000526007602052604060002080546104ac61210d600184016142de565b92600360018060a01b0391015416604051938493846147bc565b3461041057600036600319011261041057600f5461214481614e0c565b9060018060005b8383111561216157604051806104ac878261474c565b61111f6121b7918460005260206008815260046040600020604051926121868461421a565b81548452878201549084015260028101546040840152600381015460608401520154608082015261110e8289614e5c565b9161214b565b3461041057602080600319360112610410576004356121da614fc1565b506121e9601054821115614cff565b806000526009825260016040600020015461220333614f40565b148015612324575b156122c4576000526009815260406000209060ff60096040519361222e85614235565b80548552600181015484860152600281015460408601526003810154606086015261225b600482016142de565b608086015261226c600582016142de565b60a086015261227d600682016142de565b60c086015261228e600782016142de565b60e086015261229f600882016142de565b61010086015201541615156101208301526104ac60405192828493845283019061446d565b60405162461bcd60e51b815260048101839052603260248201527f4f6e6c79207468652070617469656e74206f722061646d696e2063616e207669604482015271195dc81d1a1948185c1c1bda5b9d1b595b9d60721b6064820152608490fd5b506011546001600160a01b0316331461220b565b3461041057600036600319011261041057600e5461235581614571565b61236260405191826142bd565b818152601f1961237183614571565b0160005b81811061246b575060019290508260005b828211156123f1578385604051906020808301818452845180915260408401918060408360051b8701019601926000905b8382106123c45786880387f35b909192939483806123e0839a603f198b8203018652895161463e565b9997019594939190910191016123b7565b612079612465918360005260206007815261245660046040600020604051936124198561421a565b815485526124288c83016142de565b9085015261243860028201614e9c565b604085015260038101546001600160a01b0316606085015201614ef1565b608082015261206e8288614e5c565b90612386565b602090612476614e70565b82828601015201612375565b60603660031901126104105760043560248035906044356124a7600e54851115614ca2565b6124b5600c54841115614b40565b836000526020916007835260018060a01b0391826003604060002001541633036127d7578460005260059081855260ff600660406000200154161561279a578560005281855280600360406000200154106127565785600052818552600260406000200154908082029180830482149015171561274157866000528286526003604060002001612546828254614db3565b905587600052600786526004604060002001908154600160401b928382101561272c579061257991600182018155614ce7565b81549060031b908a821b91600019901b19161790558860005260048752604060002092886000528488526002604060002001546040516125b881614251565b8a8152898101918252604081019283526060810193845260808101948c865260a082019642885280549182101561271757906125f991600182018155614849565b989098612703577f1d62f96054391d98915909b52fc6b2182af4ce3748f5ddd6c0047dd725a969df60408e8e8e6126f88f8f8f8f8f8f8f8f8f5187555160018701555160028601555160038501555160048401555191015561269d865161265f816142a2565b602581527f596f752068617665207375636365737366756c6c7920626f75676874206d656485820152646963696e6560d81b888201526105a4614d90565b6011541685516126ac816142a2565b603381527f5472616e73616374696f6e20636f6d706c657465642c206d61646963696e65208482015272626f75676874207375636365737366756c6c7960681b87820152610627614d90565b8351928352820152a1005b634e487b7160e01b60005260006004526000fd5b89634e487b7160e01b60005260416004526000fd5b86634e487b7160e01b60005260416004526000fd5b83634e487b7160e01b60005260116004526000fd5b60405162461bcd60e51b815260048101869052601c818501527f4e6f7420656e6f756768206d65646963696e6520696e2073746f636b000000006044820152606490fd5b60405162461bcd60e51b815260048101869052601681850152754d65646963696e65206973206e6f742061637469766560501b6044820152606490fd5b60405162461bcd60e51b8152600481018590526027818401527f4f6e6c79207468652070617469656e742063616e20627579207468656972206d60448201526665646963696e6560c81b6064820152608490fd5b346104105760003660031901126104105760005461284881614571565b9061285660405192836142bd565b8082526000808052602091828401917f290decd9548b62a8d60345a988386fc84ba6bc95484008f6362f93160ef3e563835b83831061290b5750505050604051918083019381845251809452604083019360408160051b85010192916000955b8287106128c35785850386f35b909192938280600192603f19898203018552875190826128ec8351604084526040840190614384565b9281878060a01b039101511691015296019201960195929190926128b6565b6002866001926040999899516129208161426c565b612929866142de565b8152848060a01b03858701541683820152815201920192019190959495612888565b346104105760208060031936011261041057600f546001916004356000845b84811115612a1b575061297c90614e0c565b93600091815b8581111561299857604051806104ac898261474c565b806000526008855260406000206002810154908382146129c3575b50506129be906148bc565b612982565b94612a139160046129be9497604051926129dc8461421a565b81548452888201548b85015260408401526003810154606084015201546080820152612a08828b614e5c565b52611119818a614e5c565b9390886129b3565b80600052600884528260026040600020015414612a41575b612a3c906148bc565b61296a565b90612a4e612a3c916148bc565b919050612a33565b34610410576000366003190112610410576020600d54604051908152f35b3461041057600036600319011261041057600d54612a918161508e565b9060018060005b83831115612aae57604051806104ac87826146ea565b61111f612b23918460005260206006815260ff6005604060002060405193612ad585614251565b81548552612ae48983016142de565b9085015260028101546001600160a01b031660408501526003810154606085015260048101546080850152015416151560a082015261110e8289614e5c565b91612a98565b3461041057602036600319011261041057612b42614e70565b5060043560005260076020526104ac6040600020612b89600460405192612b688461421a565b80548452612b78600182016142de565b602085015261243860028201614e9c565b608082015260405191829160208352602083019061463e565b346104105760208060031936011261041057600435612bc5600d54821115614bfa565b601054906001906000825b84811115612cd55750612be29061500c565b93600091835b85811115612bfe57604051806104ac898261450f565b806000526009808452604060002090600282015491848314612c2c575b505050612c27906148bc565b612be8565b9160ff612c27949792612ccc9460405193612c4685614235565b815485528b8201548a860152604085015260038101546060850152612c6d600482016142de565b6080850152612c7e600582016142de565b60a0850152612c8f600682016142de565b60c0850152612ca0600782016142de565b60e0850152612cb1600882016142de565b6101008501520154161515610120820152612a08828b614e5c565b93908880612c1b565b80600052600986528260026040600020015414612cfb575b612cf6906148bc565b612bd0565b90612d08612cf6916148bc565b919050612ced565b3461041057602036600319011261041057600435600052600660205260406000208054612d3f600183016142de565b9160018060a01b036002820154169060038101549060ff600560048301549201541691612d7e604051968796875260c0602088015260c0870190614384565b93604086015260608501526080840152151560a08301520390f35b3461041057602036600319011261041057600435612dbb600e54821115614ca2565b60005260076020526104ac612dd66004604060002001614ef1565b6040519182916020835260208301906145b5565b610100366003190112610410576004356001600160401b03811161041057612e16903690600401614420565b602435906001600160401b0382116104105736602383011215610410578160040135612e4181614571565b92612e4f60405194856142bd565b8184526024602085019260051b820101903682116104105760248101925b8284106133405785856044356001600160a01b038116900361041057606435916001600160401b038311610410573660238401121561041057826004013592612eb584614571565b93612ec360405195866142bd565b8085526024602086019160051b8301019136831161041057602401905b828210613330575050506084356001600160401b03811161041057612f09903690600401614588565b60a4356001600160a01b03811690036104105760c4356001600160401b03811161041057612f3b903690600401614588565b909160e4356001600160401b03811161041057612f5c903690600401614420565b96612f6a6013543414614b8c565b6044356001600160a01b03166000908152600b602052604090205460ff166132eb57612f97600e546148bc565b9081600e5560405190612fa98261421a565b8282526020820192898452604083019189835260018060a01b0360443516606085015260808401526000526007602052612ff0604060002093835185555160018501614927565b51805190600160401b8211610b1b576002840154826002860155808310613272575b506020016002840160005260206000206000915b8383106132555750505060608201516003840180546001600160a01b0319166001600160a01b03929092169190911790555060800151805191906001600160401b038311610b1b57600160401b8311610b1b576020600491828401548584860155808610613236575b50019101600052602060002060005b83811061322257505050506044356001600160a01b039081166000908152600b60205260408120805460ff1916600117905560115490918291829182918291163415613218575b3491f115610f65577fc66c47c46a9613cb876ef0205ca8c4597eb05703969f8458f4a762107e865dc29661312c9461312092604435916151d2565b6044359160a43561554d565b61318b60405161313b816142a2565b602c81527f596f752068617665207375636365737366756c6c7920636f6d706c657465642060208201526b3932b3b4b9ba3930ba34b7b760a11b6040820152613182614d90565b90604435614a12565b6011546040516131e7916001600160a01b0316906131a8816142a2565b602481527f4e65772050617469656e74206973207265676973746f72207375636365737366602082015263756c6c7960e01b6040820152610627614d90565b6107be600e549161320a6040519485948552606060208601526060850190614384565b9083820360408501526145e9565b6108fc91506130e5565b60019060208451940193818401550161309e565b61324f90848601600052868460002091820191016148cb565b8c61308f565b600160208261326683945186614927565b01920192019190613026565b600285016000526020600020908382015b8183018110613293575050613012565b806132a0600192546141e0565b806132ad575b5001613283565b601f9081811184146132c6575050600081555b8f6132a6565b6132e260009284845260208420920160051c82018583016148cb565b818355556132c0565b60405162461bcd60e51b815260206004820152601d60248201527f50617469656e7420697320616c726561647920726567697374657265640000006044820152606490fd5b8135815260209182019101612ee0565b83356001600160401b03811161041057602091613364839260243691870101614420565b815201930192612e6d565b346104105760208060031936011261041057600435613392600e54821115614ca2565b6000526004815260406000209081546133aa81614571565b906133b860405192836142bd565b8082528282018094600052836000206000915b83831061343f5760408051878152865181890181905289928201908960005b8281106133f75784840385f35b855180518552808301518584015260408082015190860152606080820151908601526080808201519086015260a090810151908501529481019460c0909301926001016133ea565b60068660019260405161345181614251565b855481528486015483820152600286015460408201526003860154606082015260048601546080820152600586015460a08201528152019201920191906133cb565b34610410576020806003193601126104105760043560018060a01b036134be81601154163314614865565b6134cc600d54831115614bfa565b816000526006835260ff600560406000200154166135fa577ffb071d6299bd71490cb62d5ce7358d7d43ab700c9b4a8bff1f869d2d52c0f117926135d060069284600052838352613534600560406000200160ff8154161560ff801983541691151516179055565b613582604051613543816142a2565b602581527f596f75206861766520617070726f76656420446f636f74722072656769737472858201526430ba34b7b760d91b60408201526105a4614bd8565b846000528383526002604060002001541660405161359f8161426c565b601d81527f596f757220726567697374726174696f6e20697320617070726f76656400000084820152610627614bd8565b600083815291905260409081902060050154815192835260ff1615156020830152819081016107be565b60405162461bcd60e51b815260048101849052601a60248201527f446f63746f7220697320616c726561647920617070726f7665640000000000006044820152606490fd5b346104105760208060031936011261041057600435613662600e54821115614ca2565b60105490600060015b8381111561377d575061367d9061500c565b9260009060015b8481111561369a57604051806104ac888261450f565b8060005260098083526040600020906001820154918683146136c8575b5050506136c3906148bc565b613684565b9160ff6136c394969261377494604051936136e285614235565b8154855288850152600281015460408501526003810154606085015261370a600482016142de565b608085015261371b600582016142de565b60a085015261372c600682016142de565b60c085015261373d600782016142de565b60e085015261374e600882016142de565b6101008501520154161515610120820152613769828a614e5c565b526111198189614e5c565b929087806136b7565b806000526009855282600160406000200154146137a3575b61379e906148bc565b61366b565b906137b061379e916148bc565b919050613795565b34610410576000366003190112610410576020601354604051908152f35b34610410576000366003190112610410576020600c54604051908152f35b34610410576020366003190112610410576001600160a01b036138156141b4565b16600052600a602052602060ff604060002054166040519015158152f35b34610410577f72c1daf6e13ce6ca90b14e03629096ad6d0db94b6cffdce97e62cf5008ab1fd46040613864366143c4565b61387960018060a01b03601154163314614865565b613887600c54831115614b40565b8160005260056020528060028460002001556117b083516138a7816142a2565b602381527f4d65646963696e652070726963652075706461746564207375636365737366756020820152626c6c7960e81b858201526105a46149ee565b34610410576106816138f5366143c4565b336000527f90d667bfa211b72f96ed398bbcfae5988d97e3a4c929a0f5d46888f6899d77a081602093600a855261393360ff60406000205416614c3e565b61393c336150de565b6000526006855261395760ff60056040600020015416614d4b565b613962600f546148bc565b80600f556004613971336150de565b916040519261397f8461421a565b818452888401858152604085019087825260608601928352608086019342855260005260088b5260406000209551865551600186015551600285015551600384015551910155613a01600f546139d4336150de565b6040519485944293869192608093969594919660a084019784526020840152604083015260608201520152565b0390a1613a56604051613a13816142a2565b602981527f596f752068617665207375636365737366756c6c7920707265736372696265648482015268206d65646963696e6560b81b60408201526105a4614bd8565b6000526007815260018060a01b03613aaf8160036040600020015416604051613a7e8161426c565b601e81527f446f63746f72207072657363726962656420796f75206d65646963696e65000085820152610627614bd8565b60115416907f446f63746f722070726573637269626564206d65646963696e6520737563636560405191613ae2836142a2565b6027835282015266737366756c6c7960c81b6040820152610627614bd8565b3461041057613b0f3661443e565b9033600052602090600a8252613b2c60ff60406000205416614c3e565b613b3a600e54821115614ca2565b806000526007825260026040600020018054600160401b811015610b1b57613b6791600182018155614ce7565b613c865761068193613b7891614927565b613bd6604051613b87816142a2565b603581527f596f752068617665207375636365737366756c6c79207570646174652c20706184820152747469656e74206d65646963616c20686973746f727960581b60408201526105a4614bd8565b60005260078152613c3d60018060a01b0360036040600020015416604051613bfd816142a2565b602681527f596f7572206d65646963616c20686973746f727920757064617465642062792084820152653237b1ba37b960d11b6040820152610627614bd8565b7f50617469656e74206d6564696369616c20686973746f7279206973207570646160405191613c6b836142a2565b60238352820152621d195960ea1b60408201526105a4614bd8565b634e487b7160e01b600052600060045260246000fd5b34610410576020366003190112610410576004356000526008602052604060002080546104ac6001830154926002810154906004600382015491015491604051958695869192608093969594919660a084019784526020840152604083015260608201520152565b34610410577f1e689cd9ac52751e42953a5acd30b7eac0cc9804ec5c814b2cb6bff6e8ab852b6040613d35366143c4565b613d4a60018060a01b03601154163314614865565b613d58600c54831115614b40565b8160005260056020528060038460002001556117b08351613d78816142a2565b602681527f4d65646963696e65207175616e746974792075706461746564207375636365736020820152657366756c6c7960d01b858201526105a46149ee565b3461041057602080600319360112610410576001600160a01b039081613ddc6141b4565b166000526003908181526040600020908154613df781614571565b93613e0560405195866142bd565b81855260009384528284208386019491855b848410613ebf575050505050604051928184019082855251809152604084019160408260051b86010193926000965b838810613e535786860387f35b90919293948380613eae600193603f198b820301875289518051825286848201511684830152613e91604082015160a0806040860152840190614384565b916060808301519082015260808092015191818403910152614384565b970193019701969093929193613e46565b60058660019260409a989a51613ed48161421a565b865481528c858801541683820152613eee600288016142de565b6040820152858701546060820152613f08600488016142de565b6080820152815201930193019291969496613e17565b34610410576020366003190112610410576020613f41613f3c6141b4565b615190565b6040519015158152f35b3461041057602036600319011261041057600435600052600960205260406000208054600182015491600281015490600381015460048201613f8c906142de565b613f98600584016142de565b613fa4600685016142de565b91613fb1600786016142de565b93613fbe600887016142de565b956009015460ff1696604051998a998a5260208a0152604089015260608801526101408060808901528701613ff291614384565b86810360a088015261400391614384565b85810360c087015261401491614384565b84810360e086015261402591614384565b83810361010085015261403791614384565b9015156101208301520390f35b346104105760203660031901126104105760206140676140626141b4565b6150de565b604051908152f35b3461041057602036600319011261041057602061406761408d6141b4565b614f40565b3461041057602036600319011261041057601154610681906001600160a01b03166140be338214614865565b6004356014556040516140d0816142a2565b602d81527f596f752068617665207375636365737366756c6c79207570646174656420417060208201526c706f696e746d656e742066656560981b6040820152610627614dc0565b34610410576020366003190112610410576001600160a01b03600435818116908190036104105780610681926141546011549182163314614865565b6001600160a01b0319161760115560405161416e816142a2565b602b81527f596f752068617665207375636365737366756c6c79207570646174656420616460208201526a6d696e206164647265737360a81b6040820152610627614dc0565b600435906001600160a01b038216820361041057565b602435906001600160a01b038216820361041057565b90600182811c92168015614210575b60208310146141fa57565b634e487b7160e01b600052602260045260246000fd5b91607f16916141ef565b60a081019081106001600160401b03821117610b1b57604052565b61014081019081106001600160401b03821117610b1b57604052565b60c081019081106001600160401b03821117610b1b57604052565b604081019081106001600160401b03821117610b1b57604052565b60e081019081106001600160401b03821117610b1b57604052565b606081019081106001600160401b03821117610b1b57604052565b90601f801991011681019081106001600160401b03821117610b1b57604052565b90604051918260008254926142f2846141e0565b908184526001948581169081600014614361575060011461431e575b505061431c925003836142bd565b565b9093915060005260209081600020936000915b81831061434957505061431c9350820101388061430e565b85548884018501529485019487945091830191614331565b91505061431c94506020925060ff191682840152151560051b820101388061430e565b919082519283825260005b8481106143b0575050826000602080949584010152601f8019910116010190565b60208183018101518483018201520161438f565b6040906003190112610410576004359060243590565b9291926001600160401b038211610b1b5760405191614403601f8201601f1916602001846142bd565b829481845281830111610410578281602093846000960137010152565b9080601f830112156104105781602061443b933591016143da565b90565b9060406003198301126104105760043591602435906001600160401b0382116104105761443b91600401614420565b90815181526020820151602082015260408201516040820152606082015160608201526144ff6144eb6144d96144c76144b56080870151610140806080890152870190614384565b60a087015186820360a0880152614384565b60c086015185820360c0870152614384565b60e085015184820360e0860152614384565b610100808501519084830390850152614384565b9161012080910151151591015290565b602080820190808352835180925260408301928160408460051b8301019501936000915b8483106145435750505050505090565b9091929394958480614561600193603f198682030187528a5161446d565b9801930193019194939290614533565b6001600160401b038111610b1b5760051b60200190565b9181601f84011215610410578235916001600160401b038311610410576020838186019501011161041057565b90815180825260208080930193019160005b8281106145d5575050505090565b8351855293810193928101926001016145c7565b90815180825260208092019182818360051b85019501936000915b8483106146145750505050505090565b909192939495848061462e83856001950387528a51614384565b9801930193019194939290614604565b61443b91815181526080614676614664602085015160a0602086015260a0850190614384565b604085015184820360408601526145e9565b9260018060a01b03606082015116606084015201519060808184039101526145b5565b908151815260a0806146ba602085015160c0602086015260c0850190614384565b93600180831b03604082015116604085015260608101516060850152608081015160808501520151151591015290565b602080820190808352835180925260408301928160408460051b8301019501936000915b84831061471e5750505050505090565b909192939495848061473c600193603f198682030187528a51614699565b980193019301919493929061470e565b6020908160408183019282815285518094520193019160005b828110614773575050505090565b909192938260a0826147b0600194895160808091805184526020810151602085015260408101516040850152606081015160608501520151910152565b01950193929101614765565b916147da906040929594958452606060208501526060840190614384565b6001600160a01b03909416910152565b908151815260c08061483e61480e602086015160e0602087015260e0860190614384565b60408601516040860152606086015160608601526080860151608086015260a086015185820360a0870152614384565b930151151591015290565b8054821015610b05576000526006602060002091020190600090565b1561486c57565b60405162461bcd60e51b815260206004820152602260248201527f4f6e6c792061646d696e2063616e20706572666f726d2074686973206163746960448201526137b760f11b6064820152608490fd5b6000198114611c725760010190565b8181106148d6575050565b600081556001016148cb565b9190601f81116148f157505050565b61431c926000526020600020906020601f840160051c8301931061491d575b601f0160051c01906148cb565b9091508190614910565b91909182516001600160401b038111610b1b5761494e8161494884546141e0565b846148e2565b602080601f831160011461498a57508192939460009261497f575b50508160011b916000199060031b1c1916179055565b015190503880614969565b90601f198316958460005282600020926000905b8882106149d6575050836001959697106149bd575b505050811b019055565b015160001960f88460031b161c191690553880806149b3565b8060018596829496860151815501950193019061499e565b604051906149fb8261426c565b60088252674d65646963696e6560c01b6020830152565b6001600160a01b039081166000818152600360205260408082205481519396919491929190614a408561421a565b84526020840187815285850191878352606086019342855260808701958652898152600360205287812090815491600160401b831015614b2c5760018301808255831015614b1857937f9c26059514ab57d9b1c23a991546f58e9339e76427bf2909f3eb15feb61cd5719a99989693614aec936005602085614afa9c9960049b97522091020197518855600188019151166001600160601b0360a01b8254161790555160028601614927565b516003840155519101614927565b614b0d8151928284938452830190614384565b4260208301520390a2565b634e487b7160e01b82526032600452602482fd5b634e487b7160e01b82526041600452602482fd5b15614b4757565b60405162461bcd60e51b815260206004820152601760248201527f4d65646963696e6520646f6573206e6f742065786973740000000000000000006044820152606490fd5b15614b9357565b60405162461bcd60e51b815260206004820152601a60248201527f496e636f727265637420726567697374726174696f6e206665650000000000006044820152606490fd5b60405190614be58261426c565b60068252652237b1ba37b960d11b6020830152565b15614c0157565b60405162461bcd60e51b8152602060048201526015602482015274111bd8dd1bdc88191bd95cc81b9bdd08195e1a5cdd605a1b6044820152606490fd5b15614c4557565b60405162461bcd60e51b815260206004820152602f60248201527f4f6e6c79207265676973746572656420646f63746f72732063616e207065726660448201526e37b936903a3434b99030b1ba34b7b760891b6064820152608490fd5b15614ca957565b60405162461bcd60e51b815260206004820152601660248201527514185d1a595b9d08191bd95cc81b9bdd08195e1a5cdd60521b6044820152606490fd5b8054821015610b055760005260206000200190600090565b15614d0657565b60405162461bcd60e51b815260206004820152601a60248201527f4170706f696e746d656e7420646f6573206e6f742065786973740000000000006044820152606490fd5b15614d5257565b60405162461bcd60e51b8152602060048201526016602482015275111bd8dd1bdc881a5cc81b9bdd08185c1c1c9bdd995960521b6044820152606490fd5b60405190614d9d8261426c565b600782526614185d1a595b9d60ca1b6020830152565b91908203918211611c7257565b60405190614dcd8261426c565b600582526420b236b4b760d91b6020830152565b60405190614dee8261421a565b60006080838281528260208201528260408201528260608201520152565b90614e1682614571565b614e2360405191826142bd565b8281528092614e34601f1991614571565b019060005b828110614e4557505050565b602090614e50614de1565b82828501015201614e39565b8051821015610b055760209160051b010190565b60405190614e7d8261421a565b6060608083600081528260208201528260408201526000838201520152565b908154614ea881614571565b92614eb660405194856142bd565b818452600090815260208082208186015b848410614ed5575050505050565b6001838192614ee3856142de565b815201920193019290614ec7565b9060405191828154918282526020928383019160005283600020936000905b828210614f265750505061431c925003836142bd565b855484526001958601958895509381019390910190614f10565b600e5490600060015b83811115614f8a5760405162461bcd60e51b815260206004820152601160248201527014185d1a595b9d081b9bdd08199bdd5b99607a1b6044820152606490fd5b808252600760205260408220600301546001600160a01b03848116911614614fba57614fb5906148bc565b614f49565b9250505090565b60405190614fce82614235565b600061012083828152826020820152826040820152606083818301528060808301528060a08301528060c08301528060e08301526101008201520152565b9061501682614571565b61502360405191826142bd565b8281528092615034601f1991614571565b019060005b82811061504557505050565b602090615050614fc1565b82828501015201615039565b6040519061506982614251565b600060a083828152606060208201528260408201528260608201528260808201520152565b9061509882614571565b6150a560405191826142bd565b82815280926150b6601f1991614571565b019060005b8281106150c757505050565b6020906150d261505c565b828285010152016150bb565b600d5490600060015b838111156151275760405162461bcd60e51b815260206004820152601060248201526f111bd8dd1bdc881b9bdd08199bdd5b9960821b6044820152606490fd5b808252600660205260408220600201546001600160a01b03848116911614614fba57615152906148bc565b6150e7565b6040519061516482614287565b600060c08382815260606020820152826040820152826060820152826080820152606060a08201520152565b6001600160a01b03166000908152600160205260409020546151b1906141e0565b151590565b8054821015610b055760005260206000209060011b0190600090565b926151dc83615190565b6154065781156153c15760018060a01b0380931693600091858352600191602091838352604085206001600160401b0387116153ad576152268761522083546141e0565b836148e2565b8686601f821160011461533f579161527d949391615269938991615334575b5060001960038b901b1c191689881b1790555b898752858552856040882001614927565b604051956152768761426c565b36916143da565b84528301948552815491600160401b8310156153205781830180825583101561530c57916152f591837f290decd9548b62a8d60345a988386fc84ba6bc95484008f6362f93160ef3e5649594521b9151827f290decd9548b62a8d60345a988386fc84ba6bc95484008f6362f93160ef3e56301614927565b019151166001600160601b0360a01b825416179055565b634e487b7160e01b81526032600452602490fd5b634e487b7160e01b81526041600452602490fd5b905084013538615245565b828852858820915088601f198116895b888a838310615396575050509161527d9695939161526995931061537c575b50508689811b019055615258565b85013560001960038c901b60f8161c19169055388061536e565b858a0135875590950194938401938c93500161534f565b634e487b7160e01b86526041600452602486fd5b60405162461bcd60e51b815260206004820152601860248201527f557365726e616d652063616e6e6f7420626520656d70747900000000000000006044820152606490fd5b60405162461bcd60e51b81526020600482015260136024820152725573657220616c72656164792065786973747360681b6044820152606490fd5b1561544857565b60405162461bcd60e51b8152602060048201526016602482015275155cd95c881a5cc81b9bdd081c9959da5cdd195c995960521b6044820152606490fd5b90815461549281614571565b926040936154a2855191826142bd565b828152809460208092019260005281600020906000935b8585106154c857505050505050565b60028460019284516154d98161426c565b848060a01b0387541681526154ef8588016142de565b838201528152019301940193916154b9565b1561550857565b60405162461bcd60e51b815260206004820152601760248201527f43726561746520616e206163636f756e742066697273740000000000000000006044820152606490fd5b91929061555c61097c83615190565b61556583615190565b15615628576001600160a01b038281169190841682146155d457615589848461566d565b15615596575b5050505050565b6155a86155af916155ca9636916143da565b848461570f565b60005260016020526155c460406000206142de565b9161570f565b388080808061558f565b60405162461bcd60e51b815260206004820152602660248201527f55736572732063616e6e6f7420616464207468656d73656c76657320617320666044820152657269656e647360d01b6064820152608490fd5b60405162461bcd60e51b815260206004820152601760248201527f55736572206973206e6f742072656769737465726564210000000000000000006044820152606490fd5b60018060a01b03906000928282168452600192839260209084825260029160409183838a2001548587168a5284848b20015410615709575b88975b6156b9575b50505050505050905090565b8481168852868252838389200180548a1015615703576156da8a87926151b6565b505416858716146156f7576156f08798996148bc565b98976156a8565b50505050505091505090565b506156ad565b946156a5565b919060405161571d8161426c565b6001600160a01b03918216815260208082019384529382166000908152600190945260408420600201805490600160401b8210156153ad5790615765916001820181556151b6565b94909461578c57505183546001600160a01b03191691161782555161431c91600101614927565b634e487b7160e01b81526004819052602490fd5b604051906157ad8261426c565b60078252664d65737361676560c81b6020830152565b906001600160a01b0380821690831610156158215761581b61580d91604051928391602083019586906028926001600160601b0319809260601b16835260601b1660148201520190565b03601f1981018352826142bd565b51902090565b6040516bffffffffffffffffffffffff19606092831b8116602083019081529390921b909116603482015261581b816048810161580d56fea26469706673582212208e4a13001b19f90e9b9a91406889368fba1a3ba84ae5f2d58c83c1f3747e62c064736f6c63430008130033","opcodes":"PUSH1 0x80 DUP1 PUSH1 0x40 MSTORE CALLVALUE PUSH2 0x43 JUMPI PUSH7 0x8E1BC9BF04000 PUSH1 0x12 DUP2 SWAP1 SSTORE PUSH6 0xE35FA931A000 PUSH1 0x13 SSTORE PUSH1 0x14 SSTORE PUSH1 0x11 DUP1 SLOAD PUSH1 0x1 PUSH1 0x1 PUSH1 0xA0 SHL SUB NOT AND CALLER OR SWAP1 SSTORE PUSH2 0x588F SWAP1 DUP2 PUSH3 0x49 DUP3 CODECOPY RETURN JUMPDEST PUSH1 0x0 DUP1 REVERT INVALID PUSH1 0x80 PUSH1 0x40 MSTORE PUSH1 0x4 CALLDATASIZE LT ISZERO PUSH2 0x12 JUMPI PUSH1 0x0 DUP1 REVERT JUMPDEST PUSH1 0x0 CALLDATALOAD PUSH1 0xE0 SHR DUP1 PUSH4 0x2CCE770 EQ PUSH2 0x4118 JUMPI DUP1 PUSH4 0x46A07ED EQ PUSH2 0x4092 JUMPI DUP1 PUSH4 0x4C0ADB7 EQ PUSH2 0x406F JUMPI DUP1 PUSH4 0x82ED547 EQ PUSH2 0x4044 JUMPI DUP1 PUSH4 0x12DC9013 EQ PUSH2 0x3F4B JUMPI DUP1 PUSH4 0x1B82207E EQ PUSH2 0x3F1E JUMPI DUP1 PUSH4 0x2A42E74C EQ PUSH2 0x3DB8 JUMPI DUP1 PUSH4 0x2C486BD5 EQ PUSH2 0x3D04 JUMPI DUP1 PUSH4 0x31DFC91B EQ PUSH2 0x3C9C JUMPI DUP1 PUSH4 0x354B365F EQ PUSH2 0x3B01 JUMPI DUP1 PUSH4 0x37A92DA7 EQ PUSH2 0x38E4 JUMPI DUP1 PUSH4 0x39D519A9 EQ PUSH2 0x3833 JUMPI DUP1 PUSH4 0x3F308CD2 EQ PUSH2 0x37F4 JUMPI DUP1 PUSH4 0x4DAFD490 EQ PUSH2 0x37D6 JUMPI DUP1 PUSH4 0x540A6614 EQ PUSH2 0x37B8 JUMPI DUP1 PUSH4 0x559160B8 EQ PUSH2 0x363F JUMPI DUP1 PUSH4 0x5597958E EQ PUSH2 0x3493 JUMPI DUP1 PUSH4 0x56BAA64E EQ PUSH2 0x336F JUMPI DUP1 PUSH4 0x5970CEA4 EQ PUSH2 0x2DEA JUMPI DUP1 PUSH4 0x636D3627 EQ PUSH2 0x2D99 JUMPI DUP1 PUSH4 0x6EFB1B84 EQ PUSH2 0x2D10 JUMPI DUP1 PUSH4 0x72DE4401 EQ PUSH2 0x2BA2 JUMPI DUP1 PUSH4 0x74CDD534 EQ PUSH2 0x2B29 JUMPI DUP1 PUSH4 0x770D954D EQ PUSH2 0x2A74 JUMPI DUP1 PUSH4 0x78522BC4 EQ PUSH2 0x2A56 JUMPI DUP1 PUSH4 0x7C0B501A EQ PUSH2 0x294B JUMPI DUP1 PUSH4 0x828B10DA EQ PUSH2 0x282B JUMPI DUP1 PUSH4 0x8366304B EQ PUSH2 0x2482 JUMPI DUP1 PUSH4 0x842F8DD0 EQ PUSH2 0x2338 JUMPI DUP1 PUSH4 0x84E7AA2E EQ PUSH2 0x21BD JUMPI DUP1 PUSH4 0x8C9E245D EQ PUSH2 0x2127 JUMPI DUP1 PUSH4 0x93119A83 EQ PUSH2 0x20DB JUMPI DUP1 PUSH4 0x9CDAAAD8 EQ PUSH2 0x209C JUMPI DUP1 PUSH4 0x9FEA8C26 EQ PUSH2 0x1F37 JUMPI DUP1 PUSH4 0xA0303C41 EQ PUSH2 0x1F19 JUMPI DUP1 PUSH4 0xA48F87D0 EQ PUSH2 0x1EA7 JUMPI DUP1 PUSH4 0xA72C1623 EQ PUSH2 0x1DBA JUMPI DUP1 PUSH4 0xB039ECE9 EQ PUSH2 0x1C88 JUMPI DUP1 PUSH4 0xB27B24F8 EQ PUSH2 0x1B72 JUMPI DUP1 PUSH4 0xB3E0C710 EQ PUSH2 0x1ABF JUMPI DUP1 PUSH4 0xB6558498 EQ PUSH2 0x1AA1 JUMPI DUP1 PUSH4 0xB884DB75 EQ PUSH2 0x17BD JUMPI DUP1 PUSH4 0xBBECE2BB EQ PUSH2 0x16FC JUMPI DUP1 PUSH4 0xC0A5999A EQ PUSH2 0x1606 JUMPI DUP1 PUSH4 0xC85E766D EQ PUSH2 0x1569 JUMPI DUP1 PUSH4 0xD0DA2306 EQ PUSH2 0x144A JUMPI DUP1 PUSH4 0xD174EA41 EQ PUSH2 0x13BB JUMPI DUP1 PUSH4 0xDABF826A EQ PUSH2 0x139D JUMPI DUP1 PUSH4 0xDD1BF902 EQ PUSH2 0x11E9 JUMPI DUP1 PUSH4 0xE40B850E EQ PUSH2 0x11CB JUMPI DUP1 PUSH4 0xE92F0A68 EQ PUSH2 0x112B JUMPI DUP1 PUSH4 0xEA51CD6C EQ PUSH2 0x1022 JUMPI DUP1 PUSH4 0xEBD557D9 EQ PUSH2 0xB85 JUMPI DUP1 PUSH4 0xED74E848 EQ PUSH2 0x92C JUMPI DUP1 PUSH4 0xEEBC3FB2 EQ PUSH2 0x90E JUMPI DUP1 PUSH4 0xF27E44CC EQ PUSH2 0x873 JUMPI DUP1 PUSH4 0xF28136A9 EQ PUSH2 0x7EC JUMPI DUP1 PUSH4 0xF851A440 EQ PUSH2 0x7C3 JUMPI DUP1 PUSH4 0xFB5333B7 EQ PUSH2 0x6E5 JUMPI DUP1 PUSH4 0xFD9510D5 EQ PUSH2 0x4B0 JUMPI DUP1 PUSH4 0xFE60EFA1 EQ PUSH2 0x415 JUMPI PUSH4 0xFF09A64E EQ PUSH2 0x2C6 JUMPI PUSH1 0x0 DUP1 REVERT JUMPDEST CALLVALUE PUSH2 0x410 JUMPI PUSH1 0x20 CALLDATASIZE PUSH1 0x3 NOT ADD SLT PUSH2 0x410 JUMPI PUSH2 0x2DF PUSH2 0x41B4 JUMP JUMPDEST PUSH1 0x60 PUSH1 0x40 DUP1 MLOAD PUSH2 0x2EE DUP2 PUSH2 0x42A2 JUMP JUMPDEST DUP3 DUP2 MSTORE DUP3 PUSH1 0x20 DUP3 ADD MSTORE ADD MSTORE PUSH2 0x30A PUSH2 0x305 DUP3 PUSH2 0x5190 JUMP JUMPDEST PUSH2 0x5441 JUMP JUMPDEST PUSH1 0x1 DUP1 PUSH1 0xA0 SHL SUB AND PUSH1 0x0 MSTORE PUSH1 0x1 DUP1 PUSH1 0x20 MSTORE PUSH1 0x40 PUSH1 0x0 KECCAK256 SWAP1 PUSH1 0x40 MLOAD SWAP1 PUSH2 0x32E DUP3 PUSH2 0x42A2 JUMP JUMPDEST PUSH2 0x337 DUP4 PUSH2 0x42DE JUMP JUMPDEST DUP3 MSTORE PUSH2 0x392 PUSH2 0x35A PUSH1 0x2 PUSH2 0x34C DUP5 DUP8 ADD PUSH2 0x42DE JUMP JUMPDEST SWAP6 PUSH1 0x20 DUP7 ADD SWAP7 DUP8 MSTORE ADD PUSH2 0x5486 JUMP JUMPDEST SWAP4 PUSH1 0x40 DUP5 ADD SWAP5 DUP6 MSTORE PUSH2 0x37F PUSH1 0x40 MLOAD SWAP5 PUSH1 0x20 DUP7 MSTORE MLOAD PUSH1 0x60 PUSH1 0x20 DUP8 ADD MSTORE PUSH1 0x80 DUP7 ADD SWAP1 PUSH2 0x4384 JUMP JUMPDEST SWAP1 MLOAD DUP5 DUP3 SUB PUSH1 0x1F NOT ADD PUSH1 0x40 DUP7 ADD MSTORE PUSH2 0x4384 JUMP JUMPDEST SWAP3 MLOAD SWAP3 PUSH1 0x1F NOT DUP4 DUP3 SUB ADD PUSH1 0x60 DUP5 ADD MSTORE DUP4 MLOAD DUP1 DUP3 MSTORE PUSH1 0x20 DUP3 ADD SWAP2 PUSH1 0x20 DUP1 DUP4 PUSH1 0x5 SHL DUP4 ADD ADD SWAP7 ADD SWAP3 PUSH1 0x0 SWAP2 JUMPDEST DUP4 DUP4 LT PUSH2 0x3C9 JUMPI DUP7 DUP9 SUB DUP8 RETURN JUMPDEST SWAP1 SWAP2 SWAP3 SWAP4 SWAP5 PUSH1 0x20 DUP1 PUSH2 0x3FF DUP4 SWAP11 PUSH1 0x1F NOT DUP7 DUP3 SUB ADD DUP8 MSTORE PUSH1 0x40 DUP4 DUP12 MLOAD PUSH1 0x1 DUP1 PUSH1 0xA0 SHL SUB DUP2 MLOAD AND DUP5 MSTORE ADD MLOAD SWAP2 DUP2 DUP6 DUP3 ADD MSTORE ADD SWAP1 PUSH2 0x4384 JUMP JUMPDEST SWAP10 SWAP8 ADD SWAP6 SWAP5 SWAP2 SWAP1 SWAP2 ADD SWAP3 ADD SWAP1 PUSH2 0x3BC JUMP JUMPDEST PUSH1 0x0 DUP1 REVERT JUMPDEST CALLVALUE PUSH2 0x410 JUMPI PUSH1 0x20 CALLDATASIZE PUSH1 0x3 NOT ADD SLT PUSH2 0x410 JUMPI PUSH2 0x42E PUSH2 0x505C JUMP JUMPDEST POP PUSH1 0x4 CALLDATALOAD PUSH1 0x0 MSTORE PUSH1 0x6 PUSH1 0x20 MSTORE PUSH2 0x4AC PUSH1 0x40 PUSH1 0x0 KECCAK256 PUSH1 0xFF PUSH1 0x5 PUSH1 0x40 MLOAD SWAP3 PUSH2 0x453 DUP5 PUSH2 0x4251 JUMP JUMPDEST DUP1 SLOAD DUP5 MSTORE PUSH2 0x463 PUSH1 0x1 DUP3 ADD PUSH2 0x42DE JUMP JUMPDEST PUSH1 0x20 DUP6 ADD MSTORE PUSH1 0x1 DUP1 PUSH1 0xA0 SHL SUB PUSH1 0x2 DUP3 ADD SLOAD AND PUSH1 0x40 DUP6 ADD MSTORE PUSH1 0x3 DUP2 ADD SLOAD PUSH1 0x60 DUP6 ADD MSTORE PUSH1 0x4 DUP2 ADD SLOAD PUSH1 0x80 DUP6 ADD MSTORE ADD SLOAD AND ISZERO ISZERO PUSH1 0xA0 DUP3 ADD MSTORE PUSH1 0x40 MLOAD SWAP2 DUP3 SWAP2 PUSH1 0x20 DUP4 MSTORE PUSH1 0x20 DUP4 ADD SWAP1 PUSH2 0x4699 JUMP JUMPDEST SUB SWAP1 RETURN JUMPDEST CALLVALUE PUSH2 0x410 JUMPI PUSH1 0x20 DUP1 PUSH1 0x3 NOT CALLDATASIZE ADD SLT PUSH2 0x410 JUMPI PUSH1 0x4 CALLDATALOAD SWAP1 CALLER PUSH1 0x0 MSTORE PUSH1 0xA DUP2 MSTORE PUSH2 0x4DF PUSH1 0xFF PUSH1 0x40 PUSH1 0x0 KECCAK256 SLOAD AND PUSH2 0x4C3E JUMP JUMPDEST PUSH2 0x4ED PUSH1 0x10 SLOAD DUP4 GT ISZERO PUSH2 0x4CFF JUMP JUMPDEST DUP2 PUSH1 0x0 MSTORE PUSH1 0x9 DUP2 MSTORE PUSH1 0x2 PUSH1 0x40 PUSH1 0x0 KECCAK256 ADD SLOAD PUSH2 0x507 CALLER PUSH2 0x50DE JUMP JUMPDEST SUB PUSH2 0x683 JUMPI DUP2 PUSH2 0x681 SWAP3 PUSH1 0x0 MSTORE PUSH1 0x9 DUP3 MSTORE PUSH1 0x9 PUSH1 0x40 PUSH1 0x0 KECCAK256 ADD PUSH1 0xFF NOT DUP2 SLOAD AND SWAP1 SSTORE PUSH2 0x531 CALLER PUSH2 0x50DE JUMP JUMPDEST PUSH1 0x0 MSTORE PUSH1 0x6 DUP3 MSTORE PUSH1 0x4 PUSH1 0x40 PUSH1 0x0 KECCAK256 ADD PUSH2 0x54A DUP2 SLOAD PUSH2 0x48BC JUMP JUMPDEST SWAP1 SSTORE PUSH2 0x5AB PUSH1 0x40 MLOAD PUSH2 0x55B DUP2 PUSH2 0x42A2 JUMP JUMPDEST PUSH1 0x2F DUP2 MSTORE PUSH32 0x596F752068617665207375636365737366756C6C7920636F6D706C6574656420 DUP5 DUP3 ADD MSTORE PUSH15 0x1D1A1948185C1C1BDA5B9D1B595B9D PUSH1 0x8A SHL PUSH1 0x40 DUP3 ADD MSTORE PUSH2 0x5A4 PUSH2 0x4BD8 JUMP JUMPDEST SWAP1 CALLER PUSH2 0x4A12 JUMP JUMPDEST PUSH1 0x0 MSTORE PUSH1 0x9 DUP2 MSTORE PUSH1 0x1 PUSH1 0x40 PUSH1 0x0 KECCAK256 ADD SLOAD PUSH1 0x0 MSTORE PUSH1 0x7 DUP2 MSTORE PUSH1 0x1 DUP1 PUSH1 0xA0 SHL SUB PUSH2 0x62D DUP2 PUSH1 0x3 PUSH1 0x40 PUSH1 0x0 KECCAK256 ADD SLOAD AND PUSH1 0x40 MLOAD PUSH2 0x5E3 DUP2 PUSH2 0x42A2 JUMP JUMPDEST PUSH1 0x2A DUP2 MSTORE PUSH32 0x596F7572204170706F696E746D656E74206973207375636365737366756C6C79 DUP6 DUP3 ADD MSTORE PUSH10 0x818DBDB5C1B195D1959 PUSH1 0xB2 SHL PUSH1 0x40 DUP3 ADD MSTORE PUSH2 0x627 PUSH2 0x4BD8 JUMP JUMPDEST SWAP2 PUSH2 0x4A12 JUMP JUMPDEST PUSH1 0x11 SLOAD AND SWAP1 PUSH32 0x446F63746F7220636F6D706C65746564206170706F696E746D656E7420737563 PUSH1 0x40 MLOAD SWAP2 PUSH2 0x660 DUP4 PUSH2 0x42A2 JUMP JUMPDEST PUSH1 0x29 DUP4 MSTORE DUP3 ADD MSTORE PUSH9 0x6365737366756C6C79 PUSH1 0xB8 SHL PUSH1 0x40 DUP3 ADD MSTORE PUSH2 0x627 PUSH2 0x4BD8 JUMP JUMPDEST STOP JUMPDEST PUSH1 0x84 SWAP1 PUSH1 0x40 MLOAD SWAP1 PUSH3 0x461BCD PUSH1 0xE5 SHL DUP3 MSTORE PUSH1 0x4 DUP3 ADD MSTORE PUSH1 0x35 PUSH1 0x24 DUP3 ADD MSTORE PUSH32 0x4F6E6C79207468652061737369676E656420646F63746F722063616E20636F6D PUSH1 0x44 DUP3 ADD MSTORE PUSH21 0x1C1B195D19481D1A1948185C1C1BDA5B9D1B595B9D PUSH1 0x5A SHL PUSH1 0x64 DUP3 ADD MSTORE REVERT JUMPDEST CALLVALUE PUSH2 0x410 JUMPI PUSH32 0x573CCA7A8CD583DA809CDB83B4EA8DEC06C87DA579A25478CC69566672E2B589 PUSH2 0x714 CALLDATASIZE PUSH2 0x443E JUMP JUMPDEST SWAP1 PUSH2 0x72A PUSH1 0x1 DUP1 PUSH1 0xA0 SHL SUB PUSH1 0x11 SLOAD AND CALLER EQ PUSH2 0x4865 JUMP JUMPDEST PUSH2 0x738 PUSH1 0xC SLOAD DUP3 GT ISZERO PUSH2 0x4B40 JUMP JUMPDEST DUP1 PUSH1 0x0 MSTORE PUSH1 0x5 PUSH1 0x20 MSTORE PUSH2 0x752 DUP3 PUSH1 0x5 PUSH1 0x40 PUSH1 0x0 KECCAK256 ADD PUSH2 0x4927 JUMP JUMPDEST PUSH2 0x7A2 PUSH1 0x40 MLOAD PUSH2 0x761 DUP2 PUSH2 0x42A2 JUMP JUMPDEST PUSH1 0x26 DUP2 MSTORE PUSH32 0x4D65646963696E65206C6F636174696F6E207570646174656420737563636573 PUSH1 0x20 DUP3 ADD MSTORE PUSH6 0x7366756C6C79 PUSH1 0xD0 SHL PUSH1 0x40 DUP3 ADD MSTORE PUSH2 0x5A4 PUSH2 0x49EE JUMP JUMPDEST PUSH2 0x7BE PUSH1 0x40 MLOAD SWAP3 DUP4 SWAP3 DUP4 MSTORE PUSH1 0x40 PUSH1 0x20 DUP5 ADD MSTORE PUSH1 0x40 DUP4 ADD SWAP1 PUSH2 0x4384 JUMP JUMPDEST SUB SWAP1 LOG1 STOP JUMPDEST CALLVALUE PUSH2 0x410 JUMPI PUSH1 0x0 CALLDATASIZE PUSH1 0x3 NOT ADD SLT PUSH2 0x410 JUMPI PUSH1 0x11 SLOAD PUSH1 0x40 MLOAD PUSH1 0x1 PUSH1 0x1 PUSH1 0xA0 SHL SUB SWAP1 SWAP2 AND DUP2 MSTORE PUSH1 0x20 SWAP1 RETURN JUMPDEST CALLVALUE PUSH2 0x410 JUMPI PUSH1 0x20 CALLDATASIZE PUSH1 0x3 NOT ADD SLT PUSH2 0x410 JUMPI PUSH1 0x11 SLOAD PUSH2 0x681 SWAP1 PUSH1 0x1 PUSH1 0x1 PUSH1 0xA0 SHL SUB AND PUSH2 0x818 CALLER DUP3 EQ PUSH2 0x4865 JUMP JUMPDEST PUSH1 0x4 CALLDATALOAD PUSH1 0x12 SSTORE PUSH1 0x40 MLOAD PUSH2 0x82A DUP2 PUSH2 0x42A2 JUMP JUMPDEST PUSH1 0x2E DUP2 MSTORE PUSH32 0x596F752068617665207375636365737366756C6C792075706461746564205265 PUSH1 0x20 DUP3 ADD MSTORE PUSH14 0x67697374726174696F6E20666565 PUSH1 0x90 SHL PUSH1 0x40 DUP3 ADD MSTORE PUSH2 0x627 PUSH2 0x4DC0 JUMP JUMPDEST CALLVALUE PUSH2 0x410 JUMPI PUSH1 0x20 CALLDATASIZE PUSH1 0x3 NOT ADD SLT PUSH2 0x410 JUMPI PUSH2 0x88C PUSH2 0x4DE1 JUMP JUMPDEST POP PUSH1 0x4 CALLDATALOAD PUSH1 0x0 MSTORE PUSH1 0x8 PUSH1 0x20 MSTORE PUSH1 0xA0 PUSH1 0x40 PUSH1 0x0 KECCAK256 PUSH1 0x4 PUSH1 0x40 MLOAD SWAP2 PUSH2 0x8AE DUP4 PUSH2 0x421A JUMP JUMPDEST DUP1 SLOAD DUP4 MSTORE PUSH1 0x1 DUP2 ADD SLOAD PUSH1 0x20 DUP5 ADD MSTORE PUSH1 0x2 DUP2 ADD SLOAD PUSH1 0x40 DUP5 ADD MSTORE PUSH1 0x3 DUP2 ADD SLOAD PUSH1 0x60 DUP5 ADD MSTORE ADD SLOAD PUSH1 0x80 DUP3 ADD MSTORE PUSH2 0x90C PUSH1 0x40 MLOAD DUP1 SWAP3 PUSH1 0x80 DUP1 SWAP2 DUP1 MLOAD DUP5 MSTORE PUSH1 0x20 DUP2 ADD MLOAD PUSH1 0x20 DUP6 ADD MSTORE PUSH1 0x40 DUP2 ADD MLOAD PUSH1 0x40 DUP6 ADD MSTORE PUSH1 0x60 DUP2 ADD MLOAD PUSH1 0x60 DUP6 ADD MSTORE ADD MLOAD SWAP2 ADD MSTORE JUMP JUMPDEST RETURN JUMPDEST CALLVALUE PUSH2 0x410 JUMPI PUSH1 0x0 CALLDATASIZE PUSH1 0x3 NOT ADD SLT PUSH2 0x410 JUMPI PUSH1 0x20 PUSH1 0x10 SLOAD PUSH1 0x40 MLOAD SWAP1 DUP2 MSTORE RETURN JUMPDEST CALLVALUE PUSH2 0x410 JUMPI PUSH1 0x60 CALLDATASIZE PUSH1 0x3 NOT ADD SLT PUSH2 0x410 JUMPI PUSH2 0x945 PUSH2 0x41B4 JUMP JUMPDEST PUSH2 0x94D PUSH2 0x41CA JUMP JUMPDEST SWAP1 PUSH1 0x44 CALLDATALOAD PUSH1 0x1 PUSH1 0x1 PUSH1 0x40 SHL SUB DUP2 GT PUSH2 0x410 JUMPI PUSH2 0x96D SWAP1 CALLDATASIZE SWAP1 PUSH1 0x4 ADD PUSH2 0x4588 JUMP JUMPDEST SWAP3 SWAP1 SWAP2 PUSH2 0x981 PUSH2 0x97C DUP4 PUSH2 0x5190 JUMP JUMPDEST PUSH2 0x5501 JUMP JUMPDEST PUSH2 0x98D PUSH2 0x305 DUP3 PUSH2 0x5190 JUMP JUMPDEST PUSH2 0x997 DUP2 DUP4 PUSH2 0x566D JUMP JUMPDEST ISZERO PUSH2 0xB31 JUMPI PUSH2 0x9A6 DUP2 DUP4 PUSH2 0x57C3 JUMP JUMPDEST SWAP1 PUSH1 0x40 MLOAD SWAP5 PUSH2 0x9B4 DUP7 PUSH2 0x42A2 JUMP JUMPDEST PUSH1 0x1 DUP1 PUSH1 0xA0 SHL SUB SWAP4 DUP5 DUP2 AND DUP8 MSTORE PUSH2 0x9D5 PUSH1 0x20 SWAP7 DUP8 DUP10 ADD SWAP4 TIMESTAMP DUP6 MSTORE CALLDATASIZE SWAP2 PUSH2 0x43DA JUMP JUMPDEST SWAP4 PUSH1 0x40 DUP9 ADD SWAP5 DUP6 MSTORE PUSH1 0x0 MSTORE PUSH1 0x2 DUP7 MSTORE PUSH1 0x40 PUSH1 0x0 KECCAK256 DUP1 SLOAD SWAP8 PUSH1 0x1 PUSH1 0x40 SHL DUP10 LT ISZERO PUSH2 0xB1B JUMPI PUSH1 0x1 DUP10 ADD DUP1 DUP4 SSTORE DUP10 LT ISZERO PUSH2 0xB05 JUMPI PUSH1 0x2 PUSH2 0xAC3 SWAP7 PUSH2 0xA8F SWAP6 DUP10 PUSH2 0x681 SWAP13 PUSH2 0xA47 SWAP7 PUSH1 0x0 MSTORE PUSH1 0x3 DUP14 PUSH1 0x0 KECCAK256 SWAP2 MUL ADD SWAP5 MLOAD AND PUSH1 0x1 PUSH1 0x1 PUSH1 0x60 SHL SUB PUSH1 0xA0 SHL DUP6 SLOAD AND OR DUP5 SSTORE MLOAD PUSH1 0x1 DUP5 ADD SSTORE MLOAD SWAP2 ADD PUSH2 0x4927 JUMP JUMPDEST PUSH1 0x40 MLOAD PUSH2 0xA53 DUP2 PUSH2 0x42A2 JUMP JUMPDEST PUSH1 0x22 DUP2 MSTORE PUSH32 0x596F752068617665207375636365737366756C6C792073656E64206D65737361 DUP8 DUP3 ADD MSTORE PUSH2 0x6765 PUSH1 0xF0 SHL PUSH1 0x40 DUP3 ADD MSTORE PUSH2 0x627 PUSH2 0x57A0 JUMP JUMPDEST PUSH1 0x40 MLOAD PUSH2 0xA9B DUP2 PUSH2 0x426C JUMP JUMPDEST PUSH1 0x14 DUP2 MSTORE PUSH20 0x596F752068617665206E6577206D657373616765 PUSH1 0x60 SHL DUP6 DUP3 ADD MSTORE PUSH2 0x627 PUSH2 0x57A0 JUMP JUMPDEST PUSH1 0x11 SLOAD AND SWAP1 PUSH32 0x6D6573736167652073656E64207375636365737366756C6C7900000000000000 PUSH1 0x40 MLOAD SWAP2 PUSH2 0xAF6 DUP4 PUSH2 0x426C JUMP JUMPDEST PUSH1 0x19 DUP4 MSTORE DUP3 ADD MSTORE PUSH2 0x627 PUSH2 0x57A0 JUMP JUMPDEST PUSH4 0x4E487B71 PUSH1 0xE0 SHL PUSH1 0x0 MSTORE PUSH1 0x32 PUSH1 0x4 MSTORE PUSH1 0x24 PUSH1 0x0 REVERT JUMPDEST PUSH4 0x4E487B71 PUSH1 0xE0 SHL PUSH1 0x0 MSTORE PUSH1 0x41 PUSH1 0x4 MSTORE PUSH1 0x24 PUSH1 0x0 REVERT JUMPDEST PUSH1 0x40 MLOAD PUSH3 0x461BCD PUSH1 0xE5 SHL DUP2 MSTORE PUSH1 0x20 PUSH1 0x4 DUP3 ADD MSTORE PUSH1 0x26 PUSH1 0x24 DUP3 ADD MSTORE PUSH32 0x596F7520617265206E6F7420667269656E642077697468207468652067697665 PUSH1 0x44 DUP3 ADD MSTORE PUSH6 0x37103AB9B2B9 PUSH1 0xD1 SHL PUSH1 0x64 DUP3 ADD MSTORE PUSH1 0x84 SWAP1 REVERT JUMPDEST PUSH2 0x120 CALLDATASIZE PUSH1 0x3 NOT ADD SLT PUSH2 0x410 JUMPI PUSH1 0x1 PUSH1 0x1 PUSH1 0x40 SHL SUB PUSH1 0x44 CALLDATALOAD DUP2 DUP2 GT PUSH2 0x410 JUMPI PUSH2 0xBB2 SWAP1 CALLDATASIZE SWAP1 PUSH1 0x4 ADD PUSH2 0x4420 JUMP JUMPDEST PUSH1 0x64 CALLDATALOAD DUP3 DUP2 GT PUSH2 0x410 JUMPI PUSH2 0xBCA SWAP1 CALLDATASIZE SWAP1 PUSH1 0x4 ADD PUSH2 0x4420 JUMP JUMPDEST SWAP1 PUSH1 0x84 CALLDATALOAD DUP4 DUP2 GT PUSH2 0x410 JUMPI PUSH2 0xBE3 SWAP1 CALLDATASIZE SWAP1 PUSH1 0x4 ADD PUSH2 0x4420 JUMP JUMPDEST SWAP1 PUSH1 0xA4 CALLDATALOAD DUP5 DUP2 GT PUSH2 0x410 JUMPI PUSH2 0xBFC SWAP1 CALLDATASIZE SWAP1 PUSH1 0x4 ADD PUSH2 0x4420 JUMP JUMPDEST SWAP3 PUSH1 0xC4 CALLDATALOAD DUP6 DUP2 GT PUSH2 0x410 JUMPI PUSH2 0xC15 SWAP1 CALLDATASIZE SWAP1 PUSH1 0x4 ADD PUSH2 0x4420 JUMP JUMPDEST SWAP5 PUSH1 0xE4 CALLDATALOAD PUSH1 0x1 PUSH1 0x1 PUSH1 0xA0 SHL SUB DUP2 AND SWAP1 SUB PUSH2 0x410 JUMPI PUSH2 0x104 CALLDATALOAD SWAP1 DUP2 GT PUSH2 0x410 JUMPI PUSH2 0xC42 SWAP1 CALLDATASIZE SWAP1 PUSH1 0x4 ADD PUSH2 0x4588 JUMP JUMPDEST SWAP6 SWAP1 SWAP5 PUSH2 0xC55 PUSH1 0xE SLOAD PUSH1 0x4 CALLDATALOAD GT ISZERO PUSH2 0x4CA2 JUMP JUMPDEST PUSH2 0xC65 PUSH1 0xD SLOAD PUSH1 0x24 CALLDATALOAD GT ISZERO PUSH2 0x4BFA JUMP JUMPDEST PUSH1 0x24 CALLDATALOAD PUSH1 0x0 MSTORE PUSH1 0x6 PUSH1 0x20 MSTORE PUSH2 0xC84 PUSH1 0xFF PUSH1 0x5 PUSH1 0x40 PUSH1 0x0 KECCAK256 ADD SLOAD AND PUSH2 0x4D4B JUMP JUMPDEST PUSH1 0x4 CALLDATALOAD PUSH1 0x0 SWAP1 DUP2 MSTORE PUSH1 0x7 PUSH1 0x20 MSTORE PUSH1 0x40 SWAP1 KECCAK256 PUSH1 0x3 ADD SLOAD PUSH1 0x1 PUSH1 0x1 PUSH1 0xA0 SHL SUB AND CALLER SUB PUSH2 0xFC9 JUMPI PUSH1 0x14 SLOAD CALLVALUE SUB PUSH2 0xF84 JUMPI PUSH2 0xCC0 PUSH1 0xA CALLVALUE SWAP1 DUP2 DIV SWAP1 PUSH2 0x4DB3 JUMP JUMPDEST SWAP5 PUSH1 0x10 SLOAD PUSH2 0xCCD SWAP1 PUSH2 0x48BC JUMP JUMPDEST SWAP4 DUP5 PUSH1 0x10 SSTORE PUSH1 0x40 MLOAD SWAP6 PUSH2 0xCDF DUP8 PUSH2 0x4235 JUMP JUMPDEST DUP6 DUP8 MSTORE PUSH1 0x20 DUP8 ADD PUSH1 0x4 CALLDATALOAD DUP2 MSTORE PUSH1 0x40 DUP9 ADD PUSH1 0x24 CALLDATALOAD DUP2 MSTORE PUSH1 0x60 DUP10 ADD SWAP2 TIMESTAMP DUP4 MSTORE PUSH1 0x80 DUP11 ADD SWAP4 DUP5 MSTORE PUSH1 0xA0 DUP11 ADD SWAP5 DUP6 MSTORE PUSH1 0xC0 DUP11 ADD SWAP6 DUP7 MSTORE PUSH1 0xE0 DUP11 ADD SWAP7 DUP8 MSTORE PUSH2 0x100 DUP11 ADD SWAP8 DUP9 MSTORE PUSH2 0x120 DUP11 ADD SWAP9 PUSH1 0x1 DUP11 MSTORE PUSH1 0x0 MSTORE PUSH1 0x9 PUSH1 0x20 MSTORE PUSH1 0x40 PUSH1 0x0 KECCAK256 SWAP10 MLOAD DUP11 SSTORE MLOAD PUSH1 0x1 DUP11 ADD SSTORE MLOAD PUSH1 0x2 DUP10 ADD SSTORE MLOAD PUSH1 0x3 DUP9 ADD SSTORE MLOAD PUSH1 0x4 DUP8 ADD SWAP1 PUSH2 0xD5C SWAP2 PUSH2 0x4927 JUMP JUMPDEST MLOAD PUSH2 0xD6A SWAP1 PUSH1 0x5 DUP8 ADD PUSH2 0x4927 JUMP JUMPDEST MLOAD PUSH2 0xD78 SWAP1 PUSH1 0x6 DUP7 ADD PUSH2 0x4927 JUMP JUMPDEST MLOAD PUSH2 0xD86 SWAP1 PUSH1 0x7 DUP6 ADD PUSH2 0x4927 JUMP JUMPDEST MLOAD PUSH2 0xD94 SWAP1 PUSH1 0x8 DUP5 ADD PUSH2 0x4927 JUMP JUMPDEST MLOAD ISZERO ISZERO SWAP1 PUSH1 0x9 ADD SWAP1 PUSH2 0xDB1 SWAP2 SWAP1 PUSH1 0xFF DUP1 NOT DUP4 SLOAD AND SWAP2 ISZERO ISZERO AND OR SWAP1 SSTORE JUMP JUMPDEST PUSH1 0x24 CALLDATALOAD PUSH1 0x0 MSTORE PUSH1 0x6 PUSH1 0x20 MSTORE PUSH1 0x40 PUSH1 0x0 KECCAK256 PUSH1 0x3 ADD DUP1 SLOAD PUSH2 0xDCF SWAP1 PUSH2 0x48BC JUMP JUMPDEST SWAP1 SSTORE PUSH1 0x11 SLOAD PUSH1 0x0 SWAP1 DUP2 SWAP1 DUP2 SWAP1 DUP2 SWAP1 DUP2 SWAP1 PUSH1 0x1 PUSH1 0x1 PUSH1 0xA0 SHL SUB AND PUSH1 0xA CALLVALUE DIV ISZERO PUSH2 0xF7A JUMPI JUMPDEST PUSH1 0xA CALLVALUE DIV SWAP2 CALL ISZERO PUSH2 0xF65 JUMPI PUSH1 0x0 DUP1 DUP1 DUP1 SWAP4 PUSH1 0x24 CALLDATALOAD DUP3 MSTORE PUSH1 0x6 PUSH1 0x20 MSTORE PUSH1 0x1 DUP1 PUSH1 0xA0 SHL SUB PUSH1 0x2 PUSH1 0x40 DUP5 KECCAK256 ADD SLOAD AND DUP3 DUP3 ISZERO PUSH2 0xF71 JUMPI JUMPDEST CALL ISZERO PUSH2 0xF65 JUMPI PUSH2 0xE39 SWAP2 CALLER SWAP2 PUSH1 0xE4 CALLDATALOAD PUSH2 0x554D JUMP JUMPDEST PUSH2 0xE83 PUSH1 0x40 MLOAD PUSH2 0xE48 DUP2 PUSH2 0x426C JUMP JUMPDEST PUSH1 0x1A DUP2 MSTORE PUSH32 0x596F7520686176652061206E6577206170706F696E746D656E74000000000000 PUSH1 0x20 DUP3 ADD MSTORE PUSH2 0xE7A PUSH2 0x4D90 JUMP JUMPDEST SWAP1 PUSH1 0xE4 CALLDATALOAD PUSH2 0x4A12 JUMP JUMPDEST PUSH2 0xED8 PUSH1 0x40 MLOAD PUSH2 0xE92 DUP2 PUSH2 0x42A2 JUMP JUMPDEST PUSH1 0x2B DUP2 MSTORE PUSH32 0x596F752068617665207375636365737366756C6C7920626F6F6B656420616E20 PUSH1 0x20 DUP3 ADD MSTORE PUSH11 0x185C1C1BDA5B9D1B595B9D PUSH1 0xAA SHL PUSH1 0x40 DUP3 ADD MSTORE PUSH2 0x5A4 PUSH2 0x4D90 JUMP JUMPDEST PUSH1 0x11 SLOAD PUSH1 0x40 MLOAD PUSH2 0xF20 SWAP2 PUSH1 0x1 PUSH1 0x1 PUSH1 0xA0 SHL SUB AND SWAP1 PUSH2 0xEF5 DUP2 PUSH2 0x426C JUMP JUMPDEST PUSH1 0x16 DUP2 MSTORE PUSH22 0x13995DC8185C1C1BDA5B9D1B595B9D08189BDBDAD959 PUSH1 0x52 SHL PUSH1 0x20 DUP3 ADD MSTORE PUSH2 0x627 PUSH2 0x4D90 JUMP JUMPDEST PUSH32 0x3AC6F9DF28EF09D1B346BE1F7D771F61872F07DE8DA7B88F490FE4F61B2B3E2C PUSH1 0x80 PUSH1 0x10 SLOAD PUSH1 0x40 MLOAD SWAP1 DUP2 MSTORE PUSH1 0x4 CALLDATALOAD PUSH1 0x20 DUP3 ADD MSTORE PUSH1 0x24 CALLDATALOAD PUSH1 0x40 DUP3 ADD MSTORE TIMESTAMP PUSH1 0x60 DUP3 ADD MSTORE LOG1 STOP JUMPDEST PUSH1 0x40 MLOAD RETURNDATASIZE PUSH1 0x0 DUP3 RETURNDATACOPY RETURNDATASIZE SWAP1 REVERT JUMPDEST POP PUSH2 0x8FC PUSH2 0xE25 JUMP JUMPDEST PUSH2 0x8FC SWAP2 POP PUSH2 0xDF2 JUMP JUMPDEST PUSH1 0x40 MLOAD PUSH3 0x461BCD PUSH1 0xE5 SHL DUP2 MSTORE PUSH1 0x20 PUSH1 0x4 DUP3 ADD MSTORE PUSH1 0x19 PUSH1 0x24 DUP3 ADD MSTORE PUSH32 0x496E636F7272656374206170706F696E746D656E742066656500000000000000 PUSH1 0x44 DUP3 ADD MSTORE PUSH1 0x64 SWAP1 REVERT JUMPDEST PUSH1 0x40 MLOAD PUSH3 0x461BCD PUSH1 0xE5 SHL DUP2 MSTORE PUSH1 0x20 PUSH1 0x4 DUP3 ADD MSTORE PUSH1 0x2B PUSH1 0x24 DUP3 ADD MSTORE PUSH32 0x4F6E6C79207468652070617469656E742063616E20626F6F6B20746865697220 PUSH1 0x44 DUP3 ADD MSTORE PUSH11 0x185C1C1BDA5B9D1B595B9D PUSH1 0xAA SHL PUSH1 0x64 DUP3 ADD MSTORE PUSH1 0x84 SWAP1 REVERT JUMPDEST CALLVALUE PUSH2 0x410 JUMPI PUSH1 0x0 CALLDATASIZE PUSH1 0x3 NOT ADD SLT PUSH2 0x410 JUMPI PUSH1 0x10 SLOAD PUSH2 0x103F DUP2 PUSH2 0x500C JUMP JUMPDEST SWAP1 PUSH1 0x1 DUP1 PUSH1 0x0 JUMPDEST DUP4 DUP4 GT ISZERO PUSH2 0x105C JUMPI PUSH1 0x40 MLOAD DUP1 PUSH2 0x4AC DUP8 DUP3 PUSH2 0x450F JUMP JUMPDEST PUSH2 0x111F PUSH2 0x1125 SWAP2 DUP5 PUSH1 0x0 MSTORE PUSH1 0x9 PUSH1 0xFF PUSH1 0x20 SWAP2 DUP1 DUP4 MSTORE PUSH1 0x40 PUSH1 0x0 KECCAK256 PUSH1 0x40 MLOAD SWAP4 PUSH2 0x1083 DUP6 PUSH2 0x4235 JUMP JUMPDEST DUP2 SLOAD DUP6 MSTORE DUP9 DUP3 ADD SLOAD SWAP1 DUP6 ADD MSTORE PUSH1 0x2 DUP2 ADD SLOAD PUSH1 0x40 DUP6 ADD MSTORE PUSH1 0x3 DUP2 ADD SLOAD PUSH1 0x60 DUP6 ADD MSTORE PUSH2 0x10AF PUSH1 0x4 DUP3 ADD PUSH2 0x42DE JUMP JUMPDEST PUSH1 0x80 DUP6 ADD MSTORE PUSH2 0x10C0 PUSH1 0x5 DUP3 ADD PUSH2 0x42DE JUMP JUMPDEST PUSH1 0xA0 DUP6 ADD MSTORE PUSH2 0x10D1 PUSH1 0x6 DUP3 ADD PUSH2 0x42DE JUMP JUMPDEST PUSH1 0xC0 DUP6 ADD MSTORE PUSH2 0x10E2 PUSH1 0x7 DUP3 ADD PUSH2 0x42DE JUMP JUMPDEST PUSH1 0xE0 DUP6 ADD MSTORE PUSH2 0x10F3 PUSH1 0x8 DUP3 ADD PUSH2 0x42DE JUMP JUMPDEST PUSH2 0x100 DUP6 ADD MSTORE ADD SLOAD AND ISZERO ISZERO PUSH2 0x120 DUP3 ADD MSTORE PUSH2 0x110E DUP3 DUP10 PUSH2 0x4E5C JUMP JUMPDEST MSTORE PUSH2 0x1119 DUP2 DUP9 PUSH2 0x4E5C JUMP JUMPDEST POP PUSH2 0x48BC JUMP JUMPDEST SWAP3 PUSH2 0x48BC JUMP JUMPDEST SWAP2 PUSH2 0x1046 JUMP JUMPDEST CALLVALUE PUSH2 0x410 JUMPI PUSH1 0x20 CALLDATASIZE PUSH1 0x3 NOT ADD SLT PUSH2 0x410 JUMPI PUSH2 0x1144 PUSH2 0x5157 JUMP JUMPDEST POP PUSH1 0x4 CALLDATALOAD PUSH1 0x0 MSTORE PUSH1 0x5 PUSH1 0x20 MSTORE PUSH2 0x4AC PUSH1 0x40 PUSH1 0x0 KECCAK256 PUSH1 0xFF PUSH1 0x6 PUSH1 0x40 MLOAD SWAP3 PUSH2 0x1169 DUP5 PUSH2 0x4287 JUMP JUMPDEST DUP1 SLOAD DUP5 MSTORE PUSH2 0x1179 PUSH1 0x1 DUP3 ADD PUSH2 0x42DE JUMP JUMPDEST PUSH1 0x20 DUP6 ADD MSTORE PUSH1 0x2 DUP2 ADD SLOAD PUSH1 0x40 DUP6 ADD MSTORE PUSH1 0x3 DUP2 ADD SLOAD PUSH1 0x60 DUP6 ADD MSTORE PUSH1 0x4 DUP2 ADD SLOAD PUSH1 0x80 DUP6 ADD MSTORE PUSH2 0x11A8 PUSH1 0x5 DUP3 ADD PUSH2 0x42DE JUMP JUMPDEST PUSH1 0xA0 DUP6 ADD MSTORE ADD SLOAD AND ISZERO ISZERO PUSH1 0xC0 DUP3 ADD MSTORE PUSH1 0x40 MLOAD SWAP2 DUP3 SWAP2 PUSH1 0x20 DUP4 MSTORE PUSH1 0x20 DUP4 ADD SWAP1 PUSH2 0x47EA JUMP JUMPDEST CALLVALUE PUSH2 0x410 JUMPI PUSH1 0x0 CALLDATASIZE PUSH1 0x3 NOT ADD SLT PUSH2 0x410 JUMPI PUSH1 0x20 PUSH1 0x12 SLOAD PUSH1 0x40 MLOAD SWAP1 DUP2 MSTORE RETURN JUMPDEST CALLVALUE PUSH2 0x410 JUMPI PUSH1 0xA0 CALLDATASIZE PUSH1 0x3 NOT ADD SLT PUSH2 0x410 JUMPI PUSH1 0x1 PUSH1 0x1 PUSH1 0x40 SHL SUB PUSH1 0x4 CALLDATALOAD DUP2 DUP2 GT PUSH2 0x410 JUMPI PUSH2 0x121A SWAP1 CALLDATASIZE SWAP1 PUSH1 0x4 ADD PUSH2 0x4420 JUMP JUMPDEST PUSH1 0x84 CALLDATALOAD SWAP2 DUP3 GT PUSH2 0x410 JUMPI PUSH2 0x1253 PUSH32 0x4BD6730197EEAA6A5861EE6770B4A7EA4945E177C1B8F8E196812DA34B52B620 SWAP3 CALLDATASIZE SWAP1 PUSH1 0x4 ADD PUSH2 0x4420 JUMP JUMPDEST PUSH2 0x1268 PUSH1 0x1 DUP1 PUSH1 0xA0 SHL SUB PUSH1 0x11 SLOAD AND CALLER EQ PUSH2 0x4865 JUMP JUMPDEST PUSH2 0x1313 PUSH2 0x1276 PUSH1 0xC SLOAD PUSH2 0x48BC JUMP JUMPDEST DUP1 PUSH1 0xC SSTORE PUSH1 0x6 PUSH1 0x40 MLOAD SWAP2 PUSH2 0x1289 DUP4 PUSH2 0x4287 JUMP JUMPDEST DUP1 DUP4 MSTORE PUSH2 0x12FD PUSH1 0x20 DUP5 ADD DUP8 DUP2 MSTORE PUSH1 0x40 DUP6 ADD PUSH1 0x24 CALLDATALOAD DUP2 MSTORE PUSH1 0x60 DUP7 ADD PUSH1 0x44 CALLDATALOAD DUP2 MSTORE PUSH1 0x80 DUP8 ADD SWAP2 PUSH1 0x64 CALLDATALOAD DUP4 MSTORE PUSH2 0x12E1 PUSH1 0xA0 DUP10 ADD SWAP5 DUP12 DUP7 MSTORE PUSH1 0xC0 DUP11 ADD SWAP8 PUSH1 0x1 DUP10 MSTORE PUSH1 0x0 MSTORE PUSH1 0x5 PUSH1 0x20 MSTORE PUSH1 0x40 PUSH1 0x0 KECCAK256 SWAP10 MLOAD DUP11 SSTORE MLOAD PUSH1 0x1 DUP11 ADD PUSH2 0x4927 JUMP JUMPDEST MLOAD PUSH1 0x2 DUP9 ADD SSTORE MLOAD PUSH1 0x3 DUP8 ADD SSTORE MLOAD PUSH1 0x4 DUP7 ADD SSTORE MLOAD PUSH1 0x5 DUP6 ADD PUSH2 0x4927 JUMP JUMPDEST MLOAD ISZERO ISZERO SWAP2 ADD SWAP1 PUSH1 0xFF DUP1 NOT DUP4 SLOAD AND SWAP2 ISZERO ISZERO AND OR SWAP1 SSTORE JUMP JUMPDEST PUSH2 0x136C PUSH1 0x40 MLOAD PUSH2 0x1322 DUP2 PUSH2 0x42A2 JUMP JUMPDEST PUSH1 0x2F DUP2 MSTORE PUSH32 0x4E6577204D65646963696E6520616464656420746F206D61726B6574706C6163 PUSH1 0x20 DUP3 ADD MSTORE PUSH15 0x65207375636365737366756C6C7921 PUSH1 0x88 SHL PUSH1 0x40 DUP3 ADD MSTORE PUSH2 0x5A4 PUSH2 0x49EE JUMP JUMPDEST PUSH2 0x7BE PUSH1 0xC SLOAD SWAP2 PUSH2 0x138F PUSH1 0x40 MLOAD SWAP5 DUP6 SWAP5 DUP6 MSTORE PUSH1 0x60 PUSH1 0x20 DUP7 ADD MSTORE PUSH1 0x60 DUP6 ADD SWAP1 PUSH2 0x4384 JUMP JUMPDEST SWAP1 DUP4 DUP3 SUB PUSH1 0x40 DUP6 ADD MSTORE PUSH2 0x4384 JUMP JUMPDEST CALLVALUE PUSH2 0x410 JUMPI PUSH1 0x0 CALLDATASIZE PUSH1 0x3 NOT ADD SLT PUSH2 0x410 JUMPI PUSH1 0x20 PUSH1 0x14 SLOAD PUSH1 0x40 MLOAD SWAP1 DUP2 MSTORE RETURN JUMPDEST CALLVALUE PUSH2 0x410 JUMPI PUSH1 0x20 CALLDATASIZE PUSH1 0x3 NOT ADD SLT PUSH2 0x410 JUMPI PUSH1 0x11 SLOAD PUSH2 0x681 SWAP1 PUSH1 0x1 PUSH1 0x1 PUSH1 0xA0 SHL SUB AND PUSH2 0x13E7 CALLER DUP3 EQ PUSH2 0x4865 JUMP JUMPDEST PUSH1 0x4 CALLDATALOAD PUSH1 0x13 SSTORE PUSH1 0x40 MLOAD PUSH2 0x13F9 DUP2 PUSH2 0x42A2 JUMP JUMPDEST PUSH1 0x36 DUP2 MSTORE PUSH32 0x596F752068617665207375636365737366756C6C792075706461746564205061 PUSH1 0x20 DUP3 ADD MSTORE PUSH22 0x7469656E7420526567697374726174696F6E20666565 PUSH1 0x50 SHL PUSH1 0x40 DUP3 ADD MSTORE PUSH2 0x627 PUSH2 0x4DC0 JUMP JUMPDEST CALLVALUE PUSH2 0x410 JUMPI PUSH1 0x0 CALLDATASIZE PUSH1 0x3 NOT ADD SLT PUSH2 0x410 JUMPI PUSH1 0xD SLOAD PUSH1 0x1 SWAP1 PUSH1 0x0 DUP3 JUMPDEST DUP3 DUP2 GT ISZERO PUSH2 0x152C JUMPI POP PUSH2 0x1477 SWAP1 PUSH2 0x508E JUMP JUMPDEST SWAP2 PUSH1 0x0 DUP2 JUMPDEST DUP4 DUP2 GT ISZERO PUSH2 0x1492 JUMPI PUSH1 0x40 MLOAD DUP1 PUSH2 0x4AC DUP8 DUP3 PUSH2 0x46EA JUMP JUMPDEST DUP1 PUSH1 0x0 MSTORE PUSH1 0x20 PUSH1 0x6 DUP2 MSTORE PUSH1 0x40 PUSH1 0x0 KECCAK256 PUSH1 0xFF PUSH1 0x5 DUP3 ADD SLOAD AND SWAP1 DUP2 PUSH2 0x14C1 JUMPI JUMPDEST POP POP POP PUSH2 0x14BC SWAP1 PUSH2 0x48BC JUMP JUMPDEST PUSH2 0x147C JUMP JUMPDEST SWAP2 PUSH2 0x14BC SWAP4 SWAP5 SWAP2 PUSH1 0x4 PUSH2 0x1523 SWAP5 PUSH1 0x40 MLOAD SWAP4 PUSH2 0x14DB DUP6 PUSH2 0x4251 JUMP JUMPDEST DUP2 SLOAD DUP6 MSTORE PUSH2 0x14EA DUP11 DUP4 ADD PUSH2 0x42DE JUMP JUMPDEST SWAP1 DUP6 ADD MSTORE PUSH1 0x2 DUP2 ADD SLOAD PUSH1 0x1 PUSH1 0x1 PUSH1 0xA0 SHL SUB AND PUSH1 0x40 DUP6 ADD MSTORE PUSH1 0x3 DUP2 ADD SLOAD PUSH1 0x60 DUP6 ADD MSTORE ADD SLOAD PUSH1 0x80 DUP4 ADD MSTORE ISZERO ISZERO PUSH1 0xA0 DUP3 ADD MSTORE PUSH2 0x110E DUP3 DUP10 PUSH2 0x4E5C JUMP JUMPDEST SWAP2 SWAP1 DUP7 DUP1 PUSH2 0x14B0 JUMP JUMPDEST DUP1 PUSH1 0x0 MSTORE PUSH1 0x6 PUSH1 0x20 MSTORE PUSH1 0xFF PUSH1 0x5 PUSH1 0x40 PUSH1 0x0 KECCAK256 ADD SLOAD AND PUSH2 0x1554 JUMPI JUMPDEST PUSH2 0x154F SWAP1 PUSH2 0x48BC JUMP JUMPDEST PUSH2 0x1465 JUMP JUMPDEST SWAP1 PUSH2 0x1561 PUSH2 0x154F SWAP2 PUSH2 0x48BC JUMP JUMPDEST SWAP2 SWAP1 POP PUSH2 0x1546 JUMP JUMPDEST CALLVALUE PUSH2 0x410 JUMPI PUSH1 0x20 CALLDATASIZE PUSH1 0x3 NOT ADD SLT PUSH2 0x410 JUMPI PUSH1 0x4 CALLDATALOAD PUSH1 0x0 MSTORE PUSH1 0x5 PUSH1 0x20 MSTORE PUSH1 0x40 PUSH1 0x0 KECCAK256 DUP1 SLOAD PUSH2 0x1598 PUSH1 0x1 DUP4 ADD PUSH2 0x42DE JUMP JUMPDEST SWAP2 PUSH2 0x15FA PUSH1 0x2 DUP3 ADD SLOAD PUSH1 0x3 DUP4 ADD SLOAD SWAP3 PUSH1 0x4 DUP2 ADD SLOAD PUSH1 0xFF PUSH1 0x6 PUSH2 0x15BC PUSH1 0x5 DUP6 ADD PUSH2 0x42DE JUMP JUMPDEST SWAP4 ADD SLOAD AND SWAP5 PUSH2 0x15DD PUSH1 0x40 MLOAD SWAP9 DUP10 SWAP9 DUP10 MSTORE PUSH1 0xE0 PUSH1 0x20 DUP11 ADD MSTORE PUSH1 0xE0 DUP10 ADD SWAP1 PUSH2 0x4384 JUMP JUMPDEST SWAP4 PUSH1 0x40 DUP9 ADD MSTORE PUSH1 0x60 DUP8 ADD MSTORE PUSH1 0x80 DUP7 ADD MSTORE DUP5 DUP3 SUB PUSH1 0xA0 DUP7 ADD MSTORE PUSH2 0x4384 JUMP JUMPDEST SWAP1 ISZERO ISZERO PUSH1 0xC0 DUP4 ADD MSTORE SUB SWAP1 RETURN JUMPDEST CALLVALUE PUSH2 0x410 JUMPI PUSH1 0x20 CALLDATASIZE PUSH1 0x3 NOT ADD SLT PUSH2 0x410 JUMPI PUSH32 0x954090ADEF24B59354B88966AFB6B169CF1790275CC1C22D9D599CFA745041A5 PUSH1 0x4 CALLDATALOAD PUSH2 0x1650 PUSH1 0x1 DUP1 PUSH1 0xA0 SHL SUB PUSH1 0x11 SLOAD AND CALLER EQ PUSH2 0x4865 JUMP JUMPDEST PUSH2 0x165E PUSH1 0xC SLOAD DUP3 GT ISZERO PUSH2 0x4B40 JUMP JUMPDEST PUSH1 0x0 DUP2 DUP2 MSTORE PUSH1 0x5 PUSH1 0x20 MSTORE PUSH1 0x40 SWAP1 KECCAK256 PUSH1 0x6 ADD DUP1 SLOAD PUSH1 0xFF DUP2 DUP2 AND ISZERO AND PUSH1 0xFF NOT SWAP1 SWAP2 AND OR SWAP1 SSTORE PUSH2 0x16CF PUSH1 0x40 MLOAD PUSH2 0x1690 DUP2 PUSH2 0x42A2 JUMP JUMPDEST PUSH1 0x24 DUP2 MSTORE PUSH32 0x4D65646963696E65207374617475732075706461746564207375636365737366 PUSH1 0x20 DUP3 ADD MSTORE PUSH4 0x756C6C79 PUSH1 0xE0 SHL PUSH1 0x40 DUP3 ADD MSTORE PUSH2 0x5A4 PUSH2 0x49EE JUMP JUMPDEST PUSH1 0x0 DUP2 DUP2 MSTORE PUSH1 0x5 PUSH1 0x20 SWAP1 DUP2 MSTORE PUSH1 0x40 SWAP2 DUP3 SWAP1 KECCAK256 PUSH1 0x6 ADD SLOAD DUP3 MLOAD SWAP4 DUP5 MSTORE PUSH1 0xFF AND ISZERO ISZERO SWAP1 DUP4 ADD MSTORE DUP2 SWAP1 DUP2 ADD PUSH2 0x7BE JUMP JUMPDEST CALLVALUE PUSH2 0x410 JUMPI PUSH32 0x611A96F8A84B78B34D3917ACCD31D6E94FFC712CDD95A8CE7B8E2F9C5E093AE9 PUSH1 0x40 PUSH2 0x172D CALLDATASIZE PUSH2 0x43C4 JUMP JUMPDEST PUSH2 0x1742 PUSH1 0x1 DUP1 PUSH1 0xA0 SHL SUB PUSH1 0x11 SLOAD AND CALLER EQ PUSH2 0x4865 JUMP JUMPDEST PUSH2 0x1750 PUSH1 0xC SLOAD DUP4 GT ISZERO PUSH2 0x4B40 JUMP JUMPDEST DUP2 PUSH1 0x0 MSTORE PUSH1 0x5 PUSH1 0x20 MSTORE DUP1 PUSH1 0x4 DUP5 PUSH1 0x0 KECCAK256 ADD SSTORE PUSH2 0x17B0 DUP4 MLOAD PUSH2 0x1770 DUP2 PUSH2 0x42A2 JUMP JUMPDEST PUSH1 0x26 DUP2 MSTORE PUSH32 0x4D65646963696E6520646973636F756E74207570646174656420737563636573 PUSH1 0x20 DUP3 ADD MSTORE PUSH6 0x7366756C6C79 PUSH1 0xD0 SHL DUP6 DUP3 ADD MSTORE PUSH2 0x5A4 PUSH2 0x49EE JUMP JUMPDEST DUP3 MLOAD SWAP2 DUP3 MSTORE PUSH1 0x20 DUP3 ADD MSTORE LOG1 STOP JUMPDEST PUSH1 0x80 CALLDATASIZE PUSH1 0x3 NOT ADD SLT PUSH2 0x410 JUMPI PUSH1 0x1 PUSH1 0x1 PUSH1 0x40 SHL SUB PUSH1 0x4 CALLDATALOAD DUP2 DUP2 GT PUSH2 0x410 JUMPI PUSH2 0x17E9 SWAP1 CALLDATASIZE SWAP1 PUSH1 0x4 ADD PUSH2 0x4420 JUMP JUMPDEST PUSH2 0x17F1 PUSH2 0x41CA JUMP JUMPDEST PUSH1 0x44 CALLDATALOAD DUP4 DUP2 GT PUSH2 0x410 JUMPI PUSH2 0x1809 SWAP1 CALLDATASIZE SWAP1 PUSH1 0x4 ADD PUSH2 0x4588 JUMP JUMPDEST SWAP1 PUSH1 0x64 CALLDATALOAD DUP6 DUP2 GT PUSH2 0x410 JUMPI PUSH2 0x1822 SWAP1 CALLDATASIZE SWAP1 PUSH1 0x4 ADD PUSH2 0x4420 JUMP JUMPDEST SWAP2 PUSH2 0x1830 PUSH1 0x12 SLOAD CALLVALUE EQ PUSH2 0x4B8C JUMP JUMPDEST PUSH1 0x1 DUP1 PUSH1 0xA0 SHL SUB SWAP3 DUP4 DUP6 AND SWAP3 DUP4 PUSH1 0x0 MSTORE PUSH1 0x20 SWAP4 PUSH1 0xA DUP6 MSTORE PUSH1 0xFF PUSH1 0x40 PUSH1 0x0 KECCAK256 SLOAD AND PUSH2 0x1A5C JUMPI PUSH2 0x18F8 PUSH2 0x1862 PUSH1 0xD SLOAD PUSH2 0x48BC JUMP JUMPDEST DUP1 PUSH1 0xD SSTORE PUSH1 0x5 PUSH1 0x40 MLOAD SWAP2 PUSH2 0x1875 DUP4 PUSH2 0x4251 JUMP JUMPDEST DUP1 DUP4 MSTORE DUP9 DUP1 DUP5 ADD DUP14 DUP2 MSTORE PUSH1 0x40 DUP6 ADD DUP8 DUP2 MSTORE PUSH2 0x18BD PUSH1 0x60 DUP8 ADD SWAP3 PUSH1 0x0 DUP5 MSTORE PUSH1 0x6 PUSH1 0x80 DUP10 ADD SWAP6 PUSH1 0x0 DUP8 MSTORE PUSH1 0xA0 DUP11 ADD SWAP8 PUSH1 0x0 DUP10 MSTORE PUSH1 0x0 MSTORE MSTORE PUSH1 0x40 PUSH1 0x0 KECCAK256 SWAP8 MLOAD DUP9 SSTORE MLOAD PUSH1 0x1 DUP9 ADD PUSH2 0x4927 JUMP JUMPDEST DUP13 PUSH1 0x2 DUP8 ADD SWAP2 MLOAD AND PUSH1 0x1 PUSH1 0x1 PUSH1 0x60 SHL SUB PUSH1 0xA0 SHL DUP3 SLOAD AND OR SWAP1 SSTORE MLOAD PUSH1 0x3 DUP6 ADD SSTORE MLOAD PUSH1 0x4 DUP5 ADD SSTORE MLOAD ISZERO ISZERO SWAP2 ADD SWAP1 PUSH1 0xFF DUP1 NOT DUP4 SLOAD AND SWAP2 ISZERO ISZERO AND OR SWAP1 SSTORE JUMP JUMPDEST PUSH1 0x0 MSTORE PUSH1 0xA DUP5 MSTORE PUSH1 0x40 PUSH1 0x0 KECCAK256 PUSH1 0x1 PUSH1 0xFF NOT DUP3 SLOAD AND OR SWAP1 SSTORE PUSH1 0x0 DUP1 DUP1 DUP1 DUP9 PUSH1 0x11 SLOAD AND DUP2 SWAP1 CALLVALUE ISZERO PUSH2 0x1A52 JUMPI JUMPDEST CALLVALUE SWAP2 CALL ISZERO PUSH2 0xF65 JUMPI PUSH2 0x1935 SWAP3 DUP7 SWAP2 PUSH2 0x51D2 JUMP JUMPDEST PUSH1 0x40 MLOAD SWAP2 PUSH1 0x80 DUP4 ADD SWAP6 DUP4 DUP8 LT SWAP1 DUP8 GT OR PUSH2 0xB1B JUMPI PUSH2 0x19E5 PUSH2 0x1A3F SWAP4 PUSH32 0x8C4E93915E8E9956F3984EEF613C813C83672180F22083646E395379663DD769 SWAP8 PUSH1 0x40 MSTORE PUSH1 0x49 DUP2 MSTORE PUSH32 0x596F752068617665207375636365737366756C6C7920636F6D706C6574656420 DUP5 DUP3 ADD MSTORE PUSH32 0x74686520726567697374726174696F6E2C206E6F7720776174696E6720666F72 PUSH1 0x40 DUP3 ADD MSTORE PUSH9 0x8185C1C1C9BDD985B PUSH1 0xBA SHL PUSH1 0x60 DUP3 ADD MSTORE PUSH2 0x19DE PUSH2 0x4BD8 JUMP JUMPDEST SWAP1 DUP7 PUSH2 0x4A12 JUMP JUMPDEST PUSH1 0x11 SLOAD AND SWAP1 PUSH32 0x4E657720646F63746F72206973207265676973746F722C206E6F772077617469 PUSH1 0x40 MLOAD SWAP2 PUSH2 0x1A18 DUP4 PUSH2 0x42A2 JUMP JUMPDEST PUSH1 0x2F DUP4 MSTORE DUP3 ADD MSTORE PUSH15 0x1B99C8199BDC88185C1C1C9BDD985B PUSH1 0x8A SHL PUSH1 0x40 DUP3 ADD MSTORE PUSH2 0x627 PUSH2 0x4BD8 JUMP JUMPDEST PUSH2 0x7BE PUSH1 0xD SLOAD SWAP2 PUSH1 0x40 MLOAD SWAP4 DUP5 SWAP4 DUP5 PUSH2 0x47BC JUMP JUMPDEST PUSH2 0x8FC SWAP2 POP PUSH2 0x1922 JUMP JUMPDEST PUSH1 0x40 MLOAD PUSH3 0x461BCD PUSH1 0xE5 SHL DUP2 MSTORE PUSH1 0x4 DUP2 ADD DUP7 SWAP1 MSTORE PUSH1 0x1C PUSH1 0x24 DUP3 ADD MSTORE PUSH32 0x446F63746F7220697320616C7265616479207265676973746572656400000000 PUSH1 0x44 DUP3 ADD MSTORE PUSH1 0x64 SWAP1 REVERT JUMPDEST CALLVALUE PUSH2 0x410 JUMPI PUSH1 0x0 CALLDATASIZE PUSH1 0x3 NOT ADD SLT PUSH2 0x410 JUMPI PUSH1 0x20 PUSH1 0xF SLOAD PUSH1 0x40 MLOAD SWAP1 DUP2 MSTORE RETURN JUMPDEST CALLVALUE PUSH2 0x410 JUMPI PUSH1 0x20 DUP1 PUSH1 0x3 NOT CALLDATASIZE ADD SLT PUSH2 0x410 JUMPI PUSH1 0x1 PUSH1 0x1 PUSH1 0xA0 SHL SUB SWAP1 DUP2 PUSH2 0x1AE3 PUSH2 0x41B4 JUMP JUMPDEST AND PUSH1 0x0 MSTORE PUSH1 0x1 DUP1 DUP3 MSTORE PUSH2 0x1AFC PUSH1 0x2 PUSH1 0x40 PUSH1 0x0 KECCAK256 ADD PUSH2 0x5486 JUMP JUMPDEST SWAP3 PUSH1 0x40 MLOAD SWAP3 DUP1 DUP5 ADD SWAP1 DUP1 DUP6 MSTORE DUP6 MLOAD DUP1 SWAP3 MSTORE PUSH1 0x40 DUP6 ADD SWAP3 DUP2 PUSH1 0x40 DUP5 PUSH1 0x5 SHL DUP9 ADD ADD SWAP8 ADD SWAP4 PUSH1 0x0 SWAP2 JUMPDEST DUP5 DUP4 LT PUSH2 0x1B30 JUMPI DUP8 DUP10 SUB DUP9 RETURN JUMPDEST SWAP1 SWAP2 SWAP3 SWAP4 SWAP5 SWAP6 DUP5 DUP1 PUSH2 0x1B60 DUP4 SWAP12 PUSH1 0x3F NOT DUP13 DUP3 SUB ADD DUP8 MSTORE PUSH1 0x40 DUP4 DUP13 MLOAD DUP9 DUP2 MLOAD AND DUP5 MSTORE ADD MLOAD SWAP2 DUP2 DUP6 DUP3 ADD MSTORE ADD SWAP1 PUSH2 0x4384 JUMP JUMPDEST SWAP11 SWAP9 ADD SWAP7 SWAP6 SWAP5 SWAP2 SWAP1 SWAP2 ADD SWAP3 ADD SWAP1 PUSH2 0x1B23 JUMP JUMPDEST CALLVALUE PUSH2 0x410 JUMPI PUSH1 0x0 CALLDATASIZE PUSH1 0x3 NOT ADD SLT PUSH2 0x410 JUMPI PUSH2 0x1B8B PUSH2 0x505C JUMP JUMPDEST POP PUSH2 0x1B94 PUSH2 0x505C JUMP JUMPDEST PUSH1 0x0 SWAP1 PUSH1 0x1 DUP1 PUSH1 0xD SLOAD SWAP2 JUMPDEST DUP3 DUP2 GT ISZERO PUSH2 0x1BBD JUMPI PUSH1 0x40 MLOAD PUSH1 0x20 DUP1 DUP3 MSTORE DUP2 SWAP1 PUSH2 0x4AC SWAP1 DUP3 ADD DUP8 PUSH2 0x4699 JUMP JUMPDEST DUP1 PUSH1 0x0 MSTORE PUSH1 0x6 PUSH1 0x20 DUP2 DUP2 MSTORE PUSH1 0x40 PUSH1 0x0 KECCAK256 PUSH1 0x3 SWAP1 PUSH1 0x4 DUP3 DUP3 ADD SLOAD SWAP2 ADD SLOAD DUP2 ADD DUP1 SWAP2 GT PUSH2 0x1C72 JUMPI DUP9 DUP2 GT PUSH2 0x1BFC JUMPI JUMPDEST POP POP POP POP PUSH2 0x1BF7 SWAP1 PUSH2 0x48BC JUMP JUMPDEST PUSH2 0x1B9F JUMP JUMPDEST PUSH1 0xFF SWAP3 SWAP4 SWAP9 POP PUSH2 0x1BF7 SWAP5 SWAP8 POP SWAP1 PUSH1 0x5 SWAP2 SWAP9 DUP9 PUSH1 0x0 MSTORE DUP5 MSTORE PUSH1 0x40 PUSH1 0x0 KECCAK256 SWAP1 PUSH1 0x40 MLOAD SWAP5 PUSH2 0x1C26 DUP7 PUSH2 0x4251 JUMP JUMPDEST DUP3 SLOAD DUP7 MSTORE PUSH2 0x1C35 DUP9 DUP5 ADD PUSH2 0x42DE JUMP JUMPDEST SWAP1 DUP7 ADD MSTORE PUSH1 0x2 DUP3 ADD SLOAD PUSH1 0x1 PUSH1 0x1 PUSH1 0xA0 SHL SUB AND PUSH1 0x40 DUP7 ADD MSTORE DUP2 ADD SLOAD PUSH1 0x60 DUP6 ADD MSTORE PUSH1 0x4 DUP2 ADD SLOAD PUSH1 0x80 DUP6 ADD MSTORE ADD SLOAD AND ISZERO ISZERO PUSH1 0xA0 DUP3 ADD MSTORE SWAP4 SWAP1 DUP7 DUP1 DUP1 PUSH2 0x1BEA JUMP JUMPDEST PUSH4 0x4E487B71 PUSH1 0xE0 SHL PUSH1 0x0 MSTORE PUSH1 0x11 PUSH1 0x4 MSTORE PUSH1 0x24 PUSH1 0x0 REVERT JUMPDEST CALLVALUE PUSH2 0x410 JUMPI PUSH1 0x40 CALLDATASIZE PUSH1 0x3 NOT ADD SLT PUSH2 0x410 JUMPI PUSH2 0x1CB1 PUSH2 0x1CA4 PUSH2 0x41B4 JUMP JUMPDEST PUSH2 0x1CAC PUSH2 0x41CA JUMP JUMPDEST PUSH2 0x57C3 JUMP JUMPDEST PUSH1 0x0 MSTORE PUSH1 0x2 PUSH1 0x20 DUP2 DUP2 MSTORE PUSH1 0x40 PUSH1 0x0 KECCAK256 DUP1 SLOAD PUSH2 0x1CCB DUP2 PUSH2 0x4571 JUMP JUMPDEST SWAP4 PUSH2 0x1CD9 PUSH1 0x40 MLOAD SWAP6 DUP7 PUSH2 0x42BD JUMP JUMPDEST DUP2 DUP6 MSTORE PUSH1 0x0 SWAP3 DUP4 MSTORE DUP4 DUP4 KECCAK256 DUP5 DUP7 ADD SWAP4 SWAP2 DUP5 JUMPDEST DUP5 DUP5 LT PUSH2 0x1D71 JUMPI PUSH1 0x40 DUP1 MLOAD DUP9 DUP2 MSTORE DUP10 MLOAD DUP2 DUP11 ADD DUP2 SWAP1 MSTORE PUSH1 0x0 SWAP3 PUSH1 0x5 DUP3 SWAP1 SHL DUP4 ADD DUP2 ADD SWAP2 DUP11 SWAP2 DUP13 SWAP1 DUP6 ADD JUMPDEST DUP3 DUP8 LT PUSH2 0x1D22 JUMPI DUP6 DUP6 SUB DUP7 RETURN JUMPDEST SWAP1 SWAP2 SWAP3 SWAP4 DUP3 DUP1 PUSH2 0x1D61 PUSH1 0x1 SWAP4 PUSH1 0x3F NOT DUP11 DUP3 SUB ADD DUP7 MSTORE PUSH1 0x40 DUP10 MLOAD DUP7 DUP1 PUSH1 0xA0 SHL SUB DUP2 MLOAD AND DUP4 MSTORE DUP5 DUP2 ADD MLOAD DUP6 DUP5 ADD MSTORE ADD MLOAD SWAP1 PUSH1 0x60 SWAP1 DUP2 PUSH1 0x40 DUP3 ADD MSTORE ADD SWAP1 PUSH2 0x4384 JUMP JUMPDEST SWAP7 ADD SWAP3 ADD SWAP7 ADD SWAP6 SWAP3 SWAP2 SWAP1 SWAP3 PUSH2 0x1D15 JUMP JUMPDEST PUSH1 0x3 DUP8 PUSH1 0x1 SWAP3 PUSH1 0x40 SWAP11 SWAP10 SWAP11 MLOAD PUSH2 0x1D86 DUP2 PUSH2 0x42A2 JUMP JUMPDEST DUP5 DUP1 PUSH1 0xA0 SHL SUB DUP8 SLOAD AND DUP2 MSTORE DUP5 DUP8 ADD SLOAD DUP4 DUP3 ADD MSTORE PUSH2 0x1DA4 DUP7 DUP9 ADD PUSH2 0x42DE JUMP JUMPDEST PUSH1 0x40 DUP3 ADD MSTORE DUP2 MSTORE ADD SWAP4 ADD SWAP4 ADD SWAP3 SWAP2 SWAP7 SWAP6 SWAP7 PUSH2 0x1CEB JUMP JUMPDEST CALLVALUE PUSH2 0x410 JUMPI PUSH1 0x20 DUP1 PUSH1 0x3 NOT CALLDATASIZE ADD SLT PUSH2 0x410 JUMPI PUSH1 0x4 CALLDATALOAD PUSH2 0x1DDD PUSH1 0xE SLOAD DUP3 GT ISZERO PUSH2 0x4CA2 JUMP JUMPDEST PUSH1 0x0 DUP2 DUP2 MSTORE PUSH1 0x7 DUP4 MSTORE PUSH1 0x40 SWAP1 KECCAK256 PUSH1 0x3 ADD SLOAD CALLER PUSH1 0x1 PUSH1 0x1 PUSH1 0xA0 SHL SUB SWAP2 DUP3 AND EQ SWAP1 DUP2 ISZERO PUSH2 0x1E99 JUMPI JUMPDEST POP ISZERO PUSH2 0x1E35 JUMPI PUSH1 0x0 MSTORE PUSH1 0x7 DUP2 MSTORE PUSH2 0x1E20 PUSH1 0x2 PUSH1 0x40 PUSH1 0x0 KECCAK256 ADD PUSH2 0x4E9C JUMP JUMPDEST SWAP1 PUSH2 0x4AC PUSH1 0x40 MLOAD SWAP3 DUP3 DUP5 SWAP4 DUP5 MSTORE DUP4 ADD SWAP1 PUSH2 0x45E9 JUMP JUMPDEST PUSH1 0x40 MLOAD PUSH3 0x461BCD PUSH1 0xE5 SHL DUP2 MSTORE PUSH1 0x4 DUP2 ADD DUP4 SWAP1 MSTORE PUSH1 0x36 PUSH1 0x24 DUP3 ADD MSTORE PUSH32 0x4F6E6C79207468652070617469656E74206F722061646D696E2063616E207669 PUSH1 0x44 DUP3 ADD MSTORE PUSH22 0x657720746865206D65646963616C20686973746F7279 PUSH1 0x50 SHL PUSH1 0x64 DUP3 ADD MSTORE PUSH1 0x84 SWAP1 REVERT JUMPDEST SWAP1 POP PUSH1 0x11 SLOAD AND CALLER EQ DUP4 PUSH2 0x1E03 JUMP JUMPDEST CALLVALUE PUSH2 0x410 JUMPI PUSH2 0x1EB5 CALLDATASIZE PUSH2 0x43C4 JUMP JUMPDEST SWAP1 PUSH1 0x0 MSTORE PUSH1 0x4 PUSH1 0x20 MSTORE PUSH1 0x40 PUSH1 0x0 KECCAK256 DUP1 SLOAD DUP3 LT ISZERO PUSH2 0x410 JUMPI PUSH1 0xC0 SWAP2 PUSH2 0x1ED8 SWAP2 PUSH2 0x4849 JUMP JUMPDEST POP DUP1 SLOAD SWAP1 PUSH1 0x1 DUP2 ADD SLOAD SWAP1 PUSH1 0x2 DUP2 ADD SLOAD PUSH1 0x3 DUP3 ADD SLOAD SWAP1 PUSH1 0x5 PUSH1 0x4 DUP5 ADD SLOAD SWAP4 ADD SLOAD SWAP4 PUSH1 0x40 MLOAD SWAP6 DUP7 MSTORE PUSH1 0x20 DUP7 ADD MSTORE PUSH1 0x40 DUP6 ADD MSTORE PUSH1 0x60 DUP5 ADD MSTORE PUSH1 0x80 DUP4 ADD MSTORE PUSH1 0xA0 DUP3 ADD MSTORE RETURN JUMPDEST CALLVALUE PUSH2 0x410 JUMPI PUSH1 0x0 CALLDATASIZE PUSH1 0x3 NOT ADD SLT PUSH2 0x410 JUMPI PUSH1 0x20 PUSH1 0xE SLOAD PUSH1 0x40 MLOAD SWAP1 DUP2 MSTORE RETURN JUMPDEST CALLVALUE PUSH2 0x410 JUMPI PUSH1 0x0 CALLDATASIZE PUSH1 0x3 NOT ADD SLT PUSH2 0x410 JUMPI PUSH1 0xC SLOAD PUSH2 0x1F54 DUP2 PUSH2 0x4571 JUMP JUMPDEST PUSH2 0x1F61 PUSH1 0x40 MLOAD SWAP2 DUP3 PUSH2 0x42BD JUMP JUMPDEST DUP2 DUP2 MSTORE PUSH1 0x1F NOT PUSH2 0x1F70 DUP4 PUSH2 0x4571 JUMP JUMPDEST ADD PUSH1 0x0 JUMPDEST DUP2 DUP2 LT PUSH2 0x2085 JUMPI POP PUSH1 0x1 SWAP3 SWAP1 POP DUP3 PUSH1 0x0 JUMPDEST DUP3 DUP3 GT ISZERO PUSH2 0x1FF0 JUMPI DUP4 DUP6 PUSH1 0x40 MLOAD SWAP1 PUSH1 0x20 DUP1 DUP4 ADD DUP2 DUP5 MSTORE DUP5 MLOAD DUP1 SWAP2 MSTORE PUSH1 0x40 DUP5 ADD SWAP2 DUP1 PUSH1 0x40 DUP4 PUSH1 0x5 SHL DUP8 ADD ADD SWAP7 ADD SWAP3 PUSH1 0x0 SWAP1 JUMPDEST DUP4 DUP3 LT PUSH2 0x1FC3 JUMPI DUP7 DUP9 SUB DUP8 RETURN JUMPDEST SWAP1 SWAP2 SWAP3 SWAP4 SWAP5 DUP4 DUP1 PUSH2 0x1FDF DUP4 SWAP11 PUSH1 0x3F NOT DUP12 DUP3 SUB ADD DUP7 MSTORE DUP10 MLOAD PUSH2 0x47EA JUMP JUMPDEST SWAP10 SWAP8 ADD SWAP6 SWAP5 SWAP4 SWAP2 SWAP1 SWAP2 ADD SWAP2 ADD PUSH2 0x1FB6 JUMP JUMPDEST PUSH2 0x2079 PUSH2 0x207F SWAP2 DUP4 PUSH1 0x0 MSTORE DUP7 PUSH1 0xFF PUSH1 0x6 PUSH1 0x5 PUSH2 0x2055 PUSH1 0x20 SWAP2 DUP1 DUP4 MSTORE PUSH1 0x40 PUSH1 0x0 KECCAK256 SWAP3 PUSH2 0x202C PUSH1 0x40 MLOAD SWAP8 PUSH2 0x2021 DUP10 PUSH2 0x4287 JUMP JUMPDEST DUP6 SLOAD DUP10 MSTORE DUP6 ADD PUSH2 0x42DE JUMP JUMPDEST SWAP1 DUP8 ADD MSTORE PUSH1 0x2 DUP4 ADD SLOAD PUSH1 0x40 DUP8 ADD MSTORE PUSH1 0x3 DUP4 ADD SLOAD PUSH1 0x60 DUP8 ADD MSTORE PUSH1 0x4 DUP4 ADD SLOAD PUSH1 0x80 DUP8 ADD MSTORE DUP3 ADD PUSH2 0x42DE JUMP JUMPDEST PUSH1 0xA0 DUP6 ADD MSTORE ADD SLOAD AND ISZERO ISZERO PUSH1 0xC0 DUP3 ADD MSTORE PUSH2 0x206E DUP3 DUP9 PUSH2 0x4E5C JUMP JUMPDEST MSTORE PUSH2 0x1119 DUP2 DUP8 PUSH2 0x4E5C JUMP JUMPDEST SWAP2 PUSH2 0x48BC JUMP JUMPDEST SWAP1 PUSH2 0x1F85 JUMP JUMPDEST PUSH1 0x20 SWAP1 PUSH2 0x2090 PUSH2 0x5157 JUMP JUMPDEST DUP3 DUP3 DUP7 ADD ADD MSTORE ADD PUSH2 0x1F74 JUMP JUMPDEST CALLVALUE PUSH2 0x410 JUMPI PUSH1 0x20 CALLDATASIZE PUSH1 0x3 NOT ADD SLT PUSH2 0x410 JUMPI PUSH1 0x1 PUSH1 0x1 PUSH1 0xA0 SHL SUB PUSH2 0x20BD PUSH2 0x41B4 JUMP JUMPDEST AND PUSH1 0x0 MSTORE PUSH1 0xB PUSH1 0x20 MSTORE PUSH1 0x20 PUSH1 0xFF PUSH1 0x40 PUSH1 0x0 KECCAK256 SLOAD AND PUSH1 0x40 MLOAD SWAP1 ISZERO ISZERO DUP2 MSTORE RETURN JUMPDEST CALLVALUE PUSH2 0x410 JUMPI PUSH1 0x20 CALLDATASIZE PUSH1 0x3 NOT ADD SLT PUSH2 0x410 JUMPI PUSH1 0x4 CALLDATALOAD PUSH1 0x0 MSTORE PUSH1 0x7 PUSH1 0x20 MSTORE PUSH1 0x40 PUSH1 0x0 KECCAK256 DUP1 SLOAD PUSH2 0x4AC PUSH2 0x210D PUSH1 0x1 DUP5 ADD PUSH2 0x42DE JUMP JUMPDEST SWAP3 PUSH1 0x3 PUSH1 0x1 DUP1 PUSH1 0xA0 SHL SUB SWAP2 ADD SLOAD AND PUSH1 0x40 MLOAD SWAP4 DUP5 SWAP4 DUP5 PUSH2 0x47BC JUMP JUMPDEST CALLVALUE PUSH2 0x410 JUMPI PUSH1 0x0 CALLDATASIZE PUSH1 0x3 NOT ADD SLT PUSH2 0x410 JUMPI PUSH1 0xF SLOAD PUSH2 0x2144 DUP2 PUSH2 0x4E0C JUMP JUMPDEST SWAP1 PUSH1 0x1 DUP1 PUSH1 0x0 JUMPDEST DUP4 DUP4 GT ISZERO PUSH2 0x2161 JUMPI PUSH1 0x40 MLOAD DUP1 PUSH2 0x4AC DUP8 DUP3 PUSH2 0x474C JUMP JUMPDEST PUSH2 0x111F PUSH2 0x21B7 SWAP2 DUP5 PUSH1 0x0 MSTORE PUSH1 0x20 PUSH1 0x8 DUP2 MSTORE PUSH1 0x4 PUSH1 0x40 PUSH1 0x0 KECCAK256 PUSH1 0x40 MLOAD SWAP3 PUSH2 0x2186 DUP5 PUSH2 0x421A JUMP JUMPDEST DUP2 SLOAD DUP5 MSTORE DUP8 DUP3 ADD SLOAD SWAP1 DUP5 ADD MSTORE PUSH1 0x2 DUP2 ADD SLOAD PUSH1 0x40 DUP5 ADD MSTORE PUSH1 0x3 DUP2 ADD SLOAD PUSH1 0x60 DUP5 ADD MSTORE ADD SLOAD PUSH1 0x80 DUP3 ADD MSTORE PUSH2 0x110E DUP3 DUP10 PUSH2 0x4E5C JUMP JUMPDEST SWAP2 PUSH2 0x214B JUMP JUMPDEST CALLVALUE PUSH2 0x410 JUMPI PUSH1 0x20 DUP1 PUSH1 0x3 NOT CALLDATASIZE ADD SLT PUSH2 0x410 JUMPI PUSH1 0x4 CALLDATALOAD PUSH2 0x21DA PUSH2 0x4FC1 JUMP JUMPDEST POP PUSH2 0x21E9 PUSH1 0x10 SLOAD DUP3 GT ISZERO PUSH2 0x4CFF JUMP JUMPDEST DUP1 PUSH1 0x0 MSTORE PUSH1 0x9 DUP3 MSTORE PUSH1 0x1 PUSH1 0x40 PUSH1 0x0 KECCAK256 ADD SLOAD PUSH2 0x2203 CALLER PUSH2 0x4F40 JUMP JUMPDEST EQ DUP1 ISZERO PUSH2 0x2324 JUMPI JUMPDEST ISZERO PUSH2 0x22C4 JUMPI PUSH1 0x0 MSTORE PUSH1 0x9 DUP2 MSTORE PUSH1 0x40 PUSH1 0x0 KECCAK256 SWAP1 PUSH1 0xFF PUSH1 0x9 PUSH1 0x40 MLOAD SWAP4 PUSH2 0x222E DUP6 PUSH2 0x4235 JUMP JUMPDEST DUP1 SLOAD DUP6 MSTORE PUSH1 0x1 DUP2 ADD SLOAD DUP5 DUP7 ADD MSTORE PUSH1 0x2 DUP2 ADD SLOAD PUSH1 0x40 DUP7 ADD MSTORE PUSH1 0x3 DUP2 ADD SLOAD PUSH1 0x60 DUP7 ADD MSTORE PUSH2 0x225B PUSH1 0x4 DUP3 ADD PUSH2 0x42DE JUMP JUMPDEST PUSH1 0x80 DUP7 ADD MSTORE PUSH2 0x226C PUSH1 0x5 DUP3 ADD PUSH2 0x42DE JUMP JUMPDEST PUSH1 0xA0 DUP7 ADD MSTORE PUSH2 0x227D PUSH1 0x6 DUP3 ADD PUSH2 0x42DE JUMP JUMPDEST PUSH1 0xC0 DUP7 ADD MSTORE PUSH2 0x228E PUSH1 0x7 DUP3 ADD PUSH2 0x42DE JUMP JUMPDEST PUSH1 0xE0 DUP7 ADD MSTORE PUSH2 0x229F PUSH1 0x8 DUP3 ADD PUSH2 0x42DE JUMP JUMPDEST PUSH2 0x100 DUP7 ADD MSTORE ADD SLOAD AND ISZERO ISZERO PUSH2 0x120 DUP4 ADD MSTORE PUSH2 0x4AC PUSH1 0x40 MLOAD SWAP3 DUP3 DUP5 SWAP4 DUP5 MSTORE DUP4 ADD SWAP1 PUSH2 0x446D JUMP JUMPDEST PUSH1 0x40 MLOAD PUSH3 0x461BCD PUSH1 0xE5 SHL DUP2 MSTORE PUSH1 0x4 DUP2 ADD DUP4 SWAP1 MSTORE PUSH1 0x32 PUSH1 0x24 DUP3 ADD MSTORE PUSH32 0x4F6E6C79207468652070617469656E74206F722061646D696E2063616E207669 PUSH1 0x44 DUP3 ADD MSTORE PUSH18 0x195DC81D1A1948185C1C1BDA5B9D1B595B9D PUSH1 0x72 SHL PUSH1 0x64 DUP3 ADD MSTORE PUSH1 0x84 SWAP1 REVERT JUMPDEST POP PUSH1 0x11 SLOAD PUSH1 0x1 PUSH1 0x1 PUSH1 0xA0 SHL SUB AND CALLER EQ PUSH2 0x220B JUMP JUMPDEST CALLVALUE PUSH2 0x410 JUMPI PUSH1 0x0 CALLDATASIZE PUSH1 0x3 NOT ADD SLT PUSH2 0x410 JUMPI PUSH1 0xE SLOAD PUSH2 0x2355 DUP2 PUSH2 0x4571 JUMP JUMPDEST PUSH2 0x2362 PUSH1 0x40 MLOAD SWAP2 DUP3 PUSH2 0x42BD JUMP JUMPDEST DUP2 DUP2 MSTORE PUSH1 0x1F NOT PUSH2 0x2371 DUP4 PUSH2 0x4571 JUMP JUMPDEST ADD PUSH1 0x0 JUMPDEST DUP2 DUP2 LT PUSH2 0x246B JUMPI POP PUSH1 0x1 SWAP3 SWAP1 POP DUP3 PUSH1 0x0 JUMPDEST DUP3 DUP3 GT ISZERO PUSH2 0x23F1 JUMPI DUP4 DUP6 PUSH1 0x40 MLOAD SWAP1 PUSH1 0x20 DUP1 DUP4 ADD DUP2 DUP5 MSTORE DUP5 MLOAD DUP1 SWAP2 MSTORE PUSH1 0x40 DUP5 ADD SWAP2 DUP1 PUSH1 0x40 DUP4 PUSH1 0x5 SHL DUP8 ADD ADD SWAP7 ADD SWAP3 PUSH1 0x0 SWAP1 JUMPDEST DUP4 DUP3 LT PUSH2 0x23C4 JUMPI DUP7 DUP9 SUB DUP8 RETURN JUMPDEST SWAP1 SWAP2 SWAP3 SWAP4 SWAP5 DUP4 DUP1 PUSH2 0x23E0 DUP4 SWAP11 PUSH1 0x3F NOT DUP12 DUP3 SUB ADD DUP7 MSTORE DUP10 MLOAD PUSH2 0x463E JUMP JUMPDEST SWAP10 SWAP8 ADD SWAP6 SWAP5 SWAP4 SWAP2 SWAP1 SWAP2 ADD SWAP2 ADD PUSH2 0x23B7 JUMP JUMPDEST PUSH2 0x2079 PUSH2 0x2465 SWAP2 DUP4 PUSH1 0x0 MSTORE PUSH1 0x20 PUSH1 0x7 DUP2 MSTORE PUSH2 0x2456 PUSH1 0x4 PUSH1 0x40 PUSH1 0x0 KECCAK256 PUSH1 0x40 MLOAD SWAP4 PUSH2 0x2419 DUP6 PUSH2 0x421A JUMP JUMPDEST DUP2 SLOAD DUP6 MSTORE PUSH2 0x2428 DUP13 DUP4 ADD PUSH2 0x42DE JUMP JUMPDEST SWAP1 DUP6 ADD MSTORE PUSH2 0x2438 PUSH1 0x2 DUP3 ADD PUSH2 0x4E9C JUMP JUMPDEST PUSH1 0x40 DUP6 ADD MSTORE PUSH1 0x3 DUP2 ADD SLOAD PUSH1 0x1 PUSH1 0x1 PUSH1 0xA0 SHL SUB AND PUSH1 0x60 DUP6 ADD MSTORE ADD PUSH2 0x4EF1 JUMP JUMPDEST PUSH1 0x80 DUP3 ADD MSTORE PUSH2 0x206E DUP3 DUP9 PUSH2 0x4E5C JUMP JUMPDEST SWAP1 PUSH2 0x2386 JUMP JUMPDEST PUSH1 0x20 SWAP1 PUSH2 0x2476 PUSH2 0x4E70 JUMP JUMPDEST DUP3 DUP3 DUP7 ADD ADD MSTORE ADD PUSH2 0x2375 JUMP JUMPDEST PUSH1 0x60 CALLDATASIZE PUSH1 0x3 NOT ADD SLT PUSH2 0x410 JUMPI PUSH1 0x4 CALLDATALOAD PUSH1 0x24 DUP1 CALLDATALOAD SWAP1 PUSH1 0x44 CALLDATALOAD PUSH2 0x24A7 PUSH1 0xE SLOAD DUP6 GT ISZERO PUSH2 0x4CA2 JUMP JUMPDEST PUSH2 0x24B5 PUSH1 0xC SLOAD DUP5 GT ISZERO PUSH2 0x4B40 JUMP JUMPDEST DUP4 PUSH1 0x0 MSTORE PUSH1 0x20 SWAP2 PUSH1 0x7 DUP4 MSTORE PUSH1 0x1 DUP1 PUSH1 0xA0 SHL SUB SWAP2 DUP3 PUSH1 0x3 PUSH1 0x40 PUSH1 0x0 KECCAK256 ADD SLOAD AND CALLER SUB PUSH2 0x27D7 JUMPI DUP5 PUSH1 0x0 MSTORE PUSH1 0x5 SWAP1 DUP2 DUP6 MSTORE PUSH1 0xFF PUSH1 0x6 PUSH1 0x40 PUSH1 0x0 KECCAK256 ADD SLOAD AND ISZERO PUSH2 0x279A JUMPI DUP6 PUSH1 0x0 MSTORE DUP2 DUP6 MSTORE DUP1 PUSH1 0x3 PUSH1 0x40 PUSH1 0x0 KECCAK256 ADD SLOAD LT PUSH2 0x2756 JUMPI DUP6 PUSH1 0x0 MSTORE DUP2 DUP6 MSTORE PUSH1 0x2 PUSH1 0x40 PUSH1 0x0 KECCAK256 ADD SLOAD SWAP1 DUP1 DUP3 MUL SWAP2 DUP1 DUP4 DIV DUP3 EQ SWAP1 ISZERO OR ISZERO PUSH2 0x2741 JUMPI DUP7 PUSH1 0x0 MSTORE DUP3 DUP7 MSTORE PUSH1 0x3 PUSH1 0x40 PUSH1 0x0 KECCAK256 ADD PUSH2 0x2546 DUP3 DUP3 SLOAD PUSH2 0x4DB3 JUMP JUMPDEST SWAP1 SSTORE DUP8 PUSH1 0x0 MSTORE PUSH1 0x7 DUP7 MSTORE PUSH1 0x4 PUSH1 0x40 PUSH1 0x0 KECCAK256 ADD SWAP1 DUP2 SLOAD PUSH1 0x1 PUSH1 0x40 SHL SWAP3 DUP4 DUP3 LT ISZERO PUSH2 0x272C JUMPI SWAP1 PUSH2 0x2579 SWAP2 PUSH1 0x1 DUP3 ADD DUP2 SSTORE PUSH2 0x4CE7 JUMP JUMPDEST DUP2 SLOAD SWAP1 PUSH1 0x3 SHL SWAP1 DUP11 DUP3 SHL SWAP2 PUSH1 0x0 NOT SWAP1 SHL NOT AND OR SWAP1 SSTORE DUP9 PUSH1 0x0 MSTORE PUSH1 0x4 DUP8 MSTORE PUSH1 0x40 PUSH1 0x0 KECCAK256 SWAP3 DUP9 PUSH1 0x0 MSTORE DUP5 DUP9 MSTORE PUSH1 0x2 PUSH1 0x40 PUSH1 0x0 KECCAK256 ADD SLOAD PUSH1 0x40 MLOAD PUSH2 0x25B8 DUP2 PUSH2 0x4251 JUMP JUMPDEST DUP11 DUP2 MSTORE DUP10 DUP2 ADD SWAP2 DUP3 MSTORE PUSH1 0x40 DUP2 ADD SWAP3 DUP4 MSTORE PUSH1 0x60 DUP2 ADD SWAP4 DUP5 MSTORE PUSH1 0x80 DUP2 ADD SWAP5 DUP13 DUP7 MSTORE PUSH1 0xA0 DUP3 ADD SWAP7 TIMESTAMP DUP9 MSTORE DUP1 SLOAD SWAP2 DUP3 LT ISZERO PUSH2 0x2717 JUMPI SWAP1 PUSH2 0x25F9 SWAP2 PUSH1 0x1 DUP3 ADD DUP2 SSTORE PUSH2 0x4849 JUMP JUMPDEST SWAP9 SWAP1 SWAP9 PUSH2 0x2703 JUMPI PUSH32 0x1D62F96054391D98915909B52FC6B2182AF4CE3748F5DDD6C0047DD725A969DF PUSH1 0x40 DUP15 DUP15 DUP15 PUSH2 0x26F8 DUP16 DUP16 DUP16 DUP16 DUP16 DUP16 DUP16 DUP16 DUP16 MLOAD DUP8 SSTORE MLOAD PUSH1 0x1 DUP8 ADD SSTORE MLOAD PUSH1 0x2 DUP7 ADD SSTORE MLOAD PUSH1 0x3 DUP6 ADD SSTORE MLOAD PUSH1 0x4 DUP5 ADD SSTORE MLOAD SWAP2 ADD SSTORE PUSH2 0x269D DUP7 MLOAD PUSH2 0x265F DUP2 PUSH2 0x42A2 JUMP JUMPDEST PUSH1 0x25 DUP2 MSTORE PUSH32 0x596F752068617665207375636365737366756C6C7920626F75676874206D6564 DUP6 DUP3 ADD MSTORE PUSH5 0x6963696E65 PUSH1 0xD8 SHL DUP9 DUP3 ADD MSTORE PUSH2 0x5A4 PUSH2 0x4D90 JUMP JUMPDEST PUSH1 0x11 SLOAD AND DUP6 MLOAD PUSH2 0x26AC DUP2 PUSH2 0x42A2 JUMP JUMPDEST PUSH1 0x33 DUP2 MSTORE PUSH32 0x5472616E73616374696F6E20636F6D706C657465642C206D61646963696E6520 DUP5 DUP3 ADD MSTORE PUSH19 0x626F75676874207375636365737366756C6C79 PUSH1 0x68 SHL DUP8 DUP3 ADD MSTORE PUSH2 0x627 PUSH2 0x4D90 JUMP JUMPDEST DUP4 MLOAD SWAP3 DUP4 MSTORE DUP3 ADD MSTORE LOG1 STOP JUMPDEST PUSH4 0x4E487B71 PUSH1 0xE0 SHL PUSH1 0x0 MSTORE PUSH1 0x0 PUSH1 0x4 MSTORE PUSH1 0x0 REVERT JUMPDEST DUP10 PUSH4 0x4E487B71 PUSH1 0xE0 SHL PUSH1 0x0 MSTORE PUSH1 0x41 PUSH1 0x4 MSTORE PUSH1 0x0 REVERT JUMPDEST DUP7 PUSH4 0x4E487B71 PUSH1 0xE0 SHL PUSH1 0x0 MSTORE PUSH1 0x41 PUSH1 0x4 MSTORE PUSH1 0x0 REVERT JUMPDEST DUP4 PUSH4 0x4E487B71 PUSH1 0xE0 SHL PUSH1 0x0 MSTORE PUSH1 0x11 PUSH1 0x4 MSTORE PUSH1 0x0 REVERT JUMPDEST PUSH1 0x40 MLOAD PUSH3 0x461BCD PUSH1 0xE5 SHL DUP2 MSTORE PUSH1 0x4 DUP2 ADD DUP7 SWAP1 MSTORE PUSH1 0x1C DUP2 DUP6 ADD MSTORE PUSH32 0x4E6F7420656E6F756768206D65646963696E6520696E2073746F636B00000000 PUSH1 0x44 DUP3 ADD MSTORE PUSH1 0x64 SWAP1 REVERT JUMPDEST PUSH1 0x40 MLOAD PUSH3 0x461BCD PUSH1 0xE5 SHL DUP2 MSTORE PUSH1 0x4 DUP2 ADD DUP7 SWAP1 MSTORE PUSH1 0x16 DUP2 DUP6 ADD MSTORE PUSH22 0x4D65646963696E65206973206E6F7420616374697665 PUSH1 0x50 SHL PUSH1 0x44 DUP3 ADD MSTORE PUSH1 0x64 SWAP1 REVERT JUMPDEST PUSH1 0x40 MLOAD PUSH3 0x461BCD PUSH1 0xE5 SHL DUP2 MSTORE PUSH1 0x4 DUP2 ADD DUP6 SWAP1 MSTORE PUSH1 0x27 DUP2 DUP5 ADD MSTORE PUSH32 0x4F6E6C79207468652070617469656E742063616E20627579207468656972206D PUSH1 0x44 DUP3 ADD MSTORE PUSH7 0x65646963696E65 PUSH1 0xC8 SHL PUSH1 0x64 DUP3 ADD MSTORE PUSH1 0x84 SWAP1 REVERT JUMPDEST CALLVALUE PUSH2 0x410 JUMPI PUSH1 0x0 CALLDATASIZE PUSH1 0x3 NOT ADD SLT PUSH2 0x410 JUMPI PUSH1 0x0 SLOAD PUSH2 0x2848 DUP2 PUSH2 0x4571 JUMP JUMPDEST SWAP1 PUSH2 0x2856 PUSH1 0x40 MLOAD SWAP3 DUP4 PUSH2 0x42BD JUMP JUMPDEST DUP1 DUP3 MSTORE PUSH1 0x0 DUP1 DUP1 MSTORE PUSH1 0x20 SWAP2 DUP3 DUP5 ADD SWAP2 PUSH32 0x290DECD9548B62A8D60345A988386FC84BA6BC95484008F6362F93160EF3E563 DUP4 JUMPDEST DUP4 DUP4 LT PUSH2 0x290B JUMPI POP POP POP POP PUSH1 0x40 MLOAD SWAP2 DUP1 DUP4 ADD SWAP4 DUP2 DUP5 MSTORE MLOAD DUP1 SWAP5 MSTORE PUSH1 0x40 DUP4 ADD SWAP4 PUSH1 0x40 DUP2 PUSH1 0x5 SHL DUP6 ADD ADD SWAP3 SWAP2 PUSH1 0x0 SWAP6 JUMPDEST DUP3 DUP8 LT PUSH2 0x28C3 JUMPI DUP6 DUP6 SUB DUP7 RETURN JUMPDEST SWAP1 SWAP2 SWAP3 SWAP4 DUP3 DUP1 PUSH1 0x1 SWAP3 PUSH1 0x3F NOT DUP10 DUP3 SUB ADD DUP6 MSTORE DUP8 MLOAD SWAP1 DUP3 PUSH2 0x28EC DUP4 MLOAD PUSH1 0x40 DUP5 MSTORE PUSH1 0x40 DUP5 ADD SWAP1 PUSH2 0x4384 JUMP JUMPDEST SWAP3 DUP2 DUP8 DUP1 PUSH1 0xA0 SHL SUB SWAP2 ADD MLOAD AND SWAP2 ADD MSTORE SWAP7 ADD SWAP3 ADD SWAP7 ADD SWAP6 SWAP3 SWAP2 SWAP1 SWAP3 PUSH2 0x28B6 JUMP JUMPDEST PUSH1 0x2 DUP7 PUSH1 0x1 SWAP3 PUSH1 0x40 SWAP10 SWAP9 SWAP10 MLOAD PUSH2 0x2920 DUP2 PUSH2 0x426C JUMP JUMPDEST PUSH2 0x2929 DUP7 PUSH2 0x42DE JUMP JUMPDEST DUP2 MSTORE DUP5 DUP1 PUSH1 0xA0 SHL SUB DUP6 DUP8 ADD SLOAD AND DUP4 DUP3 ADD MSTORE DUP2 MSTORE ADD SWAP3 ADD SWAP3 ADD SWAP2 SWAP1 SWAP6 SWAP5 SWAP6 PUSH2 0x2888 JUMP JUMPDEST CALLVALUE PUSH2 0x410 JUMPI PUSH1 0x20 DUP1 PUSH1 0x3 NOT CALLDATASIZE ADD SLT PUSH2 0x410 JUMPI PUSH1 0xF SLOAD PUSH1 0x1 SWAP2 PUSH1 0x4 CALLDATALOAD PUSH1 0x0 DUP5 JUMPDEST DUP5 DUP2 GT ISZERO PUSH2 0x2A1B JUMPI POP PUSH2 0x297C SWAP1 PUSH2 0x4E0C JUMP JUMPDEST SWAP4 PUSH1 0x0 SWAP2 DUP2 JUMPDEST DUP6 DUP2 GT ISZERO PUSH2 0x2998 JUMPI PUSH1 0x40 MLOAD DUP1 PUSH2 0x4AC DUP10 DUP3 PUSH2 0x474C JUMP JUMPDEST DUP1 PUSH1 0x0 MSTORE PUSH1 0x8 DUP6 MSTORE PUSH1 0x40 PUSH1 0x0 KECCAK256 PUSH1 0x2 DUP2 ADD SLOAD SWAP1 DUP4 DUP3 EQ PUSH2 0x29C3 JUMPI JUMPDEST POP POP PUSH2 0x29BE SWAP1 PUSH2 0x48BC JUMP JUMPDEST PUSH2 0x2982 JUMP JUMPDEST SWAP5 PUSH2 0x2A13 SWAP2 PUSH1 0x4 PUSH2 0x29BE SWAP5 SWAP8 PUSH1 0x40 MLOAD SWAP3 PUSH2 0x29DC DUP5 PUSH2 0x421A JUMP JUMPDEST DUP2 SLOAD DUP5 MSTORE DUP9 DUP3 ADD SLOAD DUP12 DUP6 ADD MSTORE PUSH1 0x40 DUP5 ADD MSTORE PUSH1 0x3 DUP2 ADD SLOAD PUSH1 0x60 DUP5 ADD MSTORE ADD SLOAD PUSH1 0x80 DUP3 ADD MSTORE PUSH2 0x2A08 DUP3 DUP12 PUSH2 0x4E5C JUMP JUMPDEST MSTORE PUSH2 0x1119 DUP2 DUP11 PUSH2 0x4E5C JUMP JUMPDEST SWAP4 SWAP1 DUP9 PUSH2 0x29B3 JUMP JUMPDEST DUP1 PUSH1 0x0 MSTORE PUSH1 0x8 DUP5 MSTORE DUP3 PUSH1 0x2 PUSH1 0x40 PUSH1 0x0 KECCAK256 ADD SLOAD EQ PUSH2 0x2A41 JUMPI JUMPDEST PUSH2 0x2A3C SWAP1 PUSH2 0x48BC JUMP JUMPDEST PUSH2 0x296A JUMP JUMPDEST SWAP1 PUSH2 0x2A4E PUSH2 0x2A3C SWAP2 PUSH2 0x48BC JUMP JUMPDEST SWAP2 SWAP1 POP PUSH2 0x2A33 JUMP JUMPDEST CALLVALUE PUSH2 0x410 JUMPI PUSH1 0x0 CALLDATASIZE PUSH1 0x3 NOT ADD SLT PUSH2 0x410 JUMPI PUSH1 0x20 PUSH1 0xD SLOAD PUSH1 0x40 MLOAD SWAP1 DUP2 MSTORE RETURN JUMPDEST CALLVALUE PUSH2 0x410 JUMPI PUSH1 0x0 CALLDATASIZE PUSH1 0x3 NOT ADD SLT PUSH2 0x410 JUMPI PUSH1 0xD SLOAD PUSH2 0x2A91 DUP2 PUSH2 0x508E JUMP JUMPDEST SWAP1 PUSH1 0x1 DUP1 PUSH1 0x0 JUMPDEST DUP4 DUP4 GT ISZERO PUSH2 0x2AAE JUMPI PUSH1 0x40 MLOAD DUP1 PUSH2 0x4AC DUP8 DUP3 PUSH2 0x46EA JUMP JUMPDEST PUSH2 0x111F PUSH2 0x2B23 SWAP2 DUP5 PUSH1 0x0 MSTORE PUSH1 0x20 PUSH1 0x6 DUP2 MSTORE PUSH1 0xFF PUSH1 0x5 PUSH1 0x40 PUSH1 0x0 KECCAK256 PUSH1 0x40 MLOAD SWAP4 PUSH2 0x2AD5 DUP6 PUSH2 0x4251 JUMP JUMPDEST DUP2 SLOAD DUP6 MSTORE PUSH2 0x2AE4 DUP10 DUP4 ADD PUSH2 0x42DE JUMP JUMPDEST SWAP1 DUP6 ADD MSTORE PUSH1 0x2 DUP2 ADD SLOAD PUSH1 0x1 PUSH1 0x1 PUSH1 0xA0 SHL SUB AND PUSH1 0x40 DUP6 ADD MSTORE PUSH1 0x3 DUP2 ADD SLOAD PUSH1 0x60 DUP6 ADD MSTORE PUSH1 0x4 DUP2 ADD SLOAD PUSH1 0x80 DUP6 ADD MSTORE ADD SLOAD AND ISZERO ISZERO PUSH1 0xA0 DUP3 ADD MSTORE PUSH2 0x110E DUP3 DUP10 PUSH2 0x4E5C JUMP JUMPDEST SWAP2 PUSH2 0x2A98 JUMP JUMPDEST CALLVALUE PUSH2 0x410 JUMPI PUSH1 0x20 CALLDATASIZE PUSH1 0x3 NOT ADD SLT PUSH2 0x410 JUMPI PUSH2 0x2B42 PUSH2 0x4E70 JUMP JUMPDEST POP PUSH1 0x4 CALLDATALOAD PUSH1 0x0 MSTORE PUSH1 0x7 PUSH1 0x20 MSTORE PUSH2 0x4AC PUSH1 0x40 PUSH1 0x0 KECCAK256 PUSH2 0x2B89 PUSH1 0x4 PUSH1 0x40 MLOAD SWAP3 PUSH2 0x2B68 DUP5 PUSH2 0x421A JUMP JUMPDEST DUP1 SLOAD DUP5 MSTORE PUSH2 0x2B78 PUSH1 0x1 DUP3 ADD PUSH2 0x42DE JUMP JUMPDEST PUSH1 0x20 DUP6 ADD MSTORE PUSH2 0x2438 PUSH1 0x2 DUP3 ADD PUSH2 0x4E9C JUMP JUMPDEST PUSH1 0x80 DUP3 ADD MSTORE PUSH1 0x40 MLOAD SWAP2 DUP3 SWAP2 PUSH1 0x20 DUP4 MSTORE PUSH1 0x20 DUP4 ADD SWAP1 PUSH2 0x463E JUMP JUMPDEST CALLVALUE PUSH2 0x410 JUMPI PUSH1 0x20 DUP1 PUSH1 0x3 NOT CALLDATASIZE ADD SLT PUSH2 0x410 JUMPI PUSH1 0x4 CALLDATALOAD PUSH2 0x2BC5 PUSH1 0xD SLOAD DUP3 GT ISZERO PUSH2 0x4BFA JUMP JUMPDEST PUSH1 0x10 SLOAD SWAP1 PUSH1 0x1 SWAP1 PUSH1 0x0 DUP3 JUMPDEST DUP5 DUP2 GT ISZERO PUSH2 0x2CD5 JUMPI POP PUSH2 0x2BE2 SWAP1 PUSH2 0x500C JUMP JUMPDEST SWAP4 PUSH1 0x0 SWAP2 DUP4 JUMPDEST DUP6 DUP2 GT ISZERO PUSH2 0x2BFE JUMPI PUSH1 0x40 MLOAD DUP1 PUSH2 0x4AC DUP10 DUP3 PUSH2 0x450F JUMP JUMPDEST DUP1 PUSH1 0x0 MSTORE PUSH1 0x9 DUP1 DUP5 MSTORE PUSH1 0x40 PUSH1 0x0 KECCAK256 SWAP1 PUSH1 0x2 DUP3 ADD SLOAD SWAP2 DUP5 DUP4 EQ PUSH2 0x2C2C JUMPI JUMPDEST POP POP POP PUSH2 0x2C27 SWAP1 PUSH2 0x48BC JUMP JUMPDEST PUSH2 0x2BE8 JUMP JUMPDEST SWAP2 PUSH1 0xFF PUSH2 0x2C27 SWAP5 SWAP8 SWAP3 PUSH2 0x2CCC SWAP5 PUSH1 0x40 MLOAD SWAP4 PUSH2 0x2C46 DUP6 PUSH2 0x4235 JUMP JUMPDEST DUP2 SLOAD DUP6 MSTORE DUP12 DUP3 ADD SLOAD DUP11 DUP7 ADD MSTORE PUSH1 0x40 DUP6 ADD MSTORE PUSH1 0x3 DUP2 ADD SLOAD PUSH1 0x60 DUP6 ADD MSTORE PUSH2 0x2C6D PUSH1 0x4 DUP3 ADD PUSH2 0x42DE JUMP JUMPDEST PUSH1 0x80 DUP6 ADD MSTORE PUSH2 0x2C7E PUSH1 0x5 DUP3 ADD PUSH2 0x42DE JUMP JUMPDEST PUSH1 0xA0 DUP6 ADD MSTORE PUSH2 0x2C8F PUSH1 0x6 DUP3 ADD PUSH2 0x42DE JUMP JUMPDEST PUSH1 0xC0 DUP6 ADD MSTORE PUSH2 0x2CA0 PUSH1 0x7 DUP3 ADD PUSH2 0x42DE JUMP JUMPDEST PUSH1 0xE0 DUP6 ADD MSTORE PUSH2 0x2CB1 PUSH1 0x8 DUP3 ADD PUSH2 0x42DE JUMP JUMPDEST PUSH2 0x100 DUP6 ADD MSTORE ADD SLOAD AND ISZERO ISZERO PUSH2 0x120 DUP3 ADD MSTORE PUSH2 0x2A08 DUP3 DUP12 PUSH2 0x4E5C JUMP JUMPDEST SWAP4 SWAP1 DUP9 DUP1 PUSH2 0x2C1B JUMP JUMPDEST DUP1 PUSH1 0x0 MSTORE PUSH1 0x9 DUP7 MSTORE DUP3 PUSH1 0x2 PUSH1 0x40 PUSH1 0x0 KECCAK256 ADD SLOAD EQ PUSH2 0x2CFB JUMPI JUMPDEST PUSH2 0x2CF6 SWAP1 PUSH2 0x48BC JUMP JUMPDEST PUSH2 0x2BD0 JUMP JUMPDEST SWAP1 PUSH2 0x2D08 PUSH2 0x2CF6 SWAP2 PUSH2 0x48BC JUMP JUMPDEST SWAP2 SWAP1 POP PUSH2 0x2CED JUMP JUMPDEST CALLVALUE PUSH2 0x410 JUMPI PUSH1 0x20 CALLDATASIZE PUSH1 0x3 NOT ADD SLT PUSH2 0x410 JUMPI PUSH1 0x4 CALLDATALOAD PUSH1 0x0 MSTORE PUSH1 0x6 PUSH1 0x20 MSTORE PUSH1 0x40 PUSH1 0x0 KECCAK256 DUP1 SLOAD PUSH2 0x2D3F PUSH1 0x1 DUP4 ADD PUSH2 0x42DE JUMP JUMPDEST SWAP2 PUSH1 0x1 DUP1 PUSH1 0xA0 SHL SUB PUSH1 0x2 DUP3 ADD SLOAD AND SWAP1 PUSH1 0x3 DUP2 ADD SLOAD SWAP1 PUSH1 0xFF PUSH1 0x5 PUSH1 0x4 DUP4 ADD SLOAD SWAP3 ADD SLOAD AND SWAP2 PUSH2 0x2D7E PUSH1 0x40 MLOAD SWAP7 DUP8 SWAP7 DUP8 MSTORE PUSH1 0xC0 PUSH1 0x20 DUP9 ADD MSTORE PUSH1 0xC0 DUP8 ADD SWAP1 PUSH2 0x4384 JUMP JUMPDEST SWAP4 PUSH1 0x40 DUP7 ADD MSTORE PUSH1 0x60 DUP6 ADD MSTORE PUSH1 0x80 DUP5 ADD MSTORE ISZERO ISZERO PUSH1 0xA0 DUP4 ADD MSTORE SUB SWAP1 RETURN JUMPDEST CALLVALUE PUSH2 0x410 JUMPI PUSH1 0x20 CALLDATASIZE PUSH1 0x3 NOT ADD SLT PUSH2 0x410 JUMPI PUSH1 0x4 CALLDATALOAD PUSH2 0x2DBB PUSH1 0xE SLOAD DUP3 GT ISZERO PUSH2 0x4CA2 JUMP JUMPDEST PUSH1 0x0 MSTORE PUSH1 0x7 PUSH1 0x20 MSTORE PUSH2 0x4AC PUSH2 0x2DD6 PUSH1 0x4 PUSH1 0x40 PUSH1 0x0 KECCAK256 ADD PUSH2 0x4EF1 JUMP JUMPDEST PUSH1 0x40 MLOAD SWAP2 DUP3 SWAP2 PUSH1 0x20 DUP4 MSTORE PUSH1 0x20 DUP4 ADD SWAP1 PUSH2 0x45B5 JUMP JUMPDEST PUSH2 0x100 CALLDATASIZE PUSH1 0x3 NOT ADD SLT PUSH2 0x410 JUMPI PUSH1 0x4 CALLDATALOAD PUSH1 0x1 PUSH1 0x1 PUSH1 0x40 SHL SUB DUP2 GT PUSH2 0x410 JUMPI PUSH2 0x2E16 SWAP1 CALLDATASIZE SWAP1 PUSH1 0x4 ADD PUSH2 0x4420 JUMP JUMPDEST PUSH1 0x24 CALLDATALOAD SWAP1 PUSH1 0x1 PUSH1 0x1 PUSH1 0x40 SHL SUB DUP3 GT PUSH2 0x410 JUMPI CALLDATASIZE PUSH1 0x23 DUP4 ADD SLT ISZERO PUSH2 0x410 JUMPI DUP2 PUSH1 0x4 ADD CALLDATALOAD PUSH2 0x2E41 DUP2 PUSH2 0x4571 JUMP JUMPDEST SWAP3 PUSH2 0x2E4F PUSH1 0x40 MLOAD SWAP5 DUP6 PUSH2 0x42BD JUMP JUMPDEST DUP2 DUP5 MSTORE PUSH1 0x24 PUSH1 0x20 DUP6 ADD SWAP3 PUSH1 0x5 SHL DUP3 ADD ADD SWAP1 CALLDATASIZE DUP3 GT PUSH2 0x410 JUMPI PUSH1 0x24 DUP2 ADD SWAP3 JUMPDEST DUP3 DUP5 LT PUSH2 0x3340 JUMPI DUP6 DUP6 PUSH1 0x44 CALLDATALOAD PUSH1 0x1 PUSH1 0x1 PUSH1 0xA0 SHL SUB DUP2 AND SWAP1 SUB PUSH2 0x410 JUMPI PUSH1 0x64 CALLDATALOAD SWAP2 PUSH1 0x1 PUSH1 0x1 PUSH1 0x40 SHL SUB DUP4 GT PUSH2 0x410 JUMPI CALLDATASIZE PUSH1 0x23 DUP5 ADD SLT ISZERO PUSH2 0x410 JUMPI DUP3 PUSH1 0x4 ADD CALLDATALOAD SWAP3 PUSH2 0x2EB5 DUP5 PUSH2 0x4571 JUMP JUMPDEST SWAP4 PUSH2 0x2EC3 PUSH1 0x40 MLOAD SWAP6 DUP7 PUSH2 0x42BD JUMP JUMPDEST DUP1 DUP6 MSTORE PUSH1 0x24 PUSH1 0x20 DUP7 ADD SWAP2 PUSH1 0x5 SHL DUP4 ADD ADD SWAP2 CALLDATASIZE DUP4 GT PUSH2 0x410 JUMPI PUSH1 0x24 ADD SWAP1 JUMPDEST DUP3 DUP3 LT PUSH2 0x3330 JUMPI POP POP POP PUSH1 0x84 CALLDATALOAD PUSH1 0x1 PUSH1 0x1 PUSH1 0x40 SHL SUB DUP2 GT PUSH2 0x410 JUMPI PUSH2 0x2F09 SWAP1 CALLDATASIZE SWAP1 PUSH1 0x4 ADD PUSH2 0x4588 JUMP JUMPDEST PUSH1 0xA4 CALLDATALOAD PUSH1 0x1 PUSH1 0x1 PUSH1 0xA0 SHL SUB DUP2 AND SWAP1 SUB PUSH2 0x410 JUMPI PUSH1 0xC4 CALLDATALOAD PUSH1 0x1 PUSH1 0x1 PUSH1 0x40 SHL SUB DUP2 GT PUSH2 0x410 JUMPI PUSH2 0x2F3B SWAP1 CALLDATASIZE SWAP1 PUSH1 0x4 ADD PUSH2 0x4588 JUMP JUMPDEST SWAP1 SWAP2 PUSH1 0xE4 CALLDATALOAD PUSH1 0x1 PUSH1 0x1 PUSH1 0x40 SHL SUB DUP2 GT PUSH2 0x410 JUMPI PUSH2 0x2F5C SWAP1 CALLDATASIZE SWAP1 PUSH1 0x4 ADD PUSH2 0x4420 JUMP JUMPDEST SWAP7 PUSH2 0x2F6A PUSH1 0x13 SLOAD CALLVALUE EQ PUSH2 0x4B8C JUMP JUMPDEST PUSH1 0x44 CALLDATALOAD PUSH1 0x1 PUSH1 0x1 PUSH1 0xA0 SHL SUB AND PUSH1 0x0 SWAP1 DUP2 MSTORE PUSH1 0xB PUSH1 0x20 MSTORE PUSH1 0x40 SWAP1 KECCAK256 SLOAD PUSH1 0xFF AND PUSH2 0x32EB JUMPI PUSH2 0x2F97 PUSH1 0xE SLOAD PUSH2 0x48BC JUMP JUMPDEST SWAP1 DUP2 PUSH1 0xE SSTORE PUSH1 0x40 MLOAD SWAP1 PUSH2 0x2FA9 DUP3 PUSH2 0x421A JUMP JUMPDEST DUP3 DUP3 MSTORE PUSH1 0x20 DUP3 ADD SWAP3 DUP10 DUP5 MSTORE PUSH1 0x40 DUP4 ADD SWAP2 DUP10 DUP4 MSTORE PUSH1 0x1 DUP1 PUSH1 0xA0 SHL SUB PUSH1 0x44 CALLDATALOAD AND PUSH1 0x60 DUP6 ADD MSTORE PUSH1 0x80 DUP5 ADD MSTORE PUSH1 0x0 MSTORE PUSH1 0x7 PUSH1 0x20 MSTORE PUSH2 0x2FF0 PUSH1 0x40 PUSH1 0x0 KECCAK256 SWAP4 DUP4 MLOAD DUP6 SSTORE MLOAD PUSH1 0x1 DUP6 ADD PUSH2 0x4927 JUMP JUMPDEST MLOAD DUP1 MLOAD SWAP1 PUSH1 0x1 PUSH1 0x40 SHL DUP3 GT PUSH2 0xB1B JUMPI PUSH1 0x2 DUP5 ADD SLOAD DUP3 PUSH1 0x2 DUP7 ADD SSTORE DUP1 DUP4 LT PUSH2 0x3272 JUMPI JUMPDEST POP PUSH1 0x20 ADD PUSH1 0x2 DUP5 ADD PUSH1 0x0 MSTORE PUSH1 0x20 PUSH1 0x0 KECCAK256 PUSH1 0x0 SWAP2 JUMPDEST DUP4 DUP4 LT PUSH2 0x3255 JUMPI POP POP POP PUSH1 0x60 DUP3 ADD MLOAD PUSH1 0x3 DUP5 ADD DUP1 SLOAD PUSH1 0x1 PUSH1 0x1 PUSH1 0xA0 SHL SUB NOT AND PUSH1 0x1 PUSH1 0x1 PUSH1 0xA0 SHL SUB SWAP3 SWAP1 SWAP3 AND SWAP2 SWAP1 SWAP2 OR SWAP1 SSTORE POP PUSH1 0x80 ADD MLOAD DUP1 MLOAD SWAP2 SWAP1 PUSH1 0x1 PUSH1 0x1 PUSH1 0x40 SHL SUB DUP4 GT PUSH2 0xB1B JUMPI PUSH1 0x1 PUSH1 0x40 SHL DUP4 GT PUSH2 0xB1B JUMPI PUSH1 0x20 PUSH1 0x4 SWAP2 DUP3 DUP5 ADD SLOAD DUP6 DUP5 DUP7 ADD SSTORE DUP1 DUP7 LT PUSH2 0x3236 JUMPI JUMPDEST POP ADD SWAP2 ADD PUSH1 0x0 MSTORE PUSH1 0x20 PUSH1 0x0 KECCAK256 PUSH1 0x0 JUMPDEST DUP4 DUP2 LT PUSH2 0x3222 JUMPI POP POP POP POP PUSH1 0x44 CALLDATALOAD PUSH1 0x1 PUSH1 0x1 PUSH1 0xA0 SHL SUB SWAP1 DUP2 AND PUSH1 0x0 SWAP1 DUP2 MSTORE PUSH1 0xB PUSH1 0x20 MSTORE PUSH1 0x40 DUP2 KECCAK256 DUP1 SLOAD PUSH1 0xFF NOT AND PUSH1 0x1 OR SWAP1 SSTORE PUSH1 0x11 SLOAD SWAP1 SWAP2 DUP3 SWAP2 DUP3 SWAP2 DUP3 SWAP2 DUP3 SWAP2 AND CALLVALUE ISZERO PUSH2 0x3218 JUMPI JUMPDEST CALLVALUE SWAP2 CALL ISZERO PUSH2 0xF65 JUMPI PUSH32 0xC66C47C46A9613CB876EF0205CA8C4597EB05703969F8458F4A762107E865DC2 SWAP7 PUSH2 0x312C SWAP5 PUSH2 0x3120 SWAP3 PUSH1 0x44 CALLDATALOAD SWAP2 PUSH2 0x51D2 JUMP JUMPDEST PUSH1 0x44 CALLDATALOAD SWAP2 PUSH1 0xA4 CALLDATALOAD PUSH2 0x554D JUMP JUMPDEST PUSH2 0x318B PUSH1 0x40 MLOAD PUSH2 0x313B DUP2 PUSH2 0x42A2 JUMP JUMPDEST PUSH1 0x2C DUP2 MSTORE PUSH32 0x596F752068617665207375636365737366756C6C7920636F6D706C6574656420 PUSH1 0x20 DUP3 ADD MSTORE PUSH12 0x3932B3B4B9BA3930BA34B7B7 PUSH1 0xA1 SHL PUSH1 0x40 DUP3 ADD MSTORE PUSH2 0x3182 PUSH2 0x4D90 JUMP JUMPDEST SWAP1 PUSH1 0x44 CALLDATALOAD PUSH2 0x4A12 JUMP JUMPDEST PUSH1 0x11 SLOAD PUSH1 0x40 MLOAD PUSH2 0x31E7 SWAP2 PUSH1 0x1 PUSH1 0x1 PUSH1 0xA0 SHL SUB AND SWAP1 PUSH2 0x31A8 DUP2 PUSH2 0x42A2 JUMP JUMPDEST PUSH1 0x24 DUP2 MSTORE PUSH32 0x4E65772050617469656E74206973207265676973746F72207375636365737366 PUSH1 0x20 DUP3 ADD MSTORE PUSH4 0x756C6C79 PUSH1 0xE0 SHL PUSH1 0x40 DUP3 ADD MSTORE PUSH2 0x627 PUSH2 0x4D90 JUMP JUMPDEST PUSH2 0x7BE PUSH1 0xE SLOAD SWAP2 PUSH2 0x320A PUSH1 0x40 MLOAD SWAP5 DUP6 SWAP5 DUP6 MSTORE PUSH1 0x60 PUSH1 0x20 DUP7 ADD MSTORE PUSH1 0x60 DUP6 ADD SWAP1 PUSH2 0x4384 JUMP JUMPDEST SWAP1 DUP4 DUP3 SUB PUSH1 0x40 DUP6 ADD MSTORE PUSH2 0x45E9 JUMP JUMPDEST PUSH2 0x8FC SWAP2 POP PUSH2 0x30E5 JUMP JUMPDEST PUSH1 0x1 SWAP1 PUSH1 0x20 DUP5 MLOAD SWAP5 ADD SWAP4 DUP2 DUP5 ADD SSTORE ADD PUSH2 0x309E JUMP JUMPDEST PUSH2 0x324F SWAP1 DUP5 DUP7 ADD PUSH1 0x0 MSTORE DUP7 DUP5 PUSH1 0x0 KECCAK256 SWAP2 DUP3 ADD SWAP2 ADD PUSH2 0x48CB JUMP JUMPDEST DUP13 PUSH2 0x308F JUMP JUMPDEST PUSH1 0x1 PUSH1 0x20 DUP3 PUSH2 0x3266 DUP4 SWAP5 MLOAD DUP7 PUSH2 0x4927 JUMP JUMPDEST ADD SWAP3 ADD SWAP3 ADD SWAP2 SWAP1 PUSH2 0x3026 JUMP JUMPDEST PUSH1 0x2 DUP6 ADD PUSH1 0x0 MSTORE PUSH1 0x20 PUSH1 0x0 KECCAK256 SWAP1 DUP4 DUP3 ADD JUMPDEST DUP2 DUP4 ADD DUP2 LT PUSH2 0x3293 JUMPI POP POP PUSH2 0x3012 JUMP JUMPDEST DUP1 PUSH2 0x32A0 PUSH1 0x1 SWAP3 SLOAD PUSH2 0x41E0 JUMP JUMPDEST DUP1 PUSH2 0x32AD JUMPI JUMPDEST POP ADD PUSH2 0x3283 JUMP JUMPDEST PUSH1 0x1F SWAP1 DUP2 DUP2 GT DUP5 EQ PUSH2 0x32C6 JUMPI POP POP PUSH1 0x0 DUP2 SSTORE JUMPDEST DUP16 PUSH2 0x32A6 JUMP JUMPDEST PUSH2 0x32E2 PUSH1 0x0 SWAP3 DUP5 DUP5 MSTORE PUSH1 0x20 DUP5 KECCAK256 SWAP3 ADD PUSH1 0x5 SHR DUP3 ADD DUP6 DUP4 ADD PUSH2 0x48CB JUMP JUMPDEST DUP2 DUP4 SSTORE SSTORE PUSH2 0x32C0 JUMP JUMPDEST PUSH1 0x40 MLOAD PUSH3 0x461BCD PUSH1 0xE5 SHL DUP2 MSTORE PUSH1 0x20 PUSH1 0x4 DUP3 ADD MSTORE PUSH1 0x1D PUSH1 0x24 DUP3 ADD MSTORE PUSH32 0x50617469656E7420697320616C72656164792072656769737465726564000000 PUSH1 0x44 DUP3 ADD MSTORE PUSH1 0x64 SWAP1 REVERT JUMPDEST DUP2 CALLDATALOAD DUP2 MSTORE PUSH1 0x20 SWAP2 DUP3 ADD SWAP2 ADD PUSH2 0x2EE0 JUMP JUMPDEST DUP4 CALLDATALOAD PUSH1 0x1 PUSH1 0x1 PUSH1 0x40 SHL SUB DUP2 GT PUSH2 0x410 JUMPI PUSH1 0x20 SWAP2 PUSH2 0x3364 DUP4 SWAP3 PUSH1 0x24 CALLDATASIZE SWAP2 DUP8 ADD ADD PUSH2 0x4420 JUMP JUMPDEST DUP2 MSTORE ADD SWAP4 ADD SWAP3 PUSH2 0x2E6D JUMP JUMPDEST CALLVALUE PUSH2 0x410 JUMPI PUSH1 0x20 DUP1 PUSH1 0x3 NOT CALLDATASIZE ADD SLT PUSH2 0x410 JUMPI PUSH1 0x4 CALLDATALOAD PUSH2 0x3392 PUSH1 0xE SLOAD DUP3 GT ISZERO PUSH2 0x4CA2 JUMP JUMPDEST PUSH1 0x0 MSTORE PUSH1 0x4 DUP2 MSTORE PUSH1 0x40 PUSH1 0x0 KECCAK256 SWAP1 DUP2 SLOAD PUSH2 0x33AA DUP2 PUSH2 0x4571 JUMP JUMPDEST SWAP1 PUSH2 0x33B8 PUSH1 0x40 MLOAD SWAP3 DUP4 PUSH2 0x42BD JUMP JUMPDEST DUP1 DUP3 MSTORE DUP3 DUP3 ADD DUP1 SWAP5 PUSH1 0x0 MSTORE DUP4 PUSH1 0x0 KECCAK256 PUSH1 0x0 SWAP2 JUMPDEST DUP4 DUP4 LT PUSH2 0x343F JUMPI PUSH1 0x40 DUP1 MLOAD DUP8 DUP2 MSTORE DUP7 MLOAD DUP2 DUP10 ADD DUP2 SWAP1 MSTORE DUP10 SWAP3 DUP3 ADD SWAP1 DUP10 PUSH1 0x0 JUMPDEST DUP3 DUP2 LT PUSH2 0x33F7 JUMPI DUP5 DUP5 SUB DUP6 RETURN JUMPDEST DUP6 MLOAD DUP1 MLOAD DUP6 MSTORE DUP1 DUP4 ADD MLOAD DUP6 DUP5 ADD MSTORE PUSH1 0x40 DUP1 DUP3 ADD MLOAD SWAP1 DUP7 ADD MSTORE PUSH1 0x60 DUP1 DUP3 ADD MLOAD SWAP1 DUP7 ADD MSTORE PUSH1 0x80 DUP1 DUP3 ADD MLOAD SWAP1 DUP7 ADD MSTORE PUSH1 0xA0 SWAP1 DUP2 ADD MLOAD SWAP1 DUP6 ADD MSTORE SWAP5 DUP2 ADD SWAP5 PUSH1 0xC0 SWAP1 SWAP4 ADD SWAP3 PUSH1 0x1 ADD PUSH2 0x33EA JUMP JUMPDEST PUSH1 0x6 DUP7 PUSH1 0x1 SWAP3 PUSH1 0x40 MLOAD PUSH2 0x3451 DUP2 PUSH2 0x4251 JUMP JUMPDEST DUP6 SLOAD DUP2 MSTORE DUP5 DUP7 ADD SLOAD DUP4 DUP3 ADD MSTORE PUSH1 0x2 DUP7 ADD SLOAD PUSH1 0x40 DUP3 ADD MSTORE PUSH1 0x3 DUP7 ADD SLOAD PUSH1 0x60 DUP3 ADD MSTORE PUSH1 0x4 DUP7 ADD SLOAD PUSH1 0x80 DUP3 ADD MSTORE PUSH1 0x5 DUP7 ADD SLOAD PUSH1 0xA0 DUP3 ADD MSTORE DUP2 MSTORE ADD SWAP3 ADD SWAP3 ADD SWAP2 SWAP1 PUSH2 0x33CB JUMP JUMPDEST CALLVALUE PUSH2 0x410 JUMPI PUSH1 0x20 DUP1 PUSH1 0x3 NOT CALLDATASIZE ADD SLT PUSH2 0x410 JUMPI PUSH1 0x4 CALLDATALOAD PUSH1 0x1 DUP1 PUSH1 0xA0 SHL SUB PUSH2 0x34BE DUP2 PUSH1 0x11 SLOAD AND CALLER EQ PUSH2 0x4865 JUMP JUMPDEST PUSH2 0x34CC PUSH1 0xD SLOAD DUP4 GT ISZERO PUSH2 0x4BFA JUMP JUMPDEST DUP2 PUSH1 0x0 MSTORE PUSH1 0x6 DUP4 MSTORE PUSH1 0xFF PUSH1 0x5 PUSH1 0x40 PUSH1 0x0 KECCAK256 ADD SLOAD AND PUSH2 0x35FA JUMPI PUSH32 0xFB071D6299BD71490CB62D5CE7358D7D43AB700C9B4A8BFF1F869D2D52C0F117 SWAP3 PUSH2 0x35D0 PUSH1 0x6 SWAP3 DUP5 PUSH1 0x0 MSTORE DUP4 DUP4 MSTORE PUSH2 0x3534 PUSH1 0x5 PUSH1 0x40 PUSH1 0x0 KECCAK256 ADD PUSH1 0xFF DUP2 SLOAD AND ISZERO PUSH1 0xFF DUP1 NOT DUP4 SLOAD AND SWAP2 ISZERO ISZERO AND OR SWAP1 SSTORE JUMP JUMPDEST PUSH2 0x3582 PUSH1 0x40 MLOAD PUSH2 0x3543 DUP2 PUSH2 0x42A2 JUMP JUMPDEST PUSH1 0x25 DUP2 MSTORE PUSH32 0x596F75206861766520617070726F76656420446F636F74722072656769737472 DUP6 DUP3 ADD MSTORE PUSH5 0x30BA34B7B7 PUSH1 0xD9 SHL PUSH1 0x40 DUP3 ADD MSTORE PUSH2 0x5A4 PUSH2 0x4BD8 JUMP JUMPDEST DUP5 PUSH1 0x0 MSTORE DUP4 DUP4 MSTORE PUSH1 0x2 PUSH1 0x40 PUSH1 0x0 KECCAK256 ADD SLOAD AND PUSH1 0x40 MLOAD PUSH2 0x359F DUP2 PUSH2 0x426C JUMP JUMPDEST PUSH1 0x1D DUP2 MSTORE PUSH32 0x596F757220726567697374726174696F6E20697320617070726F766564000000 DUP5 DUP3 ADD MSTORE PUSH2 0x627 PUSH2 0x4BD8 JUMP JUMPDEST PUSH1 0x0 DUP4 DUP2 MSTORE SWAP2 SWAP1 MSTORE PUSH1 0x40 SWAP1 DUP2 SWAP1 KECCAK256 PUSH1 0x5 ADD SLOAD DUP2 MLOAD SWAP3 DUP4 MSTORE PUSH1 0xFF AND ISZERO ISZERO PUSH1 0x20 DUP4 ADD MSTORE DUP2 SWAP1 DUP2 ADD PUSH2 0x7BE JUMP JUMPDEST PUSH1 0x40 MLOAD PUSH3 0x461BCD PUSH1 0xE5 SHL DUP2 MSTORE PUSH1 0x4 DUP2 ADD DUP5 SWAP1 MSTORE PUSH1 0x1A PUSH1 0x24 DUP3 ADD MSTORE PUSH32 0x446F63746F7220697320616C726561647920617070726F766564000000000000 PUSH1 0x44 DUP3 ADD MSTORE PUSH1 0x64 SWAP1 REVERT JUMPDEST CALLVALUE PUSH2 0x410 JUMPI PUSH1 0x20 DUP1 PUSH1 0x3 NOT CALLDATASIZE ADD SLT PUSH2 0x410 JUMPI PUSH1 0x4 CALLDATALOAD PUSH2 0x3662 PUSH1 0xE SLOAD DUP3 GT ISZERO PUSH2 0x4CA2 JUMP JUMPDEST PUSH1 0x10 SLOAD SWAP1 PUSH1 0x0 PUSH1 0x1 JUMPDEST DUP4 DUP2 GT ISZERO PUSH2 0x377D JUMPI POP PUSH2 0x367D SWAP1 PUSH2 0x500C JUMP JUMPDEST SWAP3 PUSH1 0x0 SWAP1 PUSH1 0x1 JUMPDEST DUP5 DUP2 GT ISZERO PUSH2 0x369A JUMPI PUSH1 0x40 MLOAD DUP1 PUSH2 0x4AC DUP9 DUP3 PUSH2 0x450F JUMP JUMPDEST DUP1 PUSH1 0x0 MSTORE PUSH1 0x9 DUP1 DUP4 MSTORE PUSH1 0x40 PUSH1 0x0 KECCAK256 SWAP1 PUSH1 0x1 DUP3 ADD SLOAD SWAP2 DUP7 DUP4 EQ PUSH2 0x36C8 JUMPI JUMPDEST POP POP POP PUSH2 0x36C3 SWAP1 PUSH2 0x48BC JUMP JUMPDEST PUSH2 0x3684 JUMP JUMPDEST SWAP2 PUSH1 0xFF PUSH2 0x36C3 SWAP5 SWAP7 SWAP3 PUSH2 0x3774 SWAP5 PUSH1 0x40 MLOAD SWAP4 PUSH2 0x36E2 DUP6 PUSH2 0x4235 JUMP JUMPDEST DUP2 SLOAD DUP6 MSTORE DUP9 DUP6 ADD MSTORE PUSH1 0x2 DUP2 ADD SLOAD PUSH1 0x40 DUP6 ADD MSTORE PUSH1 0x3 DUP2 ADD SLOAD PUSH1 0x60 DUP6 ADD MSTORE PUSH2 0x370A PUSH1 0x4 DUP3 ADD PUSH2 0x42DE JUMP JUMPDEST PUSH1 0x80 DUP6 ADD MSTORE PUSH2 0x371B PUSH1 0x5 DUP3 ADD PUSH2 0x42DE JUMP JUMPDEST PUSH1 0xA0 DUP6 ADD MSTORE PUSH2 0x372C PUSH1 0x6 DUP3 ADD PUSH2 0x42DE JUMP JUMPDEST PUSH1 0xC0 DUP6 ADD MSTORE PUSH2 0x373D PUSH1 0x7 DUP3 ADD PUSH2 0x42DE JUMP JUMPDEST PUSH1 0xE0 DUP6 ADD MSTORE PUSH2 0x374E PUSH1 0x8 DUP3 ADD PUSH2 0x42DE JUMP JUMPDEST PUSH2 0x100 DUP6 ADD MSTORE ADD SLOAD AND ISZERO ISZERO PUSH2 0x120 DUP3 ADD MSTORE PUSH2 0x3769 DUP3 DUP11 PUSH2 0x4E5C JUMP JUMPDEST MSTORE PUSH2 0x1119 DUP2 DUP10 PUSH2 0x4E5C JUMP JUMPDEST SWAP3 SWAP1 DUP8 DUP1 PUSH2 0x36B7 JUMP JUMPDEST DUP1 PUSH1 0x0 MSTORE PUSH1 0x9 DUP6 MSTORE DUP3 PUSH1 0x1 PUSH1 0x40 PUSH1 0x0 KECCAK256 ADD SLOAD EQ PUSH2 0x37A3 JUMPI JUMPDEST PUSH2 0x379E SWAP1 PUSH2 0x48BC JUMP JUMPDEST PUSH2 0x366B JUMP JUMPDEST SWAP1 PUSH2 0x37B0 PUSH2 0x379E SWAP2 PUSH2 0x48BC JUMP JUMPDEST SWAP2 SWAP1 POP PUSH2 0x3795 JUMP JUMPDEST CALLVALUE PUSH2 0x410 JUMPI PUSH1 0x0 CALLDATASIZE PUSH1 0x3 NOT ADD SLT PUSH2 0x410 JUMPI PUSH1 0x20 PUSH1 0x13 SLOAD PUSH1 0x40 MLOAD SWAP1 DUP2 MSTORE RETURN JUMPDEST CALLVALUE PUSH2 0x410 JUMPI PUSH1 0x0 CALLDATASIZE PUSH1 0x3 NOT ADD SLT PUSH2 0x410 JUMPI PUSH1 0x20 PUSH1 0xC SLOAD PUSH1 0x40 MLOAD SWAP1 DUP2 MSTORE RETURN JUMPDEST CALLVALUE PUSH2 0x410 JUMPI PUSH1 0x20 CALLDATASIZE PUSH1 0x3 NOT ADD SLT PUSH2 0x410 JUMPI PUSH1 0x1 PUSH1 0x1 PUSH1 0xA0 SHL SUB PUSH2 0x3815 PUSH2 0x41B4 JUMP JUMPDEST AND PUSH1 0x0 MSTORE PUSH1 0xA PUSH1 0x20 MSTORE PUSH1 0x20 PUSH1 0xFF PUSH1 0x40 PUSH1 0x0 KECCAK256 SLOAD AND PUSH1 0x40 MLOAD SWAP1 ISZERO ISZERO DUP2 MSTORE RETURN JUMPDEST CALLVALUE PUSH2 0x410 JUMPI PUSH32 0x72C1DAF6E13CE6CA90B14E03629096AD6D0DB94B6CFFDCE97E62CF5008AB1FD4 PUSH1 0x40 PUSH2 0x3864 CALLDATASIZE PUSH2 0x43C4 JUMP JUMPDEST PUSH2 0x3879 PUSH1 0x1 DUP1 PUSH1 0xA0 SHL SUB PUSH1 0x11 SLOAD AND CALLER EQ PUSH2 0x4865 JUMP JUMPDEST PUSH2 0x3887 PUSH1 0xC SLOAD DUP4 GT ISZERO PUSH2 0x4B40 JUMP JUMPDEST DUP2 PUSH1 0x0 MSTORE PUSH1 0x5 PUSH1 0x20 MSTORE DUP1 PUSH1 0x2 DUP5 PUSH1 0x0 KECCAK256 ADD SSTORE PUSH2 0x17B0 DUP4 MLOAD PUSH2 0x38A7 DUP2 PUSH2 0x42A2 JUMP JUMPDEST PUSH1 0x23 DUP2 MSTORE PUSH32 0x4D65646963696E65207072696365207570646174656420737563636573736675 PUSH1 0x20 DUP3 ADD MSTORE PUSH3 0x6C6C79 PUSH1 0xE8 SHL DUP6 DUP3 ADD MSTORE PUSH2 0x5A4 PUSH2 0x49EE JUMP JUMPDEST CALLVALUE PUSH2 0x410 JUMPI PUSH2 0x681 PUSH2 0x38F5 CALLDATASIZE PUSH2 0x43C4 JUMP JUMPDEST CALLER PUSH1 0x0 MSTORE PUSH32 0x90D667BFA211B72F96ED398BBCFAE5988D97E3A4C929A0F5D46888F6899D77A0 DUP2 PUSH1 0x20 SWAP4 PUSH1 0xA DUP6 MSTORE PUSH2 0x3933 PUSH1 0xFF PUSH1 0x40 PUSH1 0x0 KECCAK256 SLOAD AND PUSH2 0x4C3E JUMP JUMPDEST PUSH2 0x393C CALLER PUSH2 0x50DE JUMP JUMPDEST PUSH1 0x0 MSTORE PUSH1 0x6 DUP6 MSTORE PUSH2 0x3957 PUSH1 0xFF PUSH1 0x5 PUSH1 0x40 PUSH1 0x0 KECCAK256 ADD SLOAD AND PUSH2 0x4D4B JUMP JUMPDEST PUSH2 0x3962 PUSH1 0xF SLOAD PUSH2 0x48BC JUMP JUMPDEST DUP1 PUSH1 0xF SSTORE PUSH1 0x4 PUSH2 0x3971 CALLER PUSH2 0x50DE JUMP JUMPDEST SWAP2 PUSH1 0x40 MLOAD SWAP3 PUSH2 0x397F DUP5 PUSH2 0x421A JUMP JUMPDEST DUP2 DUP5 MSTORE DUP9 DUP5 ADD DUP6 DUP2 MSTORE PUSH1 0x40 DUP6 ADD SWAP1 DUP8 DUP3 MSTORE PUSH1 0x60 DUP7 ADD SWAP3 DUP4 MSTORE PUSH1 0x80 DUP7 ADD SWAP4 TIMESTAMP DUP6 MSTORE PUSH1 0x0 MSTORE PUSH1 0x8 DUP12 MSTORE PUSH1 0x40 PUSH1 0x0 KECCAK256 SWAP6 MLOAD DUP7 SSTORE MLOAD PUSH1 0x1 DUP7 ADD SSTORE MLOAD PUSH1 0x2 DUP6 ADD SSTORE MLOAD PUSH1 0x3 DUP5 ADD SSTORE MLOAD SWAP2 ADD SSTORE PUSH2 0x3A01 PUSH1 0xF SLOAD PUSH2 0x39D4 CALLER PUSH2 0x50DE JUMP JUMPDEST PUSH1 0x40 MLOAD SWAP5 DUP6 SWAP5 TIMESTAMP SWAP4 DUP7 SWAP2 SWAP3 PUSH1 0x80 SWAP4 SWAP7 SWAP6 SWAP5 SWAP2 SWAP7 PUSH1 0xA0 DUP5 ADD SWAP8 DUP5 MSTORE PUSH1 0x20 DUP5 ADD MSTORE PUSH1 0x40 DUP4 ADD MSTORE PUSH1 0x60 DUP3 ADD MSTORE ADD MSTORE JUMP JUMPDEST SUB SWAP1 LOG1 PUSH2 0x3A56 PUSH1 0x40 MLOAD PUSH2 0x3A13 DUP2 PUSH2 0x42A2 JUMP JUMPDEST PUSH1 0x29 DUP2 MSTORE PUSH32 0x596F752068617665207375636365737366756C6C792070726573637269626564 DUP5 DUP3 ADD MSTORE PUSH9 0x206D65646963696E65 PUSH1 0xB8 SHL PUSH1 0x40 DUP3 ADD MSTORE PUSH2 0x5A4 PUSH2 0x4BD8 JUMP JUMPDEST PUSH1 0x0 MSTORE PUSH1 0x7 DUP2 MSTORE PUSH1 0x1 DUP1 PUSH1 0xA0 SHL SUB PUSH2 0x3AAF DUP2 PUSH1 0x3 PUSH1 0x40 PUSH1 0x0 KECCAK256 ADD SLOAD AND PUSH1 0x40 MLOAD PUSH2 0x3A7E DUP2 PUSH2 0x426C JUMP JUMPDEST PUSH1 0x1E DUP2 MSTORE PUSH32 0x446F63746F72207072657363726962656420796F75206D65646963696E650000 DUP6 DUP3 ADD MSTORE PUSH2 0x627 PUSH2 0x4BD8 JUMP JUMPDEST PUSH1 0x11 SLOAD AND SWAP1 PUSH32 0x446F63746F722070726573637269626564206D65646963696E65207375636365 PUSH1 0x40 MLOAD SWAP2 PUSH2 0x3AE2 DUP4 PUSH2 0x42A2 JUMP JUMPDEST PUSH1 0x27 DUP4 MSTORE DUP3 ADD MSTORE PUSH7 0x737366756C6C79 PUSH1 0xC8 SHL PUSH1 0x40 DUP3 ADD MSTORE PUSH2 0x627 PUSH2 0x4BD8 JUMP JUMPDEST CALLVALUE PUSH2 0x410 JUMPI PUSH2 0x3B0F CALLDATASIZE PUSH2 0x443E JUMP JUMPDEST SWAP1 CALLER PUSH1 0x0 MSTORE PUSH1 0x20 SWAP1 PUSH1 0xA DUP3 MSTORE PUSH2 0x3B2C PUSH1 0xFF PUSH1 0x40 PUSH1 0x0 KECCAK256 SLOAD AND PUSH2 0x4C3E JUMP JUMPDEST PUSH2 0x3B3A PUSH1 0xE SLOAD DUP3 GT ISZERO PUSH2 0x4CA2 JUMP JUMPDEST DUP1 PUSH1 0x0 MSTORE PUSH1 0x7 DUP3 MSTORE PUSH1 0x2 PUSH1 0x40 PUSH1 0x0 KECCAK256 ADD DUP1 SLOAD PUSH1 0x1 PUSH1 0x40 SHL DUP2 LT ISZERO PUSH2 0xB1B JUMPI PUSH2 0x3B67 SWAP2 PUSH1 0x1 DUP3 ADD DUP2 SSTORE PUSH2 0x4CE7 JUMP JUMPDEST PUSH2 0x3C86 JUMPI PUSH2 0x681 SWAP4 PUSH2 0x3B78 SWAP2 PUSH2 0x4927 JUMP JUMPDEST PUSH2 0x3BD6 PUSH1 0x40 MLOAD PUSH2 0x3B87 DUP2 PUSH2 0x42A2 JUMP JUMPDEST PUSH1 0x35 DUP2 MSTORE PUSH32 0x596F752068617665207375636365737366756C6C79207570646174652C207061 DUP5 DUP3 ADD MSTORE PUSH21 0x7469656E74206D65646963616C20686973746F7279 PUSH1 0x58 SHL PUSH1 0x40 DUP3 ADD MSTORE PUSH2 0x5A4 PUSH2 0x4BD8 JUMP JUMPDEST PUSH1 0x0 MSTORE PUSH1 0x7 DUP2 MSTORE PUSH2 0x3C3D PUSH1 0x1 DUP1 PUSH1 0xA0 SHL SUB PUSH1 0x3 PUSH1 0x40 PUSH1 0x0 KECCAK256 ADD SLOAD AND PUSH1 0x40 MLOAD PUSH2 0x3BFD DUP2 PUSH2 0x42A2 JUMP JUMPDEST PUSH1 0x26 DUP2 MSTORE PUSH32 0x596F7572206D65646963616C20686973746F7279207570646174656420627920 DUP5 DUP3 ADD MSTORE PUSH6 0x3237B1BA37B9 PUSH1 0xD1 SHL PUSH1 0x40 DUP3 ADD MSTORE PUSH2 0x627 PUSH2 0x4BD8 JUMP JUMPDEST PUSH32 0x50617469656E74206D6564696369616C20686973746F72792069732075706461 PUSH1 0x40 MLOAD SWAP2 PUSH2 0x3C6B DUP4 PUSH2 0x42A2 JUMP JUMPDEST PUSH1 0x23 DUP4 MSTORE DUP3 ADD MSTORE PUSH3 0x1D1959 PUSH1 0xEA SHL PUSH1 0x40 DUP3 ADD MSTORE PUSH2 0x5A4 PUSH2 0x4BD8 JUMP JUMPDEST PUSH4 0x4E487B71 PUSH1 0xE0 SHL PUSH1 0x0 MSTORE PUSH1 0x0 PUSH1 0x4 MSTORE PUSH1 0x24 PUSH1 0x0 REVERT JUMPDEST CALLVALUE PUSH2 0x410 JUMPI PUSH1 0x20 CALLDATASIZE PUSH1 0x3 NOT ADD SLT PUSH2 0x410 JUMPI PUSH1 0x4 CALLDATALOAD PUSH1 0x0 MSTORE PUSH1 0x8 PUSH1 0x20 MSTORE PUSH1 0x40 PUSH1 0x0 KECCAK256 DUP1 SLOAD PUSH2 0x4AC PUSH1 0x1 DUP4 ADD SLOAD SWAP3 PUSH1 0x2 DUP2 ADD SLOAD SWAP1 PUSH1 0x4 PUSH1 0x3 DUP3 ADD SLOAD SWAP2 ADD SLOAD SWAP2 PUSH1 0x40 MLOAD SWAP6 DUP7 SWAP6 DUP7 SWAP2 SWAP3 PUSH1 0x80 SWAP4 SWAP7 SWAP6 SWAP5 SWAP2 SWAP7 PUSH1 0xA0 DUP5 ADD SWAP8 DUP5 MSTORE PUSH1 0x20 DUP5 ADD MSTORE PUSH1 0x40 DUP4 ADD MSTORE PUSH1 0x60 DUP3 ADD MSTORE ADD MSTORE JUMP JUMPDEST CALLVALUE PUSH2 0x410 JUMPI PUSH32 0x1E689CD9AC52751E42953A5ACD30B7EAC0CC9804EC5C814B2CB6BFF6E8AB852B PUSH1 0x40 PUSH2 0x3D35 CALLDATASIZE PUSH2 0x43C4 JUMP JUMPDEST PUSH2 0x3D4A PUSH1 0x1 DUP1 PUSH1 0xA0 SHL SUB PUSH1 0x11 SLOAD AND CALLER EQ PUSH2 0x4865 JUMP JUMPDEST PUSH2 0x3D58 PUSH1 0xC SLOAD DUP4 GT ISZERO PUSH2 0x4B40 JUMP JUMPDEST DUP2 PUSH1 0x0 MSTORE PUSH1 0x5 PUSH1 0x20 MSTORE DUP1 PUSH1 0x3 DUP5 PUSH1 0x0 KECCAK256 ADD SSTORE PUSH2 0x17B0 DUP4 MLOAD PUSH2 0x3D78 DUP2 PUSH2 0x42A2 JUMP JUMPDEST PUSH1 0x26 DUP2 MSTORE PUSH32 0x4D65646963696E65207175616E74697479207570646174656420737563636573 PUSH1 0x20 DUP3 ADD MSTORE PUSH6 0x7366756C6C79 PUSH1 0xD0 SHL DUP6 DUP3 ADD MSTORE PUSH2 0x5A4 PUSH2 0x49EE JUMP JUMPDEST CALLVALUE PUSH2 0x410 JUMPI PUSH1 0x20 DUP1 PUSH1 0x3 NOT CALLDATASIZE ADD SLT PUSH2 0x410 JUMPI PUSH1 0x1 PUSH1 0x1 PUSH1 0xA0 SHL SUB SWAP1 DUP2 PUSH2 0x3DDC PUSH2 0x41B4 JUMP JUMPDEST AND PUSH1 0x0 MSTORE PUSH1 0x3 SWAP1 DUP2 DUP2 MSTORE PUSH1 0x40 PUSH1 0x0 KECCAK256 SWAP1 DUP2 SLOAD PUSH2 0x3DF7 DUP2 PUSH2 0x4571 JUMP JUMPDEST SWAP4 PUSH2 0x3E05 PUSH1 0x40 MLOAD SWAP6 DUP7 PUSH2 0x42BD JUMP JUMPDEST DUP2 DUP6 MSTORE PUSH1 0x0 SWAP4 DUP5 MSTORE DUP3 DUP5 KECCAK256 DUP4 DUP7 ADD SWAP5 SWAP2 DUP6 JUMPDEST DUP5 DUP5 LT PUSH2 0x3EBF JUMPI POP POP POP POP POP PUSH1 0x40 MLOAD SWAP3 DUP2 DUP5 ADD SWAP1 DUP3 DUP6 MSTORE MLOAD DUP1 SWAP2 MSTORE PUSH1 0x40 DUP5 ADD SWAP2 PUSH1 0x40 DUP3 PUSH1 0x5 SHL DUP7 ADD ADD SWAP4 SWAP3 PUSH1 0x0 SWAP7 JUMPDEST DUP4 DUP9 LT PUSH2 0x3E53 JUMPI DUP7 DUP7 SUB DUP8 RETURN JUMPDEST SWAP1 SWAP2 SWAP3 SWAP4 SWAP5 DUP4 DUP1 PUSH2 0x3EAE PUSH1 0x1 SWAP4 PUSH1 0x3F NOT DUP12 DUP3 SUB ADD DUP8 MSTORE DUP10 MLOAD DUP1 MLOAD DUP3 MSTORE DUP7 DUP5 DUP3 ADD MLOAD AND DUP5 DUP4 ADD MSTORE PUSH2 0x3E91 PUSH1 0x40 DUP3 ADD MLOAD PUSH1 0xA0 DUP1 PUSH1 0x40 DUP7 ADD MSTORE DUP5 ADD SWAP1 PUSH2 0x4384 JUMP JUMPDEST SWAP2 PUSH1 0x60 DUP1 DUP4 ADD MLOAD SWAP1 DUP3 ADD MSTORE PUSH1 0x80 DUP1 SWAP3 ADD MLOAD SWAP2 DUP2 DUP5 SUB SWAP2 ADD MSTORE PUSH2 0x4384 JUMP JUMPDEST SWAP8 ADD SWAP4 ADD SWAP8 ADD SWAP7 SWAP1 SWAP4 SWAP3 SWAP2 SWAP4 PUSH2 0x3E46 JUMP JUMPDEST PUSH1 0x5 DUP7 PUSH1 0x1 SWAP3 PUSH1 0x40 SWAP11 SWAP9 SWAP11 MLOAD PUSH2 0x3ED4 DUP2 PUSH2 0x421A JUMP JUMPDEST DUP7 SLOAD DUP2 MSTORE DUP13 DUP6 DUP9 ADD SLOAD AND DUP4 DUP3 ADD MSTORE PUSH2 0x3EEE PUSH1 0x2 DUP9 ADD PUSH2 0x42DE JUMP JUMPDEST PUSH1 0x40 DUP3 ADD MSTORE DUP6 DUP8 ADD SLOAD PUSH1 0x60 DUP3 ADD MSTORE PUSH2 0x3F08 PUSH1 0x4 DUP9 ADD PUSH2 0x42DE JUMP JUMPDEST PUSH1 0x80 DUP3 ADD MSTORE DUP2 MSTORE ADD SWAP4 ADD SWAP4 ADD SWAP3 SWAP2 SWAP7 SWAP5 SWAP7 PUSH2 0x3E17 JUMP JUMPDEST CALLVALUE PUSH2 0x410 JUMPI PUSH1 0x20 CALLDATASIZE PUSH1 0x3 NOT ADD SLT PUSH2 0x410 JUMPI PUSH1 0x20 PUSH2 0x3F41 PUSH2 0x3F3C PUSH2 0x41B4 JUMP JUMPDEST PUSH2 0x5190 JUMP JUMPDEST PUSH1 0x40 MLOAD SWAP1 ISZERO ISZERO DUP2 MSTORE RETURN JUMPDEST CALLVALUE PUSH2 0x410 JUMPI PUSH1 0x20 CALLDATASIZE PUSH1 0x3 NOT ADD SLT PUSH2 0x410 JUMPI PUSH1 0x4 CALLDATALOAD PUSH1 0x0 MSTORE PUSH1 0x9 PUSH1 0x20 MSTORE PUSH1 0x40 PUSH1 0x0 KECCAK256 DUP1 SLOAD PUSH1 0x1 DUP3 ADD SLOAD SWAP2 PUSH1 0x2 DUP2 ADD SLOAD SWAP1 PUSH1 0x3 DUP2 ADD SLOAD PUSH1 0x4 DUP3 ADD PUSH2 0x3F8C SWAP1 PUSH2 0x42DE JUMP JUMPDEST PUSH2 0x3F98 PUSH1 0x5 DUP5 ADD PUSH2 0x42DE JUMP JUMPDEST PUSH2 0x3FA4 PUSH1 0x6 DUP6 ADD PUSH2 0x42DE JUMP JUMPDEST SWAP2 PUSH2 0x3FB1 PUSH1 0x7 DUP7 ADD PUSH2 0x42DE JUMP JUMPDEST SWAP4 PUSH2 0x3FBE PUSH1 0x8 DUP8 ADD PUSH2 0x42DE JUMP JUMPDEST SWAP6 PUSH1 0x9 ADD SLOAD PUSH1 0xFF AND SWAP7 PUSH1 0x40 MLOAD SWAP10 DUP11 SWAP10 DUP11 MSTORE PUSH1 0x20 DUP11 ADD MSTORE PUSH1 0x40 DUP10 ADD MSTORE PUSH1 0x60 DUP9 ADD MSTORE PUSH2 0x140 DUP1 PUSH1 0x80 DUP10 ADD MSTORE DUP8 ADD PUSH2 0x3FF2 SWAP2 PUSH2 0x4384 JUMP JUMPDEST DUP7 DUP2 SUB PUSH1 0xA0 DUP9 ADD MSTORE PUSH2 0x4003 SWAP2 PUSH2 0x4384 JUMP JUMPDEST DUP6 DUP2 SUB PUSH1 0xC0 DUP8 ADD MSTORE PUSH2 0x4014 SWAP2 PUSH2 0x4384 JUMP JUMPDEST DUP5 DUP2 SUB PUSH1 0xE0 DUP7 ADD MSTORE PUSH2 0x4025 SWAP2 PUSH2 0x4384 JUMP JUMPDEST DUP4 DUP2 SUB PUSH2 0x100 DUP6 ADD MSTORE PUSH2 0x4037 SWAP2 PUSH2 0x4384 JUMP JUMPDEST SWAP1 ISZERO ISZERO PUSH2 0x120 DUP4 ADD MSTORE SUB SWAP1 RETURN JUMPDEST CALLVALUE PUSH2 0x410 JUMPI PUSH1 0x20 CALLDATASIZE PUSH1 0x3 NOT ADD SLT PUSH2 0x410 JUMPI PUSH1 0x20 PUSH2 0x4067 PUSH2 0x4062 PUSH2 0x41B4 JUMP JUMPDEST PUSH2 0x50DE JUMP JUMPDEST PUSH1 0x40 MLOAD SWAP1 DUP2 MSTORE RETURN JUMPDEST CALLVALUE PUSH2 0x410 JUMPI PUSH1 0x20 CALLDATASIZE PUSH1 0x3 NOT ADD SLT PUSH2 0x410 JUMPI PUSH1 0x20 PUSH2 0x4067 PUSH2 0x408D PUSH2 0x41B4 JUMP JUMPDEST PUSH2 0x4F40 JUMP JUMPDEST CALLVALUE PUSH2 0x410 JUMPI PUSH1 0x20 CALLDATASIZE PUSH1 0x3 NOT ADD SLT PUSH2 0x410 JUMPI PUSH1 0x11 SLOAD PUSH2 0x681 SWAP1 PUSH1 0x1 PUSH1 0x1 PUSH1 0xA0 SHL SUB AND PUSH2 0x40BE CALLER DUP3 EQ PUSH2 0x4865 JUMP JUMPDEST PUSH1 0x4 CALLDATALOAD PUSH1 0x14 SSTORE PUSH1 0x40 MLOAD PUSH2 0x40D0 DUP2 PUSH2 0x42A2 JUMP JUMPDEST PUSH1 0x2D DUP2 MSTORE PUSH32 0x596F752068617665207375636365737366756C6C792075706461746564204170 PUSH1 0x20 DUP3 ADD MSTORE PUSH13 0x706F696E746D656E7420666565 PUSH1 0x98 SHL PUSH1 0x40 DUP3 ADD MSTORE PUSH2 0x627 PUSH2 0x4DC0 JUMP JUMPDEST CALLVALUE PUSH2 0x410 JUMPI PUSH1 0x20 CALLDATASIZE PUSH1 0x3 NOT ADD SLT PUSH2 0x410 JUMPI PUSH1 0x1 PUSH1 0x1 PUSH1 0xA0 SHL SUB PUSH1 0x4 CALLDATALOAD DUP2 DUP2 AND SWAP1 DUP2 SWAP1 SUB PUSH2 0x410 JUMPI DUP1 PUSH2 0x681 SWAP3 PUSH2 0x4154 PUSH1 0x11 SLOAD SWAP2 DUP3 AND CALLER EQ PUSH2 0x4865 JUMP JUMPDEST PUSH1 0x1 PUSH1 0x1 PUSH1 0xA0 SHL SUB NOT AND OR PUSH1 0x11 SSTORE PUSH1 0x40 MLOAD PUSH2 0x416E DUP2 PUSH2 0x42A2 JUMP JUMPDEST PUSH1 0x2B DUP2 MSTORE PUSH32 0x596F752068617665207375636365737366756C6C792075706461746564206164 PUSH1 0x20 DUP3 ADD MSTORE PUSH11 0x6D696E2061646472657373 PUSH1 0xA8 SHL PUSH1 0x40 DUP3 ADD MSTORE PUSH2 0x627 PUSH2 0x4DC0 JUMP JUMPDEST PUSH1 0x4 CALLDATALOAD SWAP1 PUSH1 0x1 PUSH1 0x1 PUSH1 0xA0 SHL SUB DUP3 AND DUP3 SUB PUSH2 0x410 JUMPI JUMP JUMPDEST PUSH1 0x24 CALLDATALOAD SWAP1 PUSH1 0x1 PUSH1 0x1 PUSH1 0xA0 SHL SUB DUP3 AND DUP3 SUB PUSH2 0x410 JUMPI JUMP JUMPDEST SWAP1 PUSH1 0x1 DUP3 DUP2 SHR SWAP3 AND DUP1 ISZERO PUSH2 0x4210 JUMPI JUMPDEST PUSH1 0x20 DUP4 LT EQ PUSH2 0x41FA JUMPI JUMP JUMPDEST PUSH4 0x4E487B71 PUSH1 0xE0 SHL PUSH1 0x0 MSTORE PUSH1 0x22 PUSH1 0x4 MSTORE PUSH1 0x24 PUSH1 0x0 REVERT JUMPDEST SWAP2 PUSH1 0x7F AND SWAP2 PUSH2 0x41EF JUMP JUMPDEST PUSH1 0xA0 DUP2 ADD SWAP1 DUP2 LT PUSH1 0x1 PUSH1 0x1 PUSH1 0x40 SHL SUB DUP3 GT OR PUSH2 0xB1B JUMPI PUSH1 0x40 MSTORE JUMP JUMPDEST PUSH2 0x140 DUP2 ADD SWAP1 DUP2 LT PUSH1 0x1 PUSH1 0x1 PUSH1 0x40 SHL SUB DUP3 GT OR PUSH2 0xB1B JUMPI PUSH1 0x40 MSTORE JUMP JUMPDEST PUSH1 0xC0 DUP2 ADD SWAP1 DUP2 LT PUSH1 0x1 PUSH1 0x1 PUSH1 0x40 SHL SUB DUP3 GT OR PUSH2 0xB1B JUMPI PUSH1 0x40 MSTORE JUMP JUMPDEST PUSH1 0x40 DUP2 ADD SWAP1 DUP2 LT PUSH1 0x1 PUSH1 0x1 PUSH1 0x40 SHL SUB DUP3 GT OR PUSH2 0xB1B JUMPI PUSH1 0x40 MSTORE JUMP JUMPDEST PUSH1 0xE0 DUP2 ADD SWAP1 DUP2 LT PUSH1 0x1 PUSH1 0x1 PUSH1 0x40 SHL SUB DUP3 GT OR PUSH2 0xB1B JUMPI PUSH1 0x40 MSTORE JUMP JUMPDEST PUSH1 0x60 DUP2 ADD SWAP1 DUP2 LT PUSH1 0x1 PUSH1 0x1 PUSH1 0x40 SHL SUB DUP3 GT OR PUSH2 0xB1B JUMPI PUSH1 0x40 MSTORE JUMP JUMPDEST SWAP1 PUSH1 0x1F DUP1 NOT SWAP2 ADD AND DUP2 ADD SWAP1 DUP2 LT PUSH1 0x1 PUSH1 0x1 PUSH1 0x40 SHL SUB DUP3 GT OR PUSH2 0xB1B JUMPI PUSH1 0x40 MSTORE JUMP JUMPDEST SWAP1 PUSH1 0x40 MLOAD SWAP2 DUP3 PUSH1 0x0 DUP3 SLOAD SWAP3 PUSH2 0x42F2 DUP5 PUSH2 0x41E0 JUMP JUMPDEST SWAP1 DUP2 DUP5 MSTORE PUSH1 0x1 SWAP5 DUP6 DUP2 AND SWAP1 DUP2 PUSH1 0x0 EQ PUSH2 0x4361 JUMPI POP PUSH1 0x1 EQ PUSH2 0x431E JUMPI JUMPDEST POP POP PUSH2 0x431C SWAP3 POP SUB DUP4 PUSH2 0x42BD JUMP JUMPDEST JUMP JUMPDEST SWAP1 SWAP4 SWAP2 POP PUSH1 0x0 MSTORE PUSH1 0x20 SWAP1 DUP2 PUSH1 0x0 KECCAK256 SWAP4 PUSH1 0x0 SWAP2 JUMPDEST DUP2 DUP4 LT PUSH2 0x4349 JUMPI POP POP PUSH2 0x431C SWAP4 POP DUP3 ADD ADD CODESIZE DUP1 PUSH2 0x430E JUMP JUMPDEST DUP6 SLOAD DUP9 DUP5 ADD DUP6 ADD MSTORE SWAP5 DUP6 ADD SWAP5 DUP8 SWAP5 POP SWAP2 DUP4 ADD SWAP2 PUSH2 0x4331 JUMP JUMPDEST SWAP2 POP POP PUSH2 0x431C SWAP5 POP PUSH1 0x20 SWAP3 POP PUSH1 0xFF NOT AND DUP3 DUP5 ADD MSTORE ISZERO ISZERO PUSH1 0x5 SHL DUP3 ADD ADD CODESIZE DUP1 PUSH2 0x430E JUMP JUMPDEST SWAP2 SWAP1 DUP3 MLOAD SWAP3 DUP4 DUP3 MSTORE PUSH1 0x0 JUMPDEST DUP5 DUP2 LT PUSH2 0x43B0 JUMPI POP POP DUP3 PUSH1 0x0 PUSH1 0x20 DUP1 SWAP5 SWAP6 DUP5 ADD ADD MSTORE PUSH1 0x1F DUP1 NOT SWAP2 ADD AND ADD ADD SWAP1 JUMP JUMPDEST PUSH1 0x20 DUP2 DUP4 ADD DUP2 ADD MLOAD DUP5 DUP4 ADD DUP3 ADD MSTORE ADD PUSH2 0x438F JUMP JUMPDEST PUSH1 0x40 SWAP1 PUSH1 0x3 NOT ADD SLT PUSH2 0x410 JUMPI PUSH1 0x4 CALLDATALOAD SWAP1 PUSH1 0x24 CALLDATALOAD SWAP1 JUMP JUMPDEST SWAP3 SWAP2 SWAP3 PUSH1 0x1 PUSH1 0x1 PUSH1 0x40 SHL SUB DUP3 GT PUSH2 0xB1B JUMPI PUSH1 0x40 MLOAD SWAP2 PUSH2 0x4403 PUSH1 0x1F DUP3 ADD PUSH1 0x1F NOT AND PUSH1 0x20 ADD DUP5 PUSH2 0x42BD JUMP JUMPDEST DUP3 SWAP5 DUP2 DUP5 MSTORE DUP2 DUP4 ADD GT PUSH2 0x410 JUMPI DUP3 DUP2 PUSH1 0x20 SWAP4 DUP5 PUSH1 0x0 SWAP7 ADD CALLDATACOPY ADD ADD MSTORE JUMP JUMPDEST SWAP1 DUP1 PUSH1 0x1F DUP4 ADD SLT ISZERO PUSH2 0x410 JUMPI DUP2 PUSH1 0x20 PUSH2 0x443B SWAP4 CALLDATALOAD SWAP2 ADD PUSH2 0x43DA JUMP JUMPDEST SWAP1 JUMP JUMPDEST SWAP1 PUSH1 0x40 PUSH1 0x3 NOT DUP4 ADD SLT PUSH2 0x410 JUMPI PUSH1 0x4 CALLDATALOAD SWAP2 PUSH1 0x24 CALLDATALOAD SWAP1 PUSH1 0x1 PUSH1 0x1 PUSH1 0x40 SHL SUB DUP3 GT PUSH2 0x410 JUMPI PUSH2 0x443B SWAP2 PUSH1 0x4 ADD PUSH2 0x4420 JUMP JUMPDEST SWAP1 DUP2 MLOAD DUP2 MSTORE PUSH1 0x20 DUP3 ADD MLOAD PUSH1 0x20 DUP3 ADD MSTORE PUSH1 0x40 DUP3 ADD MLOAD PUSH1 0x40 DUP3 ADD MSTORE PUSH1 0x60 DUP3 ADD MLOAD PUSH1 0x60 DUP3 ADD MSTORE PUSH2 0x44FF PUSH2 0x44EB PUSH2 0x44D9 PUSH2 0x44C7 PUSH2 0x44B5 PUSH1 0x80 DUP8 ADD MLOAD PUSH2 0x140 DUP1 PUSH1 0x80 DUP10 ADD MSTORE DUP8 ADD SWAP1 PUSH2 0x4384 JUMP JUMPDEST PUSH1 0xA0 DUP8 ADD MLOAD DUP7 DUP3 SUB PUSH1 0xA0 DUP9 ADD MSTORE PUSH2 0x4384 JUMP JUMPDEST PUSH1 0xC0 DUP7 ADD MLOAD DUP6 DUP3 SUB PUSH1 0xC0 DUP8 ADD MSTORE PUSH2 0x4384 JUMP JUMPDEST PUSH1 0xE0 DUP6 ADD MLOAD DUP5 DUP3 SUB PUSH1 0xE0 DUP7 ADD MSTORE PUSH2 0x4384 JUMP JUMPDEST PUSH2 0x100 DUP1 DUP6 ADD MLOAD SWAP1 DUP5 DUP4 SUB SWAP1 DUP6 ADD MSTORE PUSH2 0x4384 JUMP JUMPDEST SWAP2 PUSH2 0x120 DUP1 SWAP2 ADD MLOAD ISZERO ISZERO SWAP2 ADD MSTORE SWAP1 JUMP JUMPDEST PUSH1 0x20 DUP1 DUP3 ADD SWAP1 DUP1 DUP4 MSTORE DUP4 MLOAD DUP1 SWAP3 MSTORE PUSH1 0x40 DUP4 ADD SWAP3 DUP2 PUSH1 0x40 DUP5 PUSH1 0x5 SHL DUP4 ADD ADD SWAP6 ADD SWAP4 PUSH1 0x0 SWAP2 JUMPDEST DUP5 DUP4 LT PUSH2 0x4543 JUMPI POP POP POP POP POP POP SWAP1 JUMP JUMPDEST SWAP1 SWAP2 SWAP3 SWAP4 SWAP5 SWAP6 DUP5 DUP1 PUSH2 0x4561 PUSH1 0x1 SWAP4 PUSH1 0x3F NOT DUP7 DUP3 SUB ADD DUP8 MSTORE DUP11 MLOAD PUSH2 0x446D JUMP JUMPDEST SWAP9 ADD SWAP4 ADD SWAP4 ADD SWAP2 SWAP5 SWAP4 SWAP3 SWAP1 PUSH2 0x4533 JUMP JUMPDEST PUSH1 0x1 PUSH1 0x1 PUSH1 0x40 SHL SUB DUP2 GT PUSH2 0xB1B JUMPI PUSH1 0x5 SHL PUSH1 0x20 ADD SWAP1 JUMP JUMPDEST SWAP2 DUP2 PUSH1 0x1F DUP5 ADD SLT ISZERO PUSH2 0x410 JUMPI DUP3 CALLDATALOAD SWAP2 PUSH1 0x1 PUSH1 0x1 PUSH1 0x40 SHL SUB DUP4 GT PUSH2 0x410 JUMPI PUSH1 0x20 DUP4 DUP2 DUP7 ADD SWAP6 ADD ADD GT PUSH2 0x410 JUMPI JUMP JUMPDEST SWAP1 DUP2 MLOAD DUP1 DUP3 MSTORE PUSH1 0x20 DUP1 DUP1 SWAP4 ADD SWAP4 ADD SWAP2 PUSH1 0x0 JUMPDEST DUP3 DUP2 LT PUSH2 0x45D5 JUMPI POP POP POP POP SWAP1 JUMP JUMPDEST DUP4 MLOAD DUP6 MSTORE SWAP4 DUP2 ADD SWAP4 SWAP3 DUP2 ADD SWAP3 PUSH1 0x1 ADD PUSH2 0x45C7 JUMP JUMPDEST SWAP1 DUP2 MLOAD DUP1 DUP3 MSTORE PUSH1 0x20 DUP1 SWAP3 ADD SWAP2 DUP3 DUP2 DUP4 PUSH1 0x5 SHL DUP6 ADD SWAP6 ADD SWAP4 PUSH1 0x0 SWAP2 JUMPDEST DUP5 DUP4 LT PUSH2 0x4614 JUMPI POP POP POP POP POP POP SWAP1 JUMP JUMPDEST SWAP1 SWAP2 SWAP3 SWAP4 SWAP5 SWAP6 DUP5 DUP1 PUSH2 0x462E DUP4 DUP6 PUSH1 0x1 SWAP6 SUB DUP8 MSTORE DUP11 MLOAD PUSH2 0x4384 JUMP JUMPDEST SWAP9 ADD SWAP4 ADD SWAP4 ADD SWAP2 SWAP5 SWAP4 SWAP3 SWAP1 PUSH2 0x4604 JUMP JUMPDEST PUSH2 0x443B SWAP2 DUP2 MLOAD DUP2 MSTORE PUSH1 0x80 PUSH2 0x4676 PUSH2 0x4664 PUSH1 0x20 DUP6 ADD MLOAD PUSH1 0xA0 PUSH1 0x20 DUP7 ADD MSTORE PUSH1 0xA0 DUP6 ADD SWAP1 PUSH2 0x4384 JUMP JUMPDEST PUSH1 0x40 DUP6 ADD MLOAD DUP5 DUP3 SUB PUSH1 0x40 DUP7 ADD MSTORE PUSH2 0x45E9 JUMP JUMPDEST SWAP3 PUSH1 0x1 DUP1 PUSH1 0xA0 SHL SUB PUSH1 0x60 DUP3 ADD MLOAD AND PUSH1 0x60 DUP5 ADD MSTORE ADD MLOAD SWAP1 PUSH1 0x80 DUP2 DUP5 SUB SWAP2 ADD MSTORE PUSH2 0x45B5 JUMP JUMPDEST SWAP1 DUP2 MLOAD DUP2 MSTORE PUSH1 0xA0 DUP1 PUSH2 0x46BA PUSH1 0x20 DUP6 ADD MLOAD PUSH1 0xC0 PUSH1 0x20 DUP7 ADD MSTORE PUSH1 0xC0 DUP6 ADD SWAP1 PUSH2 0x4384 JUMP JUMPDEST SWAP4 PUSH1 0x1 DUP1 DUP4 SHL SUB PUSH1 0x40 DUP3 ADD MLOAD AND PUSH1 0x40 DUP6 ADD MSTORE PUSH1 0x60 DUP2 ADD MLOAD PUSH1 0x60 DUP6 ADD MSTORE PUSH1 0x80 DUP2 ADD MLOAD PUSH1 0x80 DUP6 ADD MSTORE ADD MLOAD ISZERO ISZERO SWAP2 ADD MSTORE SWAP1 JUMP JUMPDEST PUSH1 0x20 DUP1 DUP3 ADD SWAP1 DUP1 DUP4 MSTORE DUP4 MLOAD DUP1 SWAP3 MSTORE PUSH1 0x40 DUP4 ADD SWAP3 DUP2 PUSH1 0x40 DUP5 PUSH1 0x5 SHL DUP4 ADD ADD SWAP6 ADD SWAP4 PUSH1 0x0 SWAP2 JUMPDEST DUP5 DUP4 LT PUSH2 0x471E JUMPI POP POP POP POP POP POP SWAP1 JUMP JUMPDEST SWAP1 SWAP2 SWAP3 SWAP4 SWAP5 SWAP6 DUP5 DUP1 PUSH2 0x473C PUSH1 0x1 SWAP4 PUSH1 0x3F NOT DUP7 DUP3 SUB ADD DUP8 MSTORE DUP11 MLOAD PUSH2 0x4699 JUMP JUMPDEST SWAP9 ADD SWAP4 ADD SWAP4 ADD SWAP2 SWAP5 SWAP4 SWAP3 SWAP1 PUSH2 0x470E JUMP JUMPDEST PUSH1 0x20 SWAP1 DUP2 PUSH1 0x40 DUP2 DUP4 ADD SWAP3 DUP3 DUP2 MSTORE DUP6 MLOAD DUP1 SWAP5 MSTORE ADD SWAP4 ADD SWAP2 PUSH1 0x0 JUMPDEST DUP3 DUP2 LT PUSH2 0x4773 JUMPI POP POP POP POP SWAP1 JUMP JUMPDEST SWAP1 SWAP2 SWAP3 SWAP4 DUP3 PUSH1 0xA0 DUP3 PUSH2 0x47B0 PUSH1 0x1 SWAP5 DUP10 MLOAD PUSH1 0x80 DUP1 SWAP2 DUP1 MLOAD DUP5 MSTORE PUSH1 0x20 DUP2 ADD MLOAD PUSH1 0x20 DUP6 ADD MSTORE PUSH1 0x40 DUP2 ADD MLOAD PUSH1 0x40 DUP6 ADD MSTORE PUSH1 0x60 DUP2 ADD MLOAD PUSH1 0x60 DUP6 ADD MSTORE ADD MLOAD SWAP2 ADD MSTORE JUMP JUMPDEST ADD SWAP6 ADD SWAP4 SWAP3 SWAP2 ADD PUSH2 0x4765 JUMP JUMPDEST SWAP2 PUSH2 0x47DA SWAP1 PUSH1 0x40 SWAP3 SWAP6 SWAP5 SWAP6 DUP5 MSTORE PUSH1 0x60 PUSH1 0x20 DUP6 ADD MSTORE PUSH1 0x60 DUP5 ADD SWAP1 PUSH2 0x4384 JUMP JUMPDEST PUSH1 0x1 PUSH1 0x1 PUSH1 0xA0 SHL SUB SWAP1 SWAP5 AND SWAP2 ADD MSTORE JUMP JUMPDEST SWAP1 DUP2 MLOAD DUP2 MSTORE PUSH1 0xC0 DUP1 PUSH2 0x483E PUSH2 0x480E PUSH1 0x20 DUP7 ADD MLOAD PUSH1 0xE0 PUSH1 0x20 DUP8 ADD MSTORE PUSH1 0xE0 DUP7 ADD SWAP1 PUSH2 0x4384 JUMP JUMPDEST PUSH1 0x40 DUP7 ADD MLOAD PUSH1 0x40 DUP7 ADD MSTORE PUSH1 0x60 DUP7 ADD MLOAD PUSH1 0x60 DUP7 ADD MSTORE PUSH1 0x80 DUP7 ADD MLOAD PUSH1 0x80 DUP7 ADD MSTORE PUSH1 0xA0 DUP7 ADD MLOAD DUP6 DUP3 SUB PUSH1 0xA0 DUP8 ADD MSTORE PUSH2 0x4384 JUMP JUMPDEST SWAP4 ADD MLOAD ISZERO ISZERO SWAP2 ADD MSTORE SWAP1 JUMP JUMPDEST DUP1 SLOAD DUP3 LT ISZERO PUSH2 0xB05 JUMPI PUSH1 0x0 MSTORE PUSH1 0x6 PUSH1 0x20 PUSH1 0x0 KECCAK256 SWAP2 MUL ADD SWAP1 PUSH1 0x0 SWAP1 JUMP JUMPDEST ISZERO PUSH2 0x486C JUMPI JUMP JUMPDEST PUSH1 0x40 MLOAD PUSH3 0x461BCD PUSH1 0xE5 SHL DUP2 MSTORE PUSH1 0x20 PUSH1 0x4 DUP3 ADD MSTORE PUSH1 0x22 PUSH1 0x24 DUP3 ADD MSTORE PUSH32 0x4F6E6C792061646D696E2063616E20706572666F726D20746869732061637469 PUSH1 0x44 DUP3 ADD MSTORE PUSH2 0x37B7 PUSH1 0xF1 SHL PUSH1 0x64 DUP3 ADD MSTORE PUSH1 0x84 SWAP1 REVERT JUMPDEST PUSH1 0x0 NOT DUP2 EQ PUSH2 0x1C72 JUMPI PUSH1 0x1 ADD SWAP1 JUMP JUMPDEST DUP2 DUP2 LT PUSH2 0x48D6 JUMPI POP POP JUMP JUMPDEST PUSH1 0x0 DUP2 SSTORE PUSH1 0x1 ADD PUSH2 0x48CB JUMP JUMPDEST SWAP2 SWAP1 PUSH1 0x1F DUP2 GT PUSH2 0x48F1 JUMPI POP POP POP JUMP JUMPDEST PUSH2 0x431C SWAP3 PUSH1 0x0 MSTORE PUSH1 0x20 PUSH1 0x0 KECCAK256 SWAP1 PUSH1 0x20 PUSH1 0x1F DUP5 ADD PUSH1 0x5 SHR DUP4 ADD SWAP4 LT PUSH2 0x491D JUMPI JUMPDEST PUSH1 0x1F ADD PUSH1 0x5 SHR ADD SWAP1 PUSH2 0x48CB JUMP JUMPDEST SWAP1 SWAP2 POP DUP2 SWAP1 PUSH2 0x4910 JUMP JUMPDEST SWAP2 SWAP1 SWAP2 DUP3 MLOAD PUSH1 0x1 PUSH1 0x1 PUSH1 0x40 SHL SUB DUP2 GT PUSH2 0xB1B JUMPI PUSH2 0x494E DUP2 PUSH2 0x4948 DUP5 SLOAD PUSH2 0x41E0 JUMP JUMPDEST DUP5 PUSH2 0x48E2 JUMP JUMPDEST PUSH1 0x20 DUP1 PUSH1 0x1F DUP4 GT PUSH1 0x1 EQ PUSH2 0x498A JUMPI POP DUP2 SWAP3 SWAP4 SWAP5 PUSH1 0x0 SWAP3 PUSH2 0x497F JUMPI JUMPDEST POP POP DUP2 PUSH1 0x1 SHL SWAP2 PUSH1 0x0 NOT SWAP1 PUSH1 0x3 SHL SHR NOT AND OR SWAP1 SSTORE JUMP JUMPDEST ADD MLOAD SWAP1 POP CODESIZE DUP1 PUSH2 0x4969 JUMP JUMPDEST SWAP1 PUSH1 0x1F NOT DUP4 AND SWAP6 DUP5 PUSH1 0x0 MSTORE DUP3 PUSH1 0x0 KECCAK256 SWAP3 PUSH1 0x0 SWAP1 JUMPDEST DUP9 DUP3 LT PUSH2 0x49D6 JUMPI POP POP DUP4 PUSH1 0x1 SWAP6 SWAP7 SWAP8 LT PUSH2 0x49BD JUMPI JUMPDEST POP POP POP DUP2 SHL ADD SWAP1 SSTORE JUMP JUMPDEST ADD MLOAD PUSH1 0x0 NOT PUSH1 0xF8 DUP5 PUSH1 0x3 SHL AND SHR NOT AND SWAP1 SSTORE CODESIZE DUP1 DUP1 PUSH2 0x49B3 JUMP JUMPDEST DUP1 PUSH1 0x1 DUP6 SWAP7 DUP3 SWAP5 SWAP7 DUP7 ADD MLOAD DUP2 SSTORE ADD SWAP6 ADD SWAP4 ADD SWAP1 PUSH2 0x499E JUMP JUMPDEST PUSH1 0x40 MLOAD SWAP1 PUSH2 0x49FB DUP3 PUSH2 0x426C JUMP JUMPDEST PUSH1 0x8 DUP3 MSTORE PUSH8 0x4D65646963696E65 PUSH1 0xC0 SHL PUSH1 0x20 DUP4 ADD MSTORE JUMP JUMPDEST PUSH1 0x1 PUSH1 0x1 PUSH1 0xA0 SHL SUB SWAP1 DUP2 AND PUSH1 0x0 DUP2 DUP2 MSTORE PUSH1 0x3 PUSH1 0x20 MSTORE PUSH1 0x40 DUP1 DUP3 KECCAK256 SLOAD DUP2 MLOAD SWAP4 SWAP7 SWAP2 SWAP5 SWAP2 SWAP3 SWAP2 SWAP1 PUSH2 0x4A40 DUP6 PUSH2 0x421A JUMP JUMPDEST DUP5 MSTORE PUSH1 0x20 DUP5 ADD DUP8 DUP2 MSTORE DUP6 DUP6 ADD SWAP2 DUP8 DUP4 MSTORE PUSH1 0x60 DUP7 ADD SWAP4 TIMESTAMP DUP6 MSTORE PUSH1 0x80 DUP8 ADD SWAP6 DUP7 MSTORE DUP10 DUP2 MSTORE PUSH1 0x3 PUSH1 0x20 MSTORE DUP8 DUP2 KECCAK256 SWAP1 DUP2 SLOAD SWAP2 PUSH1 0x1 PUSH1 0x40 SHL DUP4 LT ISZERO PUSH2 0x4B2C JUMPI PUSH1 0x1 DUP4 ADD DUP1 DUP3 SSTORE DUP4 LT ISZERO PUSH2 0x4B18 JUMPI SWAP4 PUSH32 0x9C26059514AB57D9B1C23A991546F58E9339E76427BF2909F3EB15FEB61CD571 SWAP11 SWAP10 SWAP9 SWAP7 SWAP4 PUSH2 0x4AEC SWAP4 PUSH1 0x5 PUSH1 0x20 DUP6 PUSH2 0x4AFA SWAP13 SWAP10 PUSH1 0x4 SWAP12 SWAP8 MSTORE KECCAK256 SWAP2 MUL ADD SWAP8 MLOAD DUP9 SSTORE PUSH1 0x1 DUP9 ADD SWAP2 MLOAD AND PUSH1 0x1 PUSH1 0x1 PUSH1 0x60 SHL SUB PUSH1 0xA0 SHL DUP3 SLOAD AND OR SWAP1 SSTORE MLOAD PUSH1 0x2 DUP7 ADD PUSH2 0x4927 JUMP JUMPDEST MLOAD PUSH1 0x3 DUP5 ADD SSTORE MLOAD SWAP2 ADD PUSH2 0x4927 JUMP JUMPDEST PUSH2 0x4B0D DUP2 MLOAD SWAP3 DUP3 DUP5 SWAP4 DUP5 MSTORE DUP4 ADD SWAP1 PUSH2 0x4384 JUMP JUMPDEST TIMESTAMP PUSH1 0x20 DUP4 ADD MSTORE SUB SWAP1 LOG2 JUMP JUMPDEST PUSH4 0x4E487B71 PUSH1 0xE0 SHL DUP3 MSTORE PUSH1 0x32 PUSH1 0x4 MSTORE PUSH1 0x24 DUP3 REVERT JUMPDEST PUSH4 0x4E487B71 PUSH1 0xE0 SHL DUP3 MSTORE PUSH1 0x41 PUSH1 0x4 MSTORE PUSH1 0x24 DUP3 REVERT JUMPDEST ISZERO PUSH2 0x4B47 JUMPI JUMP JUMPDEST PUSH1 0x40 MLOAD PUSH3 0x461BCD PUSH1 0xE5 SHL DUP2 MSTORE PUSH1 0x20 PUSH1 0x4 DUP3 ADD MSTORE PUSH1 0x17 PUSH1 0x24 DUP3 ADD MSTORE PUSH32 0x4D65646963696E6520646F6573206E6F74206578697374000000000000000000 PUSH1 0x44 DUP3 ADD MSTORE PUSH1 0x64 SWAP1 REVERT JUMPDEST ISZERO PUSH2 0x4B93 JUMPI JUMP JUMPDEST PUSH1 0x40 MLOAD PUSH3 0x461BCD PUSH1 0xE5 SHL DUP2 MSTORE PUSH1 0x20 PUSH1 0x4 DUP3 ADD MSTORE PUSH1 0x1A PUSH1 0x24 DUP3 ADD MSTORE PUSH32 0x496E636F727265637420726567697374726174696F6E20666565000000000000 PUSH1 0x44 DUP3 ADD MSTORE PUSH1 0x64 SWAP1 REVERT JUMPDEST PUSH1 0x40 MLOAD SWAP1 PUSH2 0x4BE5 DUP3 PUSH2 0x426C JUMP JUMPDEST PUSH1 0x6 DUP3 MSTORE PUSH6 0x2237B1BA37B9 PUSH1 0xD1 SHL PUSH1 0x20 DUP4 ADD MSTORE JUMP JUMPDEST ISZERO PUSH2 0x4C01 JUMPI JUMP JUMPDEST PUSH1 0x40 MLOAD PUSH3 0x461BCD PUSH1 0xE5 SHL DUP2 MSTORE PUSH1 0x20 PUSH1 0x4 DUP3 ADD MSTORE PUSH1 0x15 PUSH1 0x24 DUP3 ADD MSTORE PUSH21 0x111BD8DD1BDC88191BD95CC81B9BDD08195E1A5CDD PUSH1 0x5A SHL PUSH1 0x44 DUP3 ADD MSTORE PUSH1 0x64 SWAP1 REVERT JUMPDEST ISZERO PUSH2 0x4C45 JUMPI JUMP JUMPDEST PUSH1 0x40 MLOAD PUSH3 0x461BCD PUSH1 0xE5 SHL DUP2 MSTORE PUSH1 0x20 PUSH1 0x4 DUP3 ADD MSTORE PUSH1 0x2F PUSH1 0x24 DUP3 ADD MSTORE PUSH32 0x4F6E6C79207265676973746572656420646F63746F72732063616E2070657266 PUSH1 0x44 DUP3 ADD MSTORE PUSH15 0x37B936903A3434B99030B1BA34B7B7 PUSH1 0x89 SHL PUSH1 0x64 DUP3 ADD MSTORE PUSH1 0x84 SWAP1 REVERT JUMPDEST ISZERO PUSH2 0x4CA9 JUMPI JUMP JUMPDEST PUSH1 0x40 MLOAD PUSH3 0x461BCD PUSH1 0xE5 SHL DUP2 MSTORE PUSH1 0x20 PUSH1 0x4 DUP3 ADD MSTORE PUSH1 0x16 PUSH1 0x24 DUP3 ADD MSTORE PUSH22 0x14185D1A595B9D08191BD95CC81B9BDD08195E1A5CDD PUSH1 0x52 SHL PUSH1 0x44 DUP3 ADD MSTORE PUSH1 0x64 SWAP1 REVERT JUMPDEST DUP1 SLOAD DUP3 LT ISZERO PUSH2 0xB05 JUMPI PUSH1 0x0 MSTORE PUSH1 0x20 PUSH1 0x0 KECCAK256 ADD SWAP1 PUSH1 0x0 SWAP1 JUMP JUMPDEST ISZERO PUSH2 0x4D06 JUMPI JUMP JUMPDEST PUSH1 0x40 MLOAD PUSH3 0x461BCD PUSH1 0xE5 SHL DUP2 MSTORE PUSH1 0x20 PUSH1 0x4 DUP3 ADD MSTORE PUSH1 0x1A PUSH1 0x24 DUP3 ADD MSTORE PUSH32 0x4170706F696E746D656E7420646F6573206E6F74206578697374000000000000 PUSH1 0x44 DUP3 ADD MSTORE PUSH1 0x64 SWAP1 REVERT JUMPDEST ISZERO PUSH2 0x4D52 JUMPI JUMP JUMPDEST PUSH1 0x40 MLOAD PUSH3 0x461BCD PUSH1 0xE5 SHL DUP2 MSTORE PUSH1 0x20 PUSH1 0x4 DUP3 ADD MSTORE PUSH1 0x16 PUSH1 0x24 DUP3 ADD MSTORE PUSH22 0x111BD8DD1BDC881A5CC81B9BDD08185C1C1C9BDD9959 PUSH1 0x52 SHL PUSH1 0x44 DUP3 ADD MSTORE PUSH1 0x64 SWAP1 REVERT JUMPDEST PUSH1 0x40 MLOAD SWAP1 PUSH2 0x4D9D DUP3 PUSH2 0x426C JUMP JUMPDEST PUSH1 0x7 DUP3 MSTORE PUSH7 0x14185D1A595B9D PUSH1 0xCA SHL PUSH1 0x20 DUP4 ADD MSTORE JUMP JUMPDEST SWAP2 SWAP1 DUP3 SUB SWAP2 DUP3 GT PUSH2 0x1C72 JUMPI JUMP JUMPDEST PUSH1 0x40 MLOAD SWAP1 PUSH2 0x4DCD DUP3 PUSH2 0x426C JUMP JUMPDEST PUSH1 0x5 DUP3 MSTORE PUSH5 0x20B236B4B7 PUSH1 0xD9 SHL PUSH1 0x20 DUP4 ADD MSTORE JUMP JUMPDEST PUSH1 0x40 MLOAD SWAP1 PUSH2 0x4DEE DUP3 PUSH2 0x421A JUMP JUMPDEST PUSH1 0x0 PUSH1 0x80 DUP4 DUP3 DUP2 MSTORE DUP3 PUSH1 0x20 DUP3 ADD MSTORE DUP3 PUSH1 0x40 DUP3 ADD MSTORE DUP3 PUSH1 0x60 DUP3 ADD MSTORE ADD MSTORE JUMP JUMPDEST SWAP1 PUSH2 0x4E16 DUP3 PUSH2 0x4571 JUMP JUMPDEST PUSH2 0x4E23 PUSH1 0x40 MLOAD SWAP2 DUP3 PUSH2 0x42BD JUMP JUMPDEST DUP3 DUP2 MSTORE DUP1 SWAP3 PUSH2 0x4E34 PUSH1 0x1F NOT SWAP2 PUSH2 0x4571 JUMP JUMPDEST ADD SWAP1 PUSH1 0x0 JUMPDEST DUP3 DUP2 LT PUSH2 0x4E45 JUMPI POP POP POP JUMP JUMPDEST PUSH1 0x20 SWAP1 PUSH2 0x4E50 PUSH2 0x4DE1 JUMP JUMPDEST DUP3 DUP3 DUP6 ADD ADD MSTORE ADD PUSH2 0x4E39 JUMP JUMPDEST DUP1 MLOAD DUP3 LT ISZERO PUSH2 0xB05 JUMPI PUSH1 0x20 SWAP2 PUSH1 0x5 SHL ADD ADD SWAP1 JUMP JUMPDEST PUSH1 0x40 MLOAD SWAP1 PUSH2 0x4E7D DUP3 PUSH2 0x421A JUMP JUMPDEST PUSH1 0x60 PUSH1 0x80 DUP4 PUSH1 0x0 DUP2 MSTORE DUP3 PUSH1 0x20 DUP3 ADD MSTORE DUP3 PUSH1 0x40 DUP3 ADD MSTORE PUSH1 0x0 DUP4 DUP3 ADD MSTORE ADD MSTORE JUMP JUMPDEST SWAP1 DUP2 SLOAD PUSH2 0x4EA8 DUP2 PUSH2 0x4571 JUMP JUMPDEST SWAP3 PUSH2 0x4EB6 PUSH1 0x40 MLOAD SWAP5 DUP6 PUSH2 0x42BD JUMP JUMPDEST DUP2 DUP5 MSTORE PUSH1 0x0 SWAP1 DUP2 MSTORE PUSH1 0x20 DUP1 DUP3 KECCAK256 DUP2 DUP7 ADD JUMPDEST DUP5 DUP5 LT PUSH2 0x4ED5 JUMPI POP POP POP POP POP JUMP JUMPDEST PUSH1 0x1 DUP4 DUP2 SWAP3 PUSH2 0x4EE3 DUP6 PUSH2 0x42DE JUMP JUMPDEST DUP2 MSTORE ADD SWAP3 ADD SWAP4 ADD SWAP3 SWAP1 PUSH2 0x4EC7 JUMP JUMPDEST SWAP1 PUSH1 0x40 MLOAD SWAP2 DUP3 DUP2 SLOAD SWAP2 DUP3 DUP3 MSTORE PUSH1 0x20 SWAP3 DUP4 DUP4 ADD SWAP2 PUSH1 0x0 MSTORE DUP4 PUSH1 0x0 KECCAK256 SWAP4 PUSH1 0x0 SWAP1 JUMPDEST DUP3 DUP3 LT PUSH2 0x4F26 JUMPI POP POP POP PUSH2 0x431C SWAP3 POP SUB DUP4 PUSH2 0x42BD JUMP JUMPDEST DUP6 SLOAD DUP5 MSTORE PUSH1 0x1 SWAP6 DUP7 ADD SWAP6 DUP9 SWAP6 POP SWAP4 DUP2 ADD SWAP4 SWAP1 SWAP2 ADD SWAP1 PUSH2 0x4F10 JUMP JUMPDEST PUSH1 0xE SLOAD SWAP1 PUSH1 0x0 PUSH1 0x1 JUMPDEST DUP4 DUP2 GT ISZERO PUSH2 0x4F8A JUMPI PUSH1 0x40 MLOAD PUSH3 0x461BCD PUSH1 0xE5 SHL DUP2 MSTORE PUSH1 0x20 PUSH1 0x4 DUP3 ADD MSTORE PUSH1 0x11 PUSH1 0x24 DUP3 ADD MSTORE PUSH17 0x14185D1A595B9D081B9BDD08199BDD5B99 PUSH1 0x7A SHL PUSH1 0x44 DUP3 ADD MSTORE PUSH1 0x64 SWAP1 REVERT JUMPDEST DUP1 DUP3 MSTORE PUSH1 0x7 PUSH1 0x20 MSTORE PUSH1 0x40 DUP3 KECCAK256 PUSH1 0x3 ADD SLOAD PUSH1 0x1 PUSH1 0x1 PUSH1 0xA0 SHL SUB DUP5 DUP2 AND SWAP2 AND EQ PUSH2 0x4FBA JUMPI PUSH2 0x4FB5 SWAP1 PUSH2 0x48BC JUMP JUMPDEST PUSH2 0x4F49 JUMP JUMPDEST SWAP3 POP POP POP SWAP1 JUMP JUMPDEST PUSH1 0x40 MLOAD SWAP1 PUSH2 0x4FCE DUP3 PUSH2 0x4235 JUMP JUMPDEST PUSH1 0x0 PUSH2 0x120 DUP4 DUP3 DUP2 MSTORE DUP3 PUSH1 0x20 DUP3 ADD MSTORE DUP3 PUSH1 0x40 DUP3 ADD MSTORE PUSH1 0x60 DUP4 DUP2 DUP4 ADD MSTORE DUP1 PUSH1 0x80 DUP4 ADD MSTORE DUP1 PUSH1 0xA0 DUP4 ADD MSTORE DUP1 PUSH1 0xC0 DUP4 ADD MSTORE DUP1 PUSH1 0xE0 DUP4 ADD MSTORE PUSH2 0x100 DUP3 ADD MSTORE ADD MSTORE JUMP JUMPDEST SWAP1 PUSH2 0x5016 DUP3 PUSH2 0x4571 JUMP JUMPDEST PUSH2 0x5023 PUSH1 0x40 MLOAD SWAP2 DUP3 PUSH2 0x42BD JUMP JUMPDEST DUP3 DUP2 MSTORE DUP1 SWAP3 PUSH2 0x5034 PUSH1 0x1F NOT SWAP2 PUSH2 0x4571 JUMP JUMPDEST ADD SWAP1 PUSH1 0x0 JUMPDEST DUP3 DUP2 LT PUSH2 0x5045 JUMPI POP POP POP JUMP JUMPDEST PUSH1 0x20 SWAP1 PUSH2 0x5050 PUSH2 0x4FC1 JUMP JUMPDEST DUP3 DUP3 DUP6 ADD ADD MSTORE ADD PUSH2 0x5039 JUMP JUMPDEST PUSH1 0x40 MLOAD SWAP1 PUSH2 0x5069 DUP3 PUSH2 0x4251 JUMP JUMPDEST PUSH1 0x0 PUSH1 0xA0 DUP4 DUP3 DUP2 MSTORE PUSH1 0x60 PUSH1 0x20 DUP3 ADD MSTORE DUP3 PUSH1 0x40 DUP3 ADD MSTORE DUP3 PUSH1 0x60 DUP3 ADD MSTORE DUP3 PUSH1 0x80 DUP3 ADD MSTORE ADD MSTORE JUMP JUMPDEST SWAP1 PUSH2 0x5098 DUP3 PUSH2 0x4571 JUMP JUMPDEST PUSH2 0x50A5 PUSH1 0x40 MLOAD SWAP2 DUP3 PUSH2 0x42BD JUMP JUMPDEST DUP3 DUP2 MSTORE DUP1 SWAP3 PUSH2 0x50B6 PUSH1 0x1F NOT SWAP2 PUSH2 0x4571 JUMP JUMPDEST ADD SWAP1 PUSH1 0x0 JUMPDEST DUP3 DUP2 LT PUSH2 0x50C7 JUMPI POP POP POP JUMP JUMPDEST PUSH1 0x20 SWAP1 PUSH2 0x50D2 PUSH2 0x505C JUMP JUMPDEST DUP3 DUP3 DUP6 ADD ADD MSTORE ADD PUSH2 0x50BB JUMP JUMPDEST PUSH1 0xD SLOAD SWAP1 PUSH1 0x0 PUSH1 0x1 JUMPDEST DUP4 DUP2 GT ISZERO PUSH2 0x5127 JUMPI PUSH1 0x40 MLOAD PUSH3 0x461BCD PUSH1 0xE5 SHL DUP2 MSTORE PUSH1 0x20 PUSH1 0x4 DUP3 ADD MSTORE PUSH1 0x10 PUSH1 0x24 DUP3 ADD MSTORE PUSH16 0x111BD8DD1BDC881B9BDD08199BDD5B99 PUSH1 0x82 SHL PUSH1 0x44 DUP3 ADD MSTORE PUSH1 0x64 SWAP1 REVERT JUMPDEST DUP1 DUP3 MSTORE PUSH1 0x6 PUSH1 0x20 MSTORE PUSH1 0x40 DUP3 KECCAK256 PUSH1 0x2 ADD SLOAD PUSH1 0x1 PUSH1 0x1 PUSH1 0xA0 SHL SUB DUP5 DUP2 AND SWAP2 AND EQ PUSH2 0x4FBA JUMPI PUSH2 0x5152 SWAP1 PUSH2 0x48BC JUMP JUMPDEST PUSH2 0x50E7 JUMP JUMPDEST PUSH1 0x40 MLOAD SWAP1 PUSH2 0x5164 DUP3 PUSH2 0x4287 JUMP JUMPDEST PUSH1 0x0 PUSH1 0xC0 DUP4 DUP3 DUP2 MSTORE PUSH1 0x60 PUSH1 0x20 DUP3 ADD MSTORE DUP3 PUSH1 0x40 DUP3 ADD MSTORE DUP3 PUSH1 0x60 DUP3 ADD MSTORE DUP3 PUSH1 0x80 DUP3 ADD MSTORE PUSH1 0x60 PUSH1 0xA0 DUP3 ADD MSTORE ADD MSTORE JUMP JUMPDEST PUSH1 0x1 PUSH1 0x1 PUSH1 0xA0 SHL SUB AND PUSH1 0x0 SWAP1 DUP2 MSTORE PUSH1 0x1 PUSH1 0x20 MSTORE PUSH1 0x40 SWAP1 KECCAK256 SLOAD PUSH2 0x51B1 SWAP1 PUSH2 0x41E0 JUMP JUMPDEST ISZERO ISZERO SWAP1 JUMP JUMPDEST DUP1 SLOAD DUP3 LT ISZERO PUSH2 0xB05 JUMPI PUSH1 0x0 MSTORE PUSH1 0x20 PUSH1 0x0 KECCAK256 SWAP1 PUSH1 0x1 SHL ADD SWAP1 PUSH1 0x0 SWAP1 JUMP JUMPDEST SWAP3 PUSH2 0x51DC DUP4 PUSH2 0x5190 JUMP JUMPDEST PUSH2 0x5406 JUMPI DUP2 ISZERO PUSH2 0x53C1 JUMPI PUSH1 0x1 DUP1 PUSH1 0xA0 SHL SUB DUP1 SWAP4 AND SWAP4 PUSH1 0x0 SWAP2 DUP6 DUP4 MSTORE PUSH1 0x1 SWAP2 PUSH1 0x20 SWAP2 DUP4 DUP4 MSTORE PUSH1 0x40 DUP6 KECCAK256 PUSH1 0x1 PUSH1 0x1 PUSH1 0x40 SHL SUB DUP8 GT PUSH2 0x53AD JUMPI PUSH2 0x5226 DUP8 PUSH2 0x5220 DUP4 SLOAD PUSH2 0x41E0 JUMP JUMPDEST DUP4 PUSH2 0x48E2 JUMP JUMPDEST DUP7 DUP7 PUSH1 0x1F DUP3 GT PUSH1 0x1 EQ PUSH2 0x533F JUMPI SWAP2 PUSH2 0x527D SWAP5 SWAP4 SWAP2 PUSH2 0x5269 SWAP4 DUP10 SWAP2 PUSH2 0x5334 JUMPI JUMPDEST POP PUSH1 0x0 NOT PUSH1 0x3 DUP12 SWAP1 SHL SHR NOT AND DUP10 DUP9 SHL OR SWAP1 SSTORE JUMPDEST DUP10 DUP8 MSTORE DUP6 DUP6 MSTORE DUP6 PUSH1 0x40 DUP9 KECCAK256 ADD PUSH2 0x4927 JUMP JUMPDEST PUSH1 0x40 MLOAD SWAP6 PUSH2 0x5276 DUP8 PUSH2 0x426C JUMP JUMPDEST CALLDATASIZE SWAP2 PUSH2 0x43DA JUMP JUMPDEST DUP5 MSTORE DUP4 ADD SWAP5 DUP6 MSTORE DUP2 SLOAD SWAP2 PUSH1 0x1 PUSH1 0x40 SHL DUP4 LT ISZERO PUSH2 0x5320 JUMPI DUP2 DUP4 ADD DUP1 DUP3 SSTORE DUP4 LT ISZERO PUSH2 0x530C JUMPI SWAP2 PUSH2 0x52F5 SWAP2 DUP4 PUSH32 0x290DECD9548B62A8D60345A988386FC84BA6BC95484008F6362F93160EF3E564 SWAP6 SWAP5 MSTORE SHL SWAP2 MLOAD DUP3 PUSH32 0x290DECD9548B62A8D60345A988386FC84BA6BC95484008F6362F93160EF3E563 ADD PUSH2 0x4927 JUMP JUMPDEST ADD SWAP2 MLOAD AND PUSH1 0x1 PUSH1 0x1 PUSH1 0x60 SHL SUB PUSH1 0xA0 SHL DUP3 SLOAD AND OR SWAP1 SSTORE JUMP JUMPDEST PUSH4 0x4E487B71 PUSH1 0xE0 SHL DUP2 MSTORE PUSH1 0x32 PUSH1 0x4 MSTORE PUSH1 0x24 SWAP1 REVERT JUMPDEST PUSH4 0x4E487B71 PUSH1 0xE0 SHL DUP2 MSTORE PUSH1 0x41 PUSH1 0x4 MSTORE PUSH1 0x24 SWAP1 REVERT JUMPDEST SWAP1 POP DUP5 ADD CALLDATALOAD CODESIZE PUSH2 0x5245 JUMP JUMPDEST DUP3 DUP9 MSTORE DUP6 DUP9 KECCAK256 SWAP2 POP DUP9 PUSH1 0x1F NOT DUP2 AND DUP10 JUMPDEST DUP9 DUP11 DUP4 DUP4 LT PUSH2 0x5396 JUMPI POP POP POP SWAP2 PUSH2 0x527D SWAP7 SWAP6 SWAP4 SWAP2 PUSH2 0x5269 SWAP6 SWAP4 LT PUSH2 0x537C JUMPI JUMPDEST POP POP DUP7 DUP10 DUP2 SHL ADD SWAP1 SSTORE PUSH2 0x5258 JUMP JUMPDEST DUP6 ADD CALLDATALOAD PUSH1 0x0 NOT PUSH1 0x3 DUP13 SWAP1 SHL PUSH1 0xF8 AND SHR NOT AND SWAP1 SSTORE CODESIZE DUP1 PUSH2 0x536E JUMP JUMPDEST DUP6 DUP11 ADD CALLDATALOAD DUP8 SSTORE SWAP1 SWAP6 ADD SWAP5 SWAP4 DUP5 ADD SWAP4 DUP13 SWAP4 POP ADD PUSH2 0x534F JUMP JUMPDEST PUSH4 0x4E487B71 PUSH1 0xE0 SHL DUP7 MSTORE PUSH1 0x41 PUSH1 0x4 MSTORE PUSH1 0x24 DUP7 REVERT JUMPDEST PUSH1 0x40 MLOAD PUSH3 0x461BCD PUSH1 0xE5 SHL DUP2 MSTORE PUSH1 0x20 PUSH1 0x4 DUP3 ADD MSTORE PUSH1 0x18 PUSH1 0x24 DUP3 ADD MSTORE PUSH32 0x557365726E616D652063616E6E6F7420626520656D7074790000000000000000 PUSH1 0x44 DUP3 ADD MSTORE PUSH1 0x64 SWAP1 REVERT JUMPDEST PUSH1 0x40 MLOAD PUSH3 0x461BCD PUSH1 0xE5 SHL DUP2 MSTORE PUSH1 0x20 PUSH1 0x4 DUP3 ADD MSTORE PUSH1 0x13 PUSH1 0x24 DUP3 ADD MSTORE PUSH19 0x5573657220616C726561647920657869737473 PUSH1 0x68 SHL PUSH1 0x44 DUP3 ADD MSTORE PUSH1 0x64 SWAP1 REVERT JUMPDEST ISZERO PUSH2 0x5448 JUMPI JUMP JUMPDEST PUSH1 0x40 MLOAD PUSH3 0x461BCD PUSH1 0xE5 SHL DUP2 MSTORE PUSH1 0x20 PUSH1 0x4 DUP3 ADD MSTORE PUSH1 0x16 PUSH1 0x24 DUP3 ADD MSTORE PUSH22 0x155CD95C881A5CC81B9BDD081C9959DA5CDD195C9959 PUSH1 0x52 SHL PUSH1 0x44 DUP3 ADD MSTORE PUSH1 0x64 SWAP1 REVERT JUMPDEST SWAP1 DUP2 SLOAD PUSH2 0x5492 DUP2 PUSH2 0x4571 JUMP JUMPDEST SWAP3 PUSH1 0x40 SWAP4 PUSH2 0x54A2 DUP6 MLOAD SWAP2 DUP3 PUSH2 0x42BD JUMP JUMPDEST DUP3 DUP2 MSTORE DUP1 SWAP5 PUSH1 0x20 DUP1 SWAP3 ADD SWAP3 PUSH1 0x0 MSTORE DUP2 PUSH1 0x0 KECCAK256 SWAP1 PUSH1 0x0 SWAP4 JUMPDEST DUP6 DUP6 LT PUSH2 0x54C8 JUMPI POP POP POP POP POP POP JUMP JUMPDEST PUSH1 0x2 DUP5 PUSH1 0x1 SWAP3 DUP5 MLOAD PUSH2 0x54D9 DUP2 PUSH2 0x426C JUMP JUMPDEST DUP5 DUP1 PUSH1 0xA0 SHL SUB DUP8 SLOAD AND DUP2 MSTORE PUSH2 0x54EF DUP6 DUP9 ADD PUSH2 0x42DE JUMP JUMPDEST DUP4 DUP3 ADD MSTORE DUP2 MSTORE ADD SWAP4 ADD SWAP5 ADD SWAP4 SWAP2 PUSH2 0x54B9 JUMP JUMPDEST ISZERO PUSH2 0x5508 JUMPI JUMP JUMPDEST PUSH1 0x40 MLOAD PUSH3 0x461BCD PUSH1 0xE5 SHL DUP2 MSTORE PUSH1 0x20 PUSH1 0x4 DUP3 ADD MSTORE PUSH1 0x17 PUSH1 0x24 DUP3 ADD MSTORE PUSH32 0x43726561746520616E206163636F756E74206669727374000000000000000000 PUSH1 0x44 DUP3 ADD MSTORE PUSH1 0x64 SWAP1 REVERT JUMPDEST SWAP2 SWAP3 SWAP1 PUSH2 0x555C PUSH2 0x97C DUP4 PUSH2 0x5190 JUMP JUMPDEST PUSH2 0x5565 DUP4 PUSH2 0x5190 JUMP JUMPDEST ISZERO PUSH2 0x5628 JUMPI PUSH1 0x1 PUSH1 0x1 PUSH1 0xA0 SHL SUB DUP3 DUP2 AND SWAP2 SWAP1 DUP5 AND DUP3 EQ PUSH2 0x55D4 JUMPI PUSH2 0x5589 DUP5 DUP5 PUSH2 0x566D JUMP JUMPDEST ISZERO PUSH2 0x5596 JUMPI JUMPDEST POP POP POP POP POP JUMP JUMPDEST PUSH2 0x55A8 PUSH2 0x55AF SWAP2 PUSH2 0x55CA SWAP7 CALLDATASIZE SWAP2 PUSH2 0x43DA JUMP JUMPDEST DUP5 DUP5 PUSH2 0x570F JUMP JUMPDEST PUSH1 0x0 MSTORE PUSH1 0x1 PUSH1 0x20 MSTORE PUSH2 0x55C4 PUSH1 0x40 PUSH1 0x0 KECCAK256 PUSH2 0x42DE JUMP JUMPDEST SWAP2 PUSH2 0x570F JUMP JUMPDEST CODESIZE DUP1 DUP1 DUP1 DUP1 PUSH2 0x558F JUMP JUMPDEST PUSH1 0x40 MLOAD PUSH3 0x461BCD PUSH1 0xE5 SHL DUP2 MSTORE PUSH1 0x20 PUSH1 0x4 DUP3 ADD MSTORE PUSH1 0x26 PUSH1 0x24 DUP3 ADD MSTORE PUSH32 0x55736572732063616E6E6F7420616464207468656D73656C7665732061732066 PUSH1 0x44 DUP3 ADD MSTORE PUSH6 0x7269656E6473 PUSH1 0xD0 SHL PUSH1 0x64 DUP3 ADD MSTORE PUSH1 0x84 SWAP1 REVERT JUMPDEST PUSH1 0x40 MLOAD PUSH3 0x461BCD PUSH1 0xE5 SHL DUP2 MSTORE PUSH1 0x20 PUSH1 0x4 DUP3 ADD MSTORE PUSH1 0x17 PUSH1 0x24 DUP3 ADD MSTORE PUSH32 0x55736572206973206E6F74207265676973746572656421000000000000000000 PUSH1 0x44 DUP3 ADD MSTORE PUSH1 0x64 SWAP1 REVERT JUMPDEST PUSH1 0x1 DUP1 PUSH1 0xA0 SHL SUB SWAP1 PUSH1 0x0 SWAP3 DUP3 DUP3 AND DUP5 MSTORE PUSH1 0x1 SWAP3 DUP4 SWAP3 PUSH1 0x20 SWAP1 DUP5 DUP3 MSTORE PUSH1 0x2 SWAP2 PUSH1 0x40 SWAP2 DUP4 DUP4 DUP11 KECCAK256 ADD SLOAD DUP6 DUP8 AND DUP11 MSTORE DUP5 DUP5 DUP12 KECCAK256 ADD SLOAD LT PUSH2 0x5709 JUMPI JUMPDEST DUP9 SWAP8 JUMPDEST PUSH2 0x56B9 JUMPI JUMPDEST POP POP POP POP POP POP POP SWAP1 POP SWAP1 JUMP JUMPDEST DUP5 DUP2 AND DUP9 MSTORE DUP7 DUP3 MSTORE DUP4 DUP4 DUP10 KECCAK256 ADD DUP1 SLOAD DUP11 LT ISZERO PUSH2 0x5703 JUMPI PUSH2 0x56DA DUP11 DUP8 SWAP3 PUSH2 0x51B6 JUMP JUMPDEST POP SLOAD AND DUP6 DUP8 AND EQ PUSH2 0x56F7 JUMPI PUSH2 0x56F0 DUP8 SWAP9 SWAP10 PUSH2 0x48BC JUMP JUMPDEST SWAP9 SWAP8 PUSH2 0x56A8 JUMP JUMPDEST POP POP POP POP POP POP SWAP2 POP POP SWAP1 JUMP JUMPDEST POP PUSH2 0x56AD JUMP JUMPDEST SWAP5 PUSH2 0x56A5 JUMP JUMPDEST SWAP2 SWAP1 PUSH1 0x40 MLOAD PUSH2 0x571D DUP2 PUSH2 0x426C JUMP JUMPDEST PUSH1 0x1 PUSH1 0x1 PUSH1 0xA0 SHL SUB SWAP2 DUP3 AND DUP2 MSTORE PUSH1 0x20 DUP1 DUP3 ADD SWAP4 DUP5 MSTORE SWAP4 DUP3 AND PUSH1 0x0 SWAP1 DUP2 MSTORE PUSH1 0x1 SWAP1 SWAP5 MSTORE PUSH1 0x40 DUP5 KECCAK256 PUSH1 0x2 ADD DUP1 SLOAD SWAP1 PUSH1 0x1 PUSH1 0x40 SHL DUP3 LT ISZERO PUSH2 0x53AD JUMPI SWAP1 PUSH2 0x5765 SWAP2 PUSH1 0x1 DUP3 ADD DUP2 SSTORE PUSH2 0x51B6 JUMP JUMPDEST SWAP5 SWAP1 SWAP5 PUSH2 0x578C JUMPI POP MLOAD DUP4 SLOAD PUSH1 0x1 PUSH1 0x1 PUSH1 0xA0 SHL SUB NOT AND SWAP2 AND OR DUP3 SSTORE MLOAD PUSH2 0x431C SWAP2 PUSH1 0x1 ADD PUSH2 0x4927 JUMP JUMPDEST PUSH4 0x4E487B71 PUSH1 0xE0 SHL DUP2 MSTORE PUSH1 0x4 DUP2 SWAP1 MSTORE PUSH1 0x24 SWAP1 REVERT JUMPDEST PUSH1 0x40 MLOAD SWAP1 PUSH2 0x57AD DUP3 PUSH2 0x426C JUMP JUMPDEST PUSH1 0x7 DUP3 MSTORE PUSH7 0x4D657373616765 PUSH1 0xC8 SHL PUSH1 0x20 DUP4 ADD MSTORE JUMP JUMPDEST SWAP1 PUSH1 0x1 PUSH1 0x1 PUSH1 0xA0 SHL SUB DUP1 DUP3 AND SWAP1 DUP4 AND LT ISZERO PUSH2 0x5821 JUMPI PUSH2 0x581B PUSH2 0x580D SWAP2 PUSH1 0x40 MLOAD SWAP3 DUP4 SWAP2 PUSH1 0x20 DUP4 ADD SWAP6 DUP7 SWAP1 PUSH1 0x28 SWAP3 PUSH1 0x1 PUSH1 0x1 PUSH1 0x60 SHL SUB NOT DUP1 SWAP3 PUSH1 0x60 SHL AND DUP4 MSTORE PUSH1 0x60 SHL AND PUSH1 0x14 DUP3 ADD MSTORE ADD SWAP1 JUMP JUMPDEST SUB PUSH1 0x1F NOT DUP2 ADD DUP4 MSTORE DUP3 PUSH2 0x42BD JUMP JUMPDEST MLOAD SWAP1 KECCAK256 SWAP1 JUMP JUMPDEST PUSH1 0x40 MLOAD PUSH12 0xFFFFFFFFFFFFFFFFFFFFFFFF NOT PUSH1 0x60 SWAP3 DUP4 SHL DUP2 AND PUSH1 0x20 DUP4 ADD SWAP1 DUP2 MSTORE SWAP4 SWAP1 SWAP3 SHL SWAP1 SWAP2 AND PUSH1 0x34 DUP3 ADD MSTORE PUSH2 0x581B DUP2 PUSH1 0x48 DUP2 ADD PUSH2 0x580D JUMP INVALID LOG2 PUSH5 0x6970667358 0x22 SLT KECCAK256 DUP15 0x4A SGT STOP SHL NOT 0xF9 0xE SWAP12 SWAP11 SWAP2 BLOCKHASH PUSH9 0x89368FBA1A3BA84AE5 CALLCODE 0xD5 DUP13 DUP4 0xC1 RETURN PUSH21 0x7E62C064736F6C6343000813003300000000000000 "},"methodIdentifiers":{"ADD_DOCTOR(string,address,string,string)":"b884db75","ADD_MEDICINE(string,uint256,uint256,uint256,string)":"dd1bf902","ADD_PATIENTS(string,string[],address,uint256[],string,address,string,string)":"5970cea4","APPROVE_DOCTOR_STATUS(uint256)":"5597958e","BOOK_APPOINTMENT(uint256,uint256,string,string,string,string,string,address,string)":"ebd557d9","BUY_MEDICINE(uint256,uint256,uint256)":"8366304b","CHECK_USER_EXISTS(address)":"1b82207e","COMPLETE_APPOINTMENT(uint256)":"fd9510d5","GET_ALL_APPOINTMENTS()":"ea51cd6c","GET_ALL_APPROVED_DOCTORS()":"d0da2306","GET_ALL_APP_USER()":"828b10da","GET_ALL_PATIENT_ORDERS(uint256)":"56baa64e","GET_ALL_PRESCRIBED_MEDICINES()":"8c9e245d","GET_ALL_PRESCRIBED_MEDICINES_OF_PATIENT(uint256)":"7c0b501a","GET_ALL_REGISTERED_DOCTORS()":"770d954d","GET_ALL_REGISTERED_MEDICINES()":"9fea8c26","GET_ALL_REGISTERED_PATIENTS()":"842f8dd0","GET_BOUGHT_MEDICINE_BY_PAITENT(uint256)":"636d3627","GET_DOCTOR_APPOINTMENTS_HISTORYS(uint256)":"72de4401","GET_DOCTOR_DETAILS(uint256)":"fe60efa1","GET_DOCTOR_ID(address)":"082ed547","GET_MEDICINE_DETAILS(uint256)":"e92f0a68","GET_MOST_POPULAR_DOCTOR()":"b27b24f8","GET_MY_FRIEND_LIST(address)":"b3e0c710","GET_NOTIFICATIONS(address)":"2a42e74c","GET_PATIENT_APPOINTMENT(uint256)":"84e7aa2e","GET_PATIENT_APPOINTMENT_HISTORYS(uint256)":"559160b8","GET_PATIENT_DETAILS(uint256)":"74cdd534","GET_PATIENT_ID(address)":"04c0adb7","GET_PATIENT_MEDICIAL_HISTORY(uint256)":"a72c1623","GET_PRESCRIPTION_DETAILS(uint256)":"f27e44cc","GET_READ_MESSAGE(address,address)":"b039ece9","GET_USERNAME_TYPE(address)":"ff09a64e","PRESCRIBE_MEDICINE(uint256,uint256)":"37a92da7","UPDATE_ADMIN_ADDRESS(address)":"02cce770","UPDATE_APPOINTMENT_FEE(uint256)":"046a07ed","UPDATE_MEDICINE_ACTIVE(uint256)":"c0a5999a","UPDATE_MEDICINE_DISCOUNT(uint256,uint256)":"bbece2bb","UPDATE_MEDICINE_LOCATION(uint256,string)":"fb5333b7","UPDATE_MEDICINE_PRICE(uint256,uint256)":"39d519a9","UPDATE_MEDICINE_QUANTITY(uint256,uint256)":"2c486bd5","UPDATE_PATIENT_MEDICAL_HISTORY(uint256,string)":"354b365f","UPDATE_REGISTRATION_FEE(uint256)":"f28136a9","UPDATE_REGISTRATION_PATIENT_FEE(uint256)":"d174ea41","_SEND_MESSAGE(address,address,string)":"ed74e848","admin()":"f851a440","appointmentCount()":"eebc3fb2","appointmentFee()":"dabf826a","appointments(uint256)":"12dc9013","doctorCount()":"78522bc4","doctors(uint256)":"6efb1b84","medicineCount()":"4dafd490","medicines(uint256)":"c85e766d","patientCount()":"a0303c41","patientOrders(uint256,uint256)":"a48f87d0","patients(uint256)":"93119a83","prescriptionCount()":"b6558498","prescriptions(uint256)":"31dfc91b","registeredDoctors(address)":"3f308cd2","registeredPatients(address)":"9cdaaad8","registrationDoctorFee()":"e40b850e","registrationPatientFee()":"540a6614"}}}}}